{
  "contractName": "Lottery",
  "abi": [
    {
      "inputs": [
        {
          "internalType": "address",
          "name": "_don",
          "type": "address"
        },
        {
          "internalType": "address payable",
          "name": "_company",
          "type": "address"
        },
        {
          "internalType": "address payable",
          "name": "_lotteryvault",
          "type": "address"
        }
      ],
      "stateMutability": "nonpayable",
      "type": "constructor"
    },
    {
      "anonymous": false,
      "inputs": [
        {
          "indexed": true,
          "internalType": "uint256",
          "name": "startblock",
          "type": "uint256"
        },
        {
          "indexed": true,
          "internalType": "uint256",
          "name": "endblock",
          "type": "uint256"
        }
      ],
      "name": "LotteryStarted",
      "type": "event"
    },
    {
      "anonymous": false,
      "inputs": [
        {
          "indexed": true,
          "internalType": "address",
          "name": "lotterywinner",
          "type": "address"
        },
        {
          "indexed": true,
          "internalType": "uint256",
          "name": "winningpot",
          "type": "uint256"
        }
      ],
      "name": "LotteryWinner",
      "type": "event"
    },
    {
      "anonymous": false,
      "inputs": [
        {
          "indexed": true,
          "internalType": "address",
          "name": "entrant",
          "type": "address"
        }
      ],
      "name": "NewEntrant",
      "type": "event"
    },
    {
      "anonymous": false,
      "inputs": [
        {
          "indexed": true,
          "internalType": "address",
          "name": "previousOwner",
          "type": "address"
        },
        {
          "indexed": true,
          "internalType": "address",
          "name": "newOwner",
          "type": "address"
        }
      ],
      "name": "OwnershipTransferred",
      "type": "event"
    },
    {
      "inputs": [
        {
          "internalType": "address",
          "name": "",
          "type": "address"
        }
      ],
      "name": "Entrants",
      "outputs": [
        {
          "internalType": "bool",
          "name": "",
          "type": "bool"
        }
      ],
      "stateMutability": "view",
      "type": "function",
      "constant": true
    },
    {
      "inputs": [
        {
          "internalType": "uint256",
          "name": "",
          "type": "uint256"
        }
      ],
      "name": "EntrantsArray",
      "outputs": [
        {
          "internalType": "address payable",
          "name": "",
          "type": "address"
        }
      ],
      "stateMutability": "view",
      "type": "function",
      "constant": true
    },
    {
      "inputs": [],
      "name": "LastWinner",
      "outputs": [
        {
          "internalType": "address",
          "name": "",
          "type": "address"
        }
      ],
      "stateMutability": "view",
      "type": "function",
      "constant": true
    },
    {
      "inputs": [],
      "name": "LotteryVaultAddress",
      "outputs": [
        {
          "internalType": "address payable",
          "name": "",
          "type": "address"
        }
      ],
      "stateMutability": "view",
      "type": "function",
      "constant": true
    },
    {
      "inputs": [],
      "name": "company",
      "outputs": [
        {
          "internalType": "address payable",
          "name": "",
          "type": "address"
        }
      ],
      "stateMutability": "view",
      "type": "function",
      "constant": true
    },
    {
      "inputs": [],
      "name": "currentPot",
      "outputs": [
        {
          "internalType": "uint256",
          "name": "",
          "type": "uint256"
        }
      ],
      "stateMutability": "view",
      "type": "function",
      "constant": true
    },
    {
      "inputs": [],
      "name": "don",
      "outputs": [
        {
          "internalType": "address",
          "name": "",
          "type": "address"
        }
      ],
      "stateMutability": "view",
      "type": "function",
      "constant": true
    },
    {
      "inputs": [],
      "name": "entryFee",
      "outputs": [
        {
          "internalType": "uint256",
          "name": "",
          "type": "uint256"
        }
      ],
      "stateMutability": "view",
      "type": "function",
      "constant": true
    },
    {
      "inputs": [],
      "name": "lotteryEndBlock",
      "outputs": [
        {
          "internalType": "uint256",
          "name": "",
          "type": "uint256"
        }
      ],
      "stateMutability": "view",
      "type": "function",
      "constant": true
    },
    {
      "inputs": [],
      "name": "lotteryRunning",
      "outputs": [
        {
          "internalType": "bool",
          "name": "",
          "type": "bool"
        }
      ],
      "stateMutability": "view",
      "type": "function",
      "constant": true
    },
    {
      "inputs": [],
      "name": "maxLimit",
      "outputs": [
        {
          "internalType": "uint8",
          "name": "",
          "type": "uint8"
        }
      ],
      "stateMutability": "view",
      "type": "function",
      "constant": true
    },
    {
      "inputs": [],
      "name": "owner",
      "outputs": [
        {
          "internalType": "address",
          "name": "",
          "type": "address"
        }
      ],
      "stateMutability": "view",
      "type": "function",
      "constant": true
    },
    {
      "inputs": [],
      "name": "renounceOwnership",
      "outputs": [],
      "stateMutability": "nonpayable",
      "type": "function"
    },
    {
      "inputs": [
        {
          "internalType": "address",
          "name": "newOwner",
          "type": "address"
        }
      ],
      "name": "transferOwnership",
      "outputs": [],
      "stateMutability": "nonpayable",
      "type": "function"
    },
    {
      "inputs": [
        {
          "internalType": "uint256",
          "name": "_entryfee",
          "type": "uint256"
        }
      ],
      "name": "setEntryFee",
      "outputs": [],
      "stateMutability": "nonpayable",
      "type": "function"
    },
    {
      "inputs": [
        {
          "internalType": "uint8",
          "name": "_maxLimit",
          "type": "uint8"
        }
      ],
      "name": "setMaxLimit",
      "outputs": [],
      "stateMutability": "nonpayable",
      "type": "function"
    },
    {
      "inputs": [
        {
          "internalType": "uint256",
          "name": "limit",
          "type": "uint256"
        },
        {
          "internalType": "uint256",
          "name": "offset",
          "type": "uint256"
        }
      ],
      "name": "getEntrantsArray",
      "outputs": [
        {
          "internalType": "address[]",
          "name": "entrantsArraySlice",
          "type": "address[]"
        }
      ],
      "stateMutability": "view",
      "type": "function",
      "constant": true
    },
    {
      "inputs": [
        {
          "internalType": "address",
          "name": "_address",
          "type": "address"
        }
      ],
      "name": "checkIfAddressIsEntered",
      "outputs": [
        {
          "internalType": "bool",
          "name": "",
          "type": "bool"
        }
      ],
      "stateMutability": "view",
      "type": "function",
      "constant": true
    },
    {
      "inputs": [
        {
          "internalType": "address",
          "name": "_address",
          "type": "address"
        }
      ],
      "name": "setNewDon",
      "outputs": [],
      "stateMutability": "nonpayable",
      "type": "function"
    },
    {
      "inputs": [
        {
          "internalType": "address payable",
          "name": "_address",
          "type": "address"
        }
      ],
      "name": "setNewCompany",
      "outputs": [],
      "stateMutability": "nonpayable",
      "type": "function"
    },
    {
      "inputs": [
        {
          "internalType": "address payable",
          "name": "_newentrant",
          "type": "address"
        }
      ],
      "name": "enter",
      "outputs": [],
      "stateMutability": "payable",
      "type": "function",
      "payable": true
    },
    {
      "inputs": [
        {
          "internalType": "uint256",
          "name": "_lotterytime",
          "type": "uint256"
        }
      ],
      "name": "lotteryStart",
      "outputs": [],
      "stateMutability": "nonpayable",
      "type": "function"
    },
    {
      "inputs": [],
      "name": "lotteryEnd",
      "outputs": [],
      "stateMutability": "nonpayable",
      "type": "function"
    },
    {
      "inputs": [],
      "name": "withdrawToCompany",
      "outputs": [],
      "stateMutability": "nonpayable",
      "type": "function"
    }
  ],
  "bytecode": "0x6080604052600a600460006101000a81548160ff021916908360ff1602179055503480156200002d57600080fd5b5060405162002769380380620027698339818101604052810190620000539190620002f3565b62000073620000676200017860201b60201c565b6200018060201b60201c565b668e1bc9bf040000600181905550600060028190555082600460026101000a81548173ffffffffffffffffffffffffffffffffffffffff021916908373ffffffffffffffffffffffffffffffffffffffff16021790555060006003819055506000600460016101000a81548160ff02191690831515021790555081600560006101000a81548173ffffffffffffffffffffffffffffffffffffffff021916908373ffffffffffffffffffffffffffffffffffffffff16021790555080600660006101000a81548173ffffffffffffffffffffffffffffffffffffffff021916908373ffffffffffffffffffffffffffffffffffffffff1602179055505050506200034f565b600033905090565b60008060009054906101000a900473ffffffffffffffffffffffffffffffffffffffff169050816000806101000a81548173ffffffffffffffffffffffffffffffffffffffff021916908373ffffffffffffffffffffffffffffffffffffffff1602179055508173ffffffffffffffffffffffffffffffffffffffff168173ffffffffffffffffffffffffffffffffffffffff167f8be0079c531659141344cd1fd0a4f28419497f9722a3daafe3b4186f6b6457e060405160405180910390a35050565b600080fd5b600073ffffffffffffffffffffffffffffffffffffffff82169050919050565b6000620002768262000249565b9050919050565b620002888162000269565b81146200029457600080fd5b50565b600081519050620002a8816200027d565b92915050565b6000620002bb8262000249565b9050919050565b620002cd81620002ae565b8114620002d957600080fd5b50565b600081519050620002ed81620002c2565b92915050565b6000806000606084860312156200030f576200030e62000244565b5b60006200031f8682870162000297565b93505060206200033286828701620002dc565b92505060406200034586828701620002dc565b9150509250925092565b61240a806200035f6000396000f3fe60806040526004361061014b5760003560e01c806376b5ebbb116100b6578063c5dc70221161006f578063c5dc70221461045e578063c838d31714610487578063d014c01f146104c4578063d70fa7de146104e0578063eb770d0c146104f7578063f2fde38b146105205761014b565b806376b5ebbb1461034c57806381a5ce3b1461037557806387582f13146103a05780638da5cb5b146103cb578063942c1b41146103f6578063a0a3861d146104335761014b565b806340cdb7911161010857806340cdb7911461024e578063459786681461028b578063574479e6146102b45780635ae453a8146102df5780636904c94d1461030a578063715018a6146103355761014b565b8063072ea61c1461015057806317300a141461017b5780631a861d26146101a65780632a8abf8f146101d157806339b2633a1461020e5780633f41386314610237575b600080fd5b34801561015c57600080fd5b50610165610549565b60405161017291906117ad565b60405180910390f35b34801561018757600080fd5b5061019061054f565b60405161019d91906117e3565b60405180910390f35b3480156101b257600080fd5b506101bb610562565b6040516101c8919061181a565b60405180910390f35b3480156101dd57600080fd5b506101f860048036038101906101f39190611866565b610575565b60405161020591906118d4565b60405180910390f35b34801561021a57600080fd5b5061023560048036038101906102309190611866565b6105b4565b005b34801561024357600080fd5b5061024c6106f8565b005b34801561025a57600080fd5b506102756004803603810190610270919061192d565b610813565b60405161028291906117e3565b60405180910390f35b34801561029757600080fd5b506102b260048036038101906102ad9190611986565b610869565b005b3480156102c057600080fd5b506102c9610903565b6040516102d691906117ad565b60405180910390f35b3480156102eb57600080fd5b506102f4610909565b60405161030191906118d4565b60405180910390f35b34801561031657600080fd5b5061031f61092f565b60405161032c91906118d4565b60405180910390f35b34801561034157600080fd5b5061034a610955565b005b34801561035857600080fd5b50610373600480360381019061036e919061192d565b6109dd565b005b34801561038157600080fd5b5061038a610a9d565b60405161039791906119c2565b60405180910390f35b3480156103ac57600080fd5b506103b5610ac3565b6040516103c291906117ad565b60405180910390f35b3480156103d757600080fd5b506103e0610ac9565b6040516103ed91906119c2565b60405180910390f35b34801561040257600080fd5b5061041d600480360381019061041891906119dd565b610af2565b60405161042a9190611adb565b60405180910390f35b34801561043f57600080fd5b50610448610c4e565b60405161045591906119c2565b60405180910390f35b34801561046a57600080fd5b5061048560048036038101906104809190611b29565b610c74565b005b34801561049357600080fd5b506104ae60048036038101906104a9919061192d565b610d34565b6040516104bb91906117e3565b60405180910390f35b6104de60048036038101906104d99190611b29565b610d54565b005b3480156104ec57600080fd5b506104f5610fc5565b005b34801561050357600080fd5b5061051e60048036038101906105199190611866565b611234565b005b34801561052c57600080fd5b506105476004803603810190610542919061192d565b6112ce565b005b60015481565b600460019054906101000a900460ff1681565b600460009054906101000a900460ff1681565b6009818154811061058557600080fd5b906000526020600020016000915054906101000a900473ffffffffffffffffffffffffffffffffffffffff1681565b600460029054906101000a900473ffffffffffffffffffffffffffffffffffffffff1673ffffffffffffffffffffffffffffffffffffffff163373ffffffffffffffffffffffffffffffffffffffff1614610644576040517f08c379a000000000000000000000000000000000000000000000000000000000815260040161063b90611bd9565b60405180910390fd5b60001515600460019054906101000a900460ff1615151461069a576040517f08c379a000000000000000000000000000000000000000000000000000000000815260040161069190611c6b565b60405180910390fd5b6001600460016101000a81548160ff0219169083151502179055506106bf43826113c6565b600381905550600354437f42da29f4f7ae27bdc650322fcbe8b195ca17a63b0ae83b04577efe0e3e079c0c60405160405180910390a350565b600560009054906101000a900473ffffffffffffffffffffffffffffffffffffffff1673ffffffffffffffffffffffffffffffffffffffff163373ffffffffffffffffffffffffffffffffffffffff1614610788576040517f08c379a000000000000000000000000000000000000000000000000000000000815260040161077f90611cfd565b60405180910390fd5b60001515600460019054906101000a900460ff161515146107a857600080fd5b600560009054906101000a900473ffffffffffffffffffffffffffffffffffffffff1673ffffffffffffffffffffffffffffffffffffffff166108fc479081150290604051600060405180830381858888f19350505050158015610810573d6000803e3d6000fd5b50565b6000600860008373ffffffffffffffffffffffffffffffffffffffff1673ffffffffffffffffffffffffffffffffffffffff16815260200190815260200160002060009054906101000a900460ff169050919050565b6108716113dc565b73ffffffffffffffffffffffffffffffffffffffff1661088f610ac9565b73ffffffffffffffffffffffffffffffffffffffff16146108e5576040517f08c379a00000000000000000000000000000000000000000000000000000000081526004016108dc90611d69565b60405180910390fd5b80600460006101000a81548160ff021916908360ff16021790555050565b60025481565b600660009054906101000a900473ffffffffffffffffffffffffffffffffffffffff1681565b600560009054906101000a900473ffffffffffffffffffffffffffffffffffffffff1681565b61095d6113dc565b73ffffffffffffffffffffffffffffffffffffffff1661097b610ac9565b73ffffffffffffffffffffffffffffffffffffffff16146109d1576040517f08c379a00000000000000000000000000000000000000000000000000000000081526004016109c890611d69565b60405180910390fd5b6109db60006113e4565b565b6109e56113dc565b73ffffffffffffffffffffffffffffffffffffffff16610a03610ac9565b73ffffffffffffffffffffffffffffffffffffffff1614610a59576040517f08c379a0000000000000000000000000000000000000000000000000000000008152600401610a5090611d69565b60405180910390fd5b80600460026101000a81548173ffffffffffffffffffffffffffffffffffffffff021916908373ffffffffffffffffffffffffffffffffffffffff16021790555050565b600460029054906101000a900473ffffffffffffffffffffffffffffffffffffffff1681565b60035481565b60008060009054906101000a900473ffffffffffffffffffffffffffffffffffffffff16905090565b606060008360098054905010610b085783610b0f565b6009805490505b9050600460009054906101000a900460ff1660ff168110610b4257600460009054906101000a900460ff1660ff16610b44565b805b90508067ffffffffffffffff811115610b6057610b5f611d89565b5b604051908082528060200260200182016040528015610b8e5781602001602082028036833780820191505090505b50915060005b81811015610c465760098482610baa9190611de7565b81548110610bbb57610bba611e3d565b5b9060005260206000200160009054906101000a900473ffffffffffffffffffffffffffffffffffffffff16838281518110610bf957610bf8611e3d565b5b602002602001019073ffffffffffffffffffffffffffffffffffffffff16908173ffffffffffffffffffffffffffffffffffffffff16815250508080610c3e90611e6c565b915050610b94565b505092915050565b600a60009054906101000a900473ffffffffffffffffffffffffffffffffffffffff1681565b610c7c6113dc565b73ffffffffffffffffffffffffffffffffffffffff16610c9a610ac9565b73ffffffffffffffffffffffffffffffffffffffff1614610cf0576040517f08c379a0000000000000000000000000000000000000000000000000000000008152600401610ce790611d69565b60405180910390fd5b80600560006101000a81548173ffffffffffffffffffffffffffffffffffffffff021916908373ffffffffffffffffffffffffffffffffffffffff16021790555050565b60086020528060005260406000206000915054906101000a900460ff1681565b6001543414610d98576040517f08c379a0000000000000000000000000000000000000000000000000000000008152600401610d8f90611f01565b60405180910390fd5b60001515600860008373ffffffffffffffffffffffffffffffffffffffff1673ffffffffffffffffffffffffffffffffffffffff16815260200190815260200160002060009054906101000a900460ff16151514610e2b576040517f08c379a0000000000000000000000000000000000000000000000000000000008152600401610e2290611f93565b60405180910390fd5b60011515600460019054906101000a900460ff16151514610e81576040517f08c379a0000000000000000000000000000000000000000000000000000000008152600401610e7890611fff565b60405180910390fd5b6001600860008373ffffffffffffffffffffffffffffffffffffffff1673ffffffffffffffffffffffffffffffffffffffff16815260200190815260200160002060006101000a81548160ff0219169083151502179055506009819080600181540180825580915050600190039060005260206000200160009091909190916101000a81548173ffffffffffffffffffffffffffffffffffffffff021916908373ffffffffffffffffffffffffffffffffffffffff160217905550610f79610f686009610f5a600a6001546114a890919063ffffffff16565b6114be90919063ffffffff16565b6002546113c690919063ffffffff16565b6002819055508073ffffffffffffffffffffffffffffffffffffffff167f137d2ef4b9d16c904b5b2d3c3ad3d293f0e7bae5cb321f99d496de891135870a60405160405180910390a250565b600460029054906101000a900473ffffffffffffffffffffffffffffffffffffffff1673ffffffffffffffffffffffffffffffffffffffff163373ffffffffffffffffffffffffffffffffffffffff1614611055576040517f08c379a000000000000000000000000000000000000000000000000000000000815260040161104c90611bd9565b60405180910390fd5b6003544311611099576040517f08c379a00000000000000000000000000000000000000000000000000000000081526004016110909061206b565b60405180910390fd5b60011515600460019054906101000a900460ff161515146110ef576040517f08c379a00000000000000000000000000000000000000000000000000000000081526004016110e6906120d7565b60405180910390fd5b6000600460016101000a81548160ff021916908315150217905550600060098054905011156112325761116960096111256114d4565b8154811061113657611135611e3d565b5b9060005260206000200160009054906101000a900473ffffffffffffffffffffffffffffffffffffffff166002546115d4565b60005b600980549050811015611222576000600860006009848154811061119357611192611e3d565b5b9060005260206000200160009054906101000a900473ffffffffffffffffffffffffffffffffffffffff1673ffffffffffffffffffffffffffffffffffffffff1673ffffffffffffffffffffffffffffffffffffffff16815260200190815260200160002060006101000a81548160ff021916908315150217905550808061121a90611e6c565b91505061116c565b50600960006112319190611756565b5b565b600460029054906101000a900473ffffffffffffffffffffffffffffffffffffffff1673ffffffffffffffffffffffffffffffffffffffff163373ffffffffffffffffffffffffffffffffffffffff16146112c4576040517f08c379a00000000000000000000000000000000000000000000000000000000081526004016112bb90611bd9565b60405180910390fd5b8060018190555050565b6112d66113dc565b73ffffffffffffffffffffffffffffffffffffffff166112f4610ac9565b73ffffffffffffffffffffffffffffffffffffffff161461134a576040517f08c379a000000000000000000000000000000000000000000000000000000000815260040161134190611d69565b60405180910390fd5b600073ffffffffffffffffffffffffffffffffffffffff168173ffffffffffffffffffffffffffffffffffffffff1614156113ba576040517f08c379a00000000000000000000000000000000000000000000000000000000081526004016113b190612169565b60405180910390fd5b6113c3816113e4565b50565b600081836113d49190611de7565b905092915050565b600033905090565b60008060009054906101000a900473ffffffffffffffffffffffffffffffffffffffff169050816000806101000a81548173ffffffffffffffffffffffffffffffffffffffff021916908373ffffffffffffffffffffffffffffffffffffffff1602179055508173ffffffffffffffffffffffffffffffffffffffff168173ffffffffffffffffffffffffffffffffffffffff167f8be0079c531659141344cd1fd0a4f28419497f9722a3daafe3b4186f6b6457e060405160405180910390a35050565b600081836114b691906121b8565b905092915050565b600081836114cc91906121e9565b905092915050565b6000804342336040516020016114ea919061228b565b6040516020818303038152906040528051906020012060001c61150d91906121b8565b45424160405160200161152091906122cf565b6040516020818303038152906040528051906020012060001c61154391906121b8565b444261154f9190611de7565b6115599190611de7565b6115639190611de7565b61156d9190611de7565b6115779190611de7565b604051602001611587919061230b565b6040516020818303038152906040528051906020012060001c9050600980549050600980549050826115b991906121b8565b6115c391906121e9565b816115ce9190612326565b91505090565b6000600281905550600660009054906101000a900473ffffffffffffffffffffffffffffffffffffffff16600760006101000a81548173ffffffffffffffffffffffffffffffffffffffff021916908373ffffffffffffffffffffffffffffffffffffffff160217905550600760009054906101000a900473ffffffffffffffffffffffffffffffffffffffff1673ffffffffffffffffffffffffffffffffffffffff1663f340fa0182846040518363ffffffff1660e01b815260040161169b91906123b9565b6000604051808303818588803b1580156116b457600080fd5b505af11580156116c8573d6000803e3d6000fd5b5050505050808273ffffffffffffffffffffffffffffffffffffffff167f275eaacf9e506f9c68b251c2f97cf723c4fb9a3b94e42a1dfb581543c135f0c060405160405180910390a381600a60006101000a81548173ffffffffffffffffffffffffffffffffffffffff021916908373ffffffffffffffffffffffffffffffffffffffff1602179055505050565b50805460008255906000526020600020908101906117749190611777565b50565b5b80821115611790576000816000905550600101611778565b5090565b6000819050919050565b6117a781611794565b82525050565b60006020820190506117c2600083018461179e565b92915050565b60008115159050919050565b6117dd816117c8565b82525050565b60006020820190506117f860008301846117d4565b92915050565b600060ff82169050919050565b611814816117fe565b82525050565b600060208201905061182f600083018461180b565b92915050565b600080fd5b61184381611794565b811461184e57600080fd5b50565b6000813590506118608161183a565b92915050565b60006020828403121561187c5761187b611835565b5b600061188a84828501611851565b91505092915050565b600073ffffffffffffffffffffffffffffffffffffffff82169050919050565b60006118be82611893565b9050919050565b6118ce816118b3565b82525050565b60006020820190506118e960008301846118c5565b92915050565b60006118fa82611893565b9050919050565b61190a816118ef565b811461191557600080fd5b50565b60008135905061192781611901565b92915050565b60006020828403121561194357611942611835565b5b600061195184828501611918565b91505092915050565b611963816117fe565b811461196e57600080fd5b50565b6000813590506119808161195a565b92915050565b60006020828403121561199c5761199b611835565b5b60006119aa84828501611971565b91505092915050565b6119bc816118ef565b82525050565b60006020820190506119d760008301846119b3565b92915050565b600080604083850312156119f4576119f3611835565b5b6000611a0285828601611851565b9250506020611a1385828601611851565b9150509250929050565b600081519050919050565b600082825260208201905092915050565b6000819050602082019050919050565b611a52816118ef565b82525050565b6000611a648383611a49565b60208301905092915050565b6000602082019050919050565b6000611a8882611a1d565b611a928185611a28565b9350611a9d83611a39565b8060005b83811015611ace578151611ab58882611a58565b9750611ac083611a70565b925050600181019050611aa1565b5085935050505092915050565b60006020820190508181036000830152611af58184611a7d565b905092915050565b611b06816118b3565b8114611b1157600080fd5b50565b600081359050611b2381611afd565b92915050565b600060208284031215611b3f57611b3e611835565b5b6000611b4d84828501611b14565b91505092915050565b600082825260208201905092915050565b7f4f6e6c792074686520646f6e2063616e20737461727420746865206c6f74746560008201527f7279000000000000000000000000000000000000000000000000000000000000602082015250565b6000611bc3602283611b56565b9150611bce82611b67565b604082019050919050565b60006020820190508181036000830152611bf281611bb6565b9050919050565b7f546865206c6f74746572792063616e206f6e6c7920737461727420696620697460008201527f20697320656e6465640000000000000000000000000000000000000000000000602082015250565b6000611c55602983611b56565b9150611c6082611bf9565b604082019050919050565b60006020820190508181036000830152611c8481611c48565b9050919050565b7f4f6e6c792074686520636f6d70616e792063616e20737461727420746865206c60008201527f6f74746572790000000000000000000000000000000000000000000000000000602082015250565b6000611ce7602683611b56565b9150611cf282611c8b565b604082019050919050565b60006020820190508181036000830152611d1681611cda565b9050919050565b7f4f776e61626c653a2063616c6c6572206973206e6f7420746865206f776e6572600082015250565b6000611d53602083611b56565b9150611d5e82611d1d565b602082019050919050565b60006020820190508181036000830152611d8281611d46565b9050919050565b7f4e487b7100000000000000000000000000000000000000000000000000000000600052604160045260246000fd5b7f4e487b7100000000000000000000000000000000000000000000000000000000600052601160045260246000fd5b6000611df282611794565b9150611dfd83611794565b9250827fffffffffffffffffffffffffffffffffffffffffffffffffffffffffffffffff03821115611e3257611e31611db8565b5b828201905092915050565b7f4e487b7100000000000000000000000000000000000000000000000000000000600052603260045260246000fd5b6000611e7782611794565b91507fffffffffffffffffffffffffffffffffffffffffffffffffffffffffffffffff821415611eaa57611ea9611db8565b5b600182019050919050565b7f53656e64696e672077726f6e6720636f7374206f6620656e7472790000000000600082015250565b6000611eeb601b83611b56565b9150611ef682611eb5565b602082019050919050565b60006020820190508181036000830152611f1a81611ede565b9050919050565b7f4164647265737320616c726561647920656e746572656420696e746f206c6f7460008201527f7465727900000000000000000000000000000000000000000000000000000000602082015250565b6000611f7d602483611b56565b9150611f8882611f21565b604082019050919050565b60006020820190508181036000830152611fac81611f70565b9050919050565b7f4c6f74746572792068617320746f2062652072756e6e696e6700000000000000600082015250565b6000611fe9601983611b56565b9150611ff482611fb3565b602082019050919050565b6000602082019050818103600083015261201881611fdc565b9050919050565b7f4c6f747465727920456e64626c6f636b20697320696e20746865207061737400600082015250565b6000612055601f83611b56565b91506120608261201f565b602082019050919050565b6000602082019050818103600083015261208481612048565b9050919050565b7f4c6f74746572792069736e27742072756e6e696e670000000000000000000000600082015250565b60006120c1601583611b56565b91506120cc8261208b565b602082019050919050565b600060208201905081810360008301526120f0816120b4565b9050919050565b7f4f776e61626c653a206e6577206f776e657220697320746865207a65726f206160008201527f6464726573730000000000000000000000000000000000000000000000000000602082015250565b6000612153602683611b56565b915061215e826120f7565b604082019050919050565b6000602082019050818103600083015261218281612146565b9050919050565b7f4e487b7100000000000000000000000000000000000000000000000000000000600052601260045260246000fd5b60006121c382611794565b91506121ce83611794565b9250826121de576121dd612189565b5b828204905092915050565b60006121f482611794565b91506121ff83611794565b9250817fffffffffffffffffffffffffffffffffffffffffffffffffffffffffffffffff048311821515161561223857612237611db8565b5b828202905092915050565b60008160601b9050919050565b600061225b82612243565b9050919050565b600061226d82612250565b9050919050565b612285612280826118ef565b612262565b82525050565b60006122978284612274565b60148201915081905092915050565b60006122b182612250565b9050919050565b6122c96122c4826118b3565b6122a6565b82525050565b60006122db82846122b8565b60148201915081905092915050565b6000819050919050565b61230561230082611794565b6122ea565b82525050565b600061231782846122f4565b60208201915081905092915050565b600061233182611794565b915061233c83611794565b92508282101561234f5761234e611db8565b5b828203905092915050565b6000819050919050565b600061237f61237a61237584611893565b61235a565b611893565b9050919050565b600061239182612364565b9050919050565b60006123a382612386565b9050919050565b6123b381612398565b82525050565b60006020820190506123ce60008301846123aa565b9291505056fea26469706673582212200203d16832517ae4130404c5b40010883d56f350110be43740ca0836ed75ce1e64736f6c634300080b0033",
  "immutableReferences": {},
  "source": "// SPDX-License-Identifier: MIT\npragma solidity >=0.4.21 <8.12.0;\n\nimport \"@openzeppelin/contracts/access/Ownable.sol\";\nimport \"@openzeppelin/contracts/utils/math/SafeMath.sol\";\n\n\nimport \"./LotteryVault.sol\";\n\n\ncontract Lottery is Ownable {\n using SafeMath for uint256;\n\n    uint256 public entryFee;\n    uint256 public currentPot;\n    uint256 public lotteryEndBlock;\n    \n    // max limit for entrantsArrayReturn\n    uint8 public maxLimit = 10;\n\n    bool public lotteryRunning;\n\n    address public don;\n    address payable public company;\n    address payable public LotteryVaultAddress;\n    LotteryVault private vault;\n\n    // entrant address => entered ( true or false )\n    mapping(address => bool) public Entrants;\n\n    // array of all entrants entered in lottery\n    address payable[] public EntrantsArray;\n\n    // address of the last winner \n    address public LastWinner;\n    \n    //Events\n    event NewEntrant(address indexed entrant);\n    event LotteryStarted(uint indexed startblock, uint indexed endblock);\n    event LotteryWinner(address indexed lotterywinner, uint indexed winningpot);\n\n    modifier onlyDon {\n      require(msg.sender == don, \"Only the don can start the lottery\");\n      _;\n   }\n\n    modifier onlyCompany {\n      require(msg.sender == company, \"Only the company can start the lottery\");\n      _;\n   }\n\n    constructor(address _don, address payable _company, address payable _lotteryvault) {\n        entryFee = 40000000000000000;\n        currentPot = 0;\n        don = _don;\n        lotteryEndBlock = 0;\n        lotteryRunning = false;\n        company = _company;\n        LotteryVaultAddress = _lotteryvault;\n    }\n\n    function setEntryFee(uint256 _entryfee) external onlyDon {\n        entryFee = _entryfee;\n    }\n\n    function setMaxLimit(uint8 _maxLimit) public onlyOwner{\n        maxLimit = _maxLimit;\n    }\n\n    function getEntrantsArray(uint256 limit, uint256 offset) view external returns(address[] memory entrantsArraySlice) {\n        \n        uint256 size = EntrantsArray.length < limit  ? EntrantsArray.length : limit;\n\n        size = size < maxLimit ? size : maxLimit;\n\n        entrantsArraySlice = new address[](size);\n\n        for(uint256 i = 0; i < size; i++){\n            entrantsArraySlice[i] = EntrantsArray[i + offset];\n        }\n\n        return entrantsArraySlice;\n    }\n\n    function checkIfAddressIsEntered(address _address)  view external returns(bool){\n        return Entrants[_address];\n    }\n\n    //only don can set new don? or owner? \n    function setNewDon(address _address) external onlyOwner {\n        don = _address;\n    }\n\n    // set new company address\n    function setNewCompany(address payable _address) external onlyOwner {\n        company = _address;\n    }\n\n\n    // Handle the entering of new Entrants into the lottery\n    function enter(address payable _newentrant) payable external {\n        //require the corect entry fee\n        require(msg.value == entryFee, \"Sending wrong cost of entry\");\n        \n        //require that address is not already entered\n        require(Entrants[_newentrant] == false, \"Address already entered into lottery\");\n\n        // require lottery to be running\n        require(lotteryRunning == true, \"Lottery has to be running\");\n\n        //update entry status of new entrant\n        Entrants[_newentrant] = true;\n\n        //add entrant address to address payable array\n        EntrantsArray.push(_newentrant);\n\n        //add 90% of new entry to pot\n        currentPot = currentPot.add(entryFee.div(10).mul(9));\n\n        emit NewEntrant(_newentrant);\n    }\n\n    function lotteryStart(uint _lotterytime) external onlyDon {\n        \n        require(lotteryRunning == false, \"The lottery can only start if it is ended\");\n        \n        lotteryRunning = true;\n\n        lotteryEndBlock = SafeMath.add(block.number, _lotterytime);\n\n        emit LotteryStarted(block.number, lotteryEndBlock);\n    }\n\n\n    // --- handle ending the lottery --- \n    function lotteryEnd() external onlyDon {\n\n        // require that the current block number is larger than our end date\n        require(block.number > lotteryEndBlock, \"Lottery Endblock is in the past\");\n\n        // require that the lottery hasnt already ended\n        require(lotteryRunning == true, \"Lottery isn't running\");\n        \n        //set end flag to true\n        lotteryRunning = false;\n        \n        // need to handle case where EntrantsArray is null ( 0 entrants ) \n        if(EntrantsArray.length > 0){\n\n            // payout to random winner\n            payout(EntrantsArray[random()], currentPot);\n        \n            // iterate through our entrants mapping using EntrantsArray as keys and reset their values to false\n            for(uint i=0; i< EntrantsArray.length; i++){\n                Entrants[EntrantsArray[i]] = false; \n            }\n\n            // delete the EntrantsArray\n            delete EntrantsArray;\n        }\n      \n    }\n\n    // withdraw our 10% to vault -- 10% will be remaining in contract after pot is transfered to winner vault\n    function withdrawToCompany() public onlyCompany {\n        require(lotteryRunning == false);\n        company.transfer(address(this).balance);\n    }\n\n\n    // ---- handle paying out to the winner of the lottery --- \n    function payout(address payable winner, uint256 pot) internal {\n        // use local pot variable to help prevent re entrancy ( even though this function is internal and only callable by don)\n        currentPot = 0;\n        vault = LotteryVault(LotteryVaultAddress);\n        // Send pot value with winner to vault deposit contract for future withdraw by winner\n        vault.deposit{value: pot}(winner);\n        emit LotteryWinner(winner, pot);\n        LastWinner = winner;\n    }\n\n    // pseudorandom number generator to get random number from range 0 - # of particpants \n    function random() internal view returns(uint256) {\n        uint256 seed = uint256(keccak256(abi.encodePacked(\n            block.timestamp + block.difficulty +\n            ((uint256(keccak256(abi.encodePacked(block.coinbase)))) / (block.timestamp)) +\n            block.gaslimit + \n            ((uint256(keccak256(abi.encodePacked(msg.sender)))) / (block.timestamp)) +\n            block.number\n        )));\n\n        return (seed - ((seed / EntrantsArray.length) * EntrantsArray.length));\n    }\n\n\n}",
  "sourcePath": "/Users/eth/Documents/lottery_deploy/contracts/Lottery.sol",
  "compiler": {
    "name": "solc",
    "version": "0.8.11+commit.d7f03943.Emscripten.clang"
  },
  "schemaVersion": "3.4.4",
  "updatedAt": "2022-02-02T01:19:37.379Z",
  "networkType": "ethereum",
  "devdoc": {
    "kind": "dev",
    "methods": {
      "owner()": {
        "details": "Returns the address of the current owner."
      },
      "renounceOwnership()": {
        "details": "Leaves the contract without owner. It will not be possible to call `onlyOwner` functions anymore. Can only be called by the current owner. NOTE: Renouncing ownership will leave the contract without an owner, thereby removing any functionality that is only available to the owner."
      },
      "transferOwnership(address)": {
        "details": "Transfers ownership of the contract to a new account (`newOwner`). Can only be called by the current owner."
      }
    },
    "version": 1
  },
  "userdoc": {
    "kind": "user",
    "methods": {},
    "version": 1
  }
}