{
  "contractName": "Lottery",
  "abi": [
    {
      "inputs": [
        {
          "internalType": "address",
          "name": "_don",
          "type": "address"
        },
        {
          "internalType": "address payable",
          "name": "_company",
          "type": "address"
        },
        {
          "internalType": "address payable",
          "name": "_lotteryvault",
          "type": "address"
        }
      ],
      "stateMutability": "nonpayable",
      "type": "constructor"
    },
    {
      "anonymous": false,
      "inputs": [
        {
          "indexed": true,
          "internalType": "uint256",
          "name": "startblock",
          "type": "uint256"
        },
        {
          "indexed": true,
          "internalType": "uint256",
          "name": "endblock",
          "type": "uint256"
        }
      ],
      "name": "LotteryStarted",
      "type": "event"
    },
    {
      "anonymous": false,
      "inputs": [
        {
          "indexed": true,
          "internalType": "address",
          "name": "lotterywinner",
          "type": "address"
        },
        {
          "indexed": true,
          "internalType": "uint256",
          "name": "winningpot",
          "type": "uint256"
        }
      ],
      "name": "LotteryWinner",
      "type": "event"
    },
    {
      "anonymous": false,
      "inputs": [
        {
          "indexed": true,
          "internalType": "address",
          "name": "entrant",
          "type": "address"
        }
      ],
      "name": "NewEntrant",
      "type": "event"
    },
    {
      "anonymous": false,
      "inputs": [
        {
          "indexed": true,
          "internalType": "address",
          "name": "previousOwner",
          "type": "address"
        },
        {
          "indexed": true,
          "internalType": "address",
          "name": "newOwner",
          "type": "address"
        }
      ],
      "name": "OwnershipTransferred",
      "type": "event"
    },
    {
      "inputs": [
        {
          "internalType": "address",
          "name": "",
          "type": "address"
        }
      ],
      "name": "Entrants",
      "outputs": [
        {
          "internalType": "bool",
          "name": "",
          "type": "bool"
        }
      ],
      "stateMutability": "view",
      "type": "function",
      "constant": true
    },
    {
      "inputs": [
        {
          "internalType": "uint256",
          "name": "",
          "type": "uint256"
        }
      ],
      "name": "EntrantsArray",
      "outputs": [
        {
          "internalType": "address payable",
          "name": "",
          "type": "address"
        }
      ],
      "stateMutability": "view",
      "type": "function",
      "constant": true
    },
    {
      "inputs": [],
      "name": "LastWinner",
      "outputs": [
        {
          "internalType": "address",
          "name": "",
          "type": "address"
        }
      ],
      "stateMutability": "view",
      "type": "function",
      "constant": true
    },
    {
      "inputs": [],
      "name": "LotteryVaultAddress",
      "outputs": [
        {
          "internalType": "address payable",
          "name": "",
          "type": "address"
        }
      ],
      "stateMutability": "view",
      "type": "function",
      "constant": true
    },
    {
      "inputs": [],
      "name": "company",
      "outputs": [
        {
          "internalType": "address payable",
          "name": "",
          "type": "address"
        }
      ],
      "stateMutability": "view",
      "type": "function",
      "constant": true
    },
    {
      "inputs": [],
      "name": "currentPot",
      "outputs": [
        {
          "internalType": "uint256",
          "name": "",
          "type": "uint256"
        }
      ],
      "stateMutability": "view",
      "type": "function",
      "constant": true
    },
    {
      "inputs": [],
      "name": "don",
      "outputs": [
        {
          "internalType": "address",
          "name": "",
          "type": "address"
        }
      ],
      "stateMutability": "view",
      "type": "function",
      "constant": true
    },
    {
      "inputs": [],
      "name": "entryFee",
      "outputs": [
        {
          "internalType": "uint256",
          "name": "",
          "type": "uint256"
        }
      ],
      "stateMutability": "view",
      "type": "function",
      "constant": true
    },
    {
      "inputs": [],
      "name": "lotteryEndBlock",
      "outputs": [
        {
          "internalType": "uint256",
          "name": "",
          "type": "uint256"
        }
      ],
      "stateMutability": "view",
      "type": "function",
      "constant": true
    },
    {
      "inputs": [],
      "name": "lotteryRunning",
      "outputs": [
        {
          "internalType": "bool",
          "name": "",
          "type": "bool"
        }
      ],
      "stateMutability": "view",
      "type": "function",
      "constant": true
    },
    {
      "inputs": [],
      "name": "maxLimit",
      "outputs": [
        {
          "internalType": "uint8",
          "name": "",
          "type": "uint8"
        }
      ],
      "stateMutability": "view",
      "type": "function",
      "constant": true
    },
    {
      "inputs": [],
      "name": "owner",
      "outputs": [
        {
          "internalType": "address",
          "name": "",
          "type": "address"
        }
      ],
      "stateMutability": "view",
      "type": "function",
      "constant": true
    },
    {
      "inputs": [],
      "name": "renounceOwnership",
      "outputs": [],
      "stateMutability": "nonpayable",
      "type": "function"
    },
    {
      "inputs": [
        {
          "internalType": "address",
          "name": "newOwner",
          "type": "address"
        }
      ],
      "name": "transferOwnership",
      "outputs": [],
      "stateMutability": "nonpayable",
      "type": "function"
    },
    {
      "inputs": [],
      "name": "winnerSplit",
      "outputs": [
        {
          "internalType": "uint8",
          "name": "",
          "type": "uint8"
        }
      ],
      "stateMutability": "view",
      "type": "function",
      "constant": true
    },
    {
      "inputs": [
        {
          "internalType": "uint256",
          "name": "_entryfee",
          "type": "uint256"
        }
      ],
      "name": "setEntryFee",
      "outputs": [],
      "stateMutability": "nonpayable",
      "type": "function"
    },
    {
      "inputs": [
        {
          "internalType": "uint8",
          "name": "_maxLimit",
          "type": "uint8"
        }
      ],
      "name": "setMaxLimit",
      "outputs": [],
      "stateMutability": "nonpayable",
      "type": "function"
    },
    {
      "inputs": [
        {
          "internalType": "address",
          "name": "_address",
          "type": "address"
        }
      ],
      "name": "setNewDon",
      "outputs": [],
      "stateMutability": "nonpayable",
      "type": "function"
    },
    {
      "inputs": [
        {
          "internalType": "address payable",
          "name": "_address",
          "type": "address"
        }
      ],
      "name": "setNewCompany",
      "outputs": [],
      "stateMutability": "nonpayable",
      "type": "function"
    },
    {
      "inputs": [
        {
          "internalType": "uint8",
          "name": "_split",
          "type": "uint8"
        }
      ],
      "name": "setWinnerSplit",
      "outputs": [],
      "stateMutability": "nonpayable",
      "type": "function"
    },
    {
      "inputs": [
        {
          "internalType": "uint256",
          "name": "limit",
          "type": "uint256"
        },
        {
          "internalType": "uint256",
          "name": "offset",
          "type": "uint256"
        }
      ],
      "name": "getEntrantsArray",
      "outputs": [
        {
          "internalType": "address[]",
          "name": "entrantsArraySlice",
          "type": "address[]"
        }
      ],
      "stateMutability": "view",
      "type": "function",
      "constant": true
    },
    {
      "inputs": [
        {
          "internalType": "address",
          "name": "_address",
          "type": "address"
        }
      ],
      "name": "checkIfAddressIsEntered",
      "outputs": [
        {
          "internalType": "bool",
          "name": "",
          "type": "bool"
        }
      ],
      "stateMutability": "view",
      "type": "function",
      "constant": true
    },
    {
      "inputs": [
        {
          "internalType": "address payable",
          "name": "_newentrant",
          "type": "address"
        }
      ],
      "name": "enter",
      "outputs": [],
      "stateMutability": "payable",
      "type": "function",
      "payable": true
    },
    {
      "inputs": [
        {
          "internalType": "uint256",
          "name": "_lotterytime",
          "type": "uint256"
        }
      ],
      "name": "lotteryStart",
      "outputs": [],
      "stateMutability": "nonpayable",
      "type": "function"
    },
    {
      "inputs": [],
      "name": "lotteryEnd",
      "outputs": [],
      "stateMutability": "nonpayable",
      "type": "function"
    },
    {
      "inputs": [],
      "name": "withdrawToCompany",
      "outputs": [],
      "stateMutability": "nonpayable",
      "type": "function"
    }
  ],
  "bytecode": "0x6080604052600a600460006101000a81548160ff021916908360ff1602179055506009600460016101000a81548160ff021916908360ff1602179055503480156200004957600080fd5b5060405162002a2738038062002a2783398181016040528101906200006f91906200030f565b6200008f620000836200019460201b60201c565b6200019c60201b60201c565b668e1bc9bf040000600181905550600060028190555082600460036101000a81548173ffffffffffffffffffffffffffffffffffffffff021916908373ffffffffffffffffffffffffffffffffffffffff16021790555060006003819055506000600460026101000a81548160ff02191690831515021790555081600560006101000a81548173ffffffffffffffffffffffffffffffffffffffff021916908373ffffffffffffffffffffffffffffffffffffffff16021790555080600660006101000a81548173ffffffffffffffffffffffffffffffffffffffff021916908373ffffffffffffffffffffffffffffffffffffffff1602179055505050506200036b565b600033905090565b60008060009054906101000a900473ffffffffffffffffffffffffffffffffffffffff169050816000806101000a81548173ffffffffffffffffffffffffffffffffffffffff021916908373ffffffffffffffffffffffffffffffffffffffff1602179055508173ffffffffffffffffffffffffffffffffffffffff168173ffffffffffffffffffffffffffffffffffffffff167f8be0079c531659141344cd1fd0a4f28419497f9722a3daafe3b4186f6b6457e060405160405180910390a35050565b600080fd5b600073ffffffffffffffffffffffffffffffffffffffff82169050919050565b6000620002928262000265565b9050919050565b620002a48162000285565b8114620002b057600080fd5b50565b600081519050620002c48162000299565b92915050565b6000620002d78262000265565b9050919050565b620002e981620002ca565b8114620002f557600080fd5b50565b6000815190506200030981620002de565b92915050565b6000806000606084860312156200032b576200032a62000260565b5b60006200033b86828701620002b3565b93505060206200034e86828701620002f8565b92505060406200036186828701620002f8565b9150509250925092565b6126ac806200037b6000396000f3fe6080604052600436106101815760003560e01c806381a5ce3b116100d1578063c5dc70221161008a578063d014c01f11610064578063d014c01f1461054e578063d70fa7de1461056a578063eb770d0c14610581578063f2fde38b146105aa57610181565b8063c5dc7022146104bd578063c838d317146104e6578063cff9ea081461052357610181565b806381a5ce3b146103ab57806387582f13146103d65780638c5833e9146104015780638da5cb5b1461042a578063942c1b4114610455578063a0a3861d1461049257610181565b806340cdb7911161013e5780635ae453a8116101185780635ae453a8146103155780636904c94d14610340578063715018a61461036b57806376b5ebbb1461038257610181565b806340cdb7911461028457806345978668146102c1578063574479e6146102ea57610181565b8063072ea61c1461018657806317300a14146101b15780631a861d26146101dc5780632a8abf8f1461020757806339b2633a146102445780633f4138631461026d575b600080fd5b34801561019257600080fd5b5061019b6105d3565b6040516101a8919061197a565b60405180910390f35b3480156101bd57600080fd5b506101c66105d9565b6040516101d391906119b0565b60405180910390f35b3480156101e857600080fd5b506101f16105ec565b6040516101fe91906119e7565b60405180910390f35b34801561021357600080fd5b5061022e60048036038101906102299190611a33565b6105ff565b60405161023b9190611aa1565b60405180910390f35b34801561025057600080fd5b5061026b60048036038101906102669190611a33565b61063e565b005b34801561027957600080fd5b50610282610782565b005b34801561029057600080fd5b506102ab60048036038101906102a69190611afa565b61089d565b6040516102b891906119b0565b60405180910390f35b3480156102cd57600080fd5b506102e860048036038101906102e39190611b53565b6108f3565b005b3480156102f657600080fd5b506102ff61098d565b60405161030c919061197a565b60405180910390f35b34801561032157600080fd5b5061032a610993565b6040516103379190611aa1565b60405180910390f35b34801561034c57600080fd5b506103556109b9565b6040516103629190611aa1565b60405180910390f35b34801561037757600080fd5b506103806109df565b005b34801561038e57600080fd5b506103a960048036038101906103a49190611afa565b610a67565b005b3480156103b757600080fd5b506103c0610b27565b6040516103cd9190611b8f565b60405180910390f35b3480156103e257600080fd5b506103eb610b4d565b6040516103f8919061197a565b60405180910390f35b34801561040d57600080fd5b5061042860048036038101906104239190611b53565b610b53565b005b34801561043657600080fd5b5061043f610c8d565b60405161044c9190611b8f565b60405180910390f35b34801561046157600080fd5b5061047c60048036038101906104779190611baa565b610cb6565b6040516104899190611ca8565b60405180910390f35b34801561049e57600080fd5b506104a7610e12565b6040516104b49190611b8f565b60405180910390f35b3480156104c957600080fd5b506104e460048036038101906104df9190611cf6565b610e38565b005b3480156104f257600080fd5b5061050d60048036038101906105089190611afa565b610ef8565b60405161051a91906119b0565b60405180910390f35b34801561052f57600080fd5b50610538610f18565b60405161054591906119e7565b60405180910390f35b61056860048036038101906105639190611cf6565b610f2b565b005b34801561057657600080fd5b5061057f611176565b005b34801561058d57600080fd5b506105a860048036038101906105a39190611a33565b61141c565b005b3480156105b657600080fd5b506105d160048036038101906105cc9190611afa565b6114b6565b005b60015481565b600460029054906101000a900460ff1681565b600460009054906101000a900460ff1681565b6009818154811061060f57600080fd5b906000526020600020016000915054906101000a900473ffffffffffffffffffffffffffffffffffffffff1681565b600460039054906101000a900473ffffffffffffffffffffffffffffffffffffffff1673ffffffffffffffffffffffffffffffffffffffff163373ffffffffffffffffffffffffffffffffffffffff16146106ce576040517f08c379a00000000000000000000000000000000000000000000000000000000081526004016106c590611da6565b60405180910390fd5b60001515600460029054906101000a900460ff16151514610724576040517f08c379a000000000000000000000000000000000000000000000000000000000815260040161071b90611e38565b60405180910390fd5b6001600460026101000a81548160ff02191690831515021790555061074943826115ae565b600381905550600354437f42da29f4f7ae27bdc650322fcbe8b195ca17a63b0ae83b04577efe0e3e079c0c60405160405180910390a350565b600560009054906101000a900473ffffffffffffffffffffffffffffffffffffffff1673ffffffffffffffffffffffffffffffffffffffff163373ffffffffffffffffffffffffffffffffffffffff1614610812576040517f08c379a000000000000000000000000000000000000000000000000000000000815260040161080990611eca565b60405180910390fd5b60001515600460029054906101000a900460ff1615151461083257600080fd5b600560009054906101000a900473ffffffffffffffffffffffffffffffffffffffff1673ffffffffffffffffffffffffffffffffffffffff166108fc479081150290604051600060405180830381858888f1935050505015801561089a573d6000803e3d6000fd5b50565b6000600860008373ffffffffffffffffffffffffffffffffffffffff1673ffffffffffffffffffffffffffffffffffffffff16815260200190815260200160002060009054906101000a900460ff169050919050565b6108fb6115c4565b73ffffffffffffffffffffffffffffffffffffffff16610919610c8d565b73ffffffffffffffffffffffffffffffffffffffff161461096f576040517f08c379a000000000000000000000000000000000000000000000000000000000815260040161096690611f36565b60405180910390fd5b80600460006101000a81548160ff021916908360ff16021790555050565b60025481565b600660009054906101000a900473ffffffffffffffffffffffffffffffffffffffff1681565b600560009054906101000a900473ffffffffffffffffffffffffffffffffffffffff1681565b6109e76115c4565b73ffffffffffffffffffffffffffffffffffffffff16610a05610c8d565b73ffffffffffffffffffffffffffffffffffffffff1614610a5b576040517f08c379a0000000000000000000000000000000000000000000000000000000008152600401610a5290611f36565b60405180910390fd5b610a6560006115cc565b565b610a6f6115c4565b73ffffffffffffffffffffffffffffffffffffffff16610a8d610c8d565b73ffffffffffffffffffffffffffffffffffffffff1614610ae3576040517f08c379a0000000000000000000000000000000000000000000000000000000008152600401610ada90611f36565b60405180910390fd5b80600460036101000a81548173ffffffffffffffffffffffffffffffffffffffff021916908373ffffffffffffffffffffffffffffffffffffffff16021790555050565b600460039054906101000a900473ffffffffffffffffffffffffffffffffffffffff1681565b60035481565b600560009054906101000a900473ffffffffffffffffffffffffffffffffffffffff1673ffffffffffffffffffffffffffffffffffffffff163373ffffffffffffffffffffffffffffffffffffffff1614610be3576040517f08c379a0000000000000000000000000000000000000000000000000000000008152600401610bda90611eca565b60405180910390fd5b60008160ff1611610c29576040517f08c379a0000000000000000000000000000000000000000000000000000000008152600401610c2090611fa2565b60405180910390fd5b600b8160ff1610610c6f576040517f08c379a0000000000000000000000000000000000000000000000000000000008152600401610c669061200e565b60405180910390fd5b80600460016101000a81548160ff021916908360ff16021790555050565b60008060009054906101000a900473ffffffffffffffffffffffffffffffffffffffff16905090565b606060008360098054905010610ccc5783610cd3565b6009805490505b9050600460009054906101000a900460ff1660ff168110610d0657600460009054906101000a900460ff1660ff16610d08565b805b90508067ffffffffffffffff811115610d2457610d2361202e565b5b604051908082528060200260200182016040528015610d525781602001602082028036833780820191505090505b50915060005b81811015610e0a5760098482610d6e919061208c565b81548110610d7f57610d7e6120e2565b5b9060005260206000200160009054906101000a900473ffffffffffffffffffffffffffffffffffffffff16838281518110610dbd57610dbc6120e2565b5b602002602001019073ffffffffffffffffffffffffffffffffffffffff16908173ffffffffffffffffffffffffffffffffffffffff16815250508080610e0290612111565b915050610d58565b505092915050565b600a60009054906101000a900473ffffffffffffffffffffffffffffffffffffffff1681565b610e406115c4565b73ffffffffffffffffffffffffffffffffffffffff16610e5e610c8d565b73ffffffffffffffffffffffffffffffffffffffff1614610eb4576040517f08c379a0000000000000000000000000000000000000000000000000000000008152600401610eab90611f36565b60405180910390fd5b80600560006101000a81548173ffffffffffffffffffffffffffffffffffffffff021916908373ffffffffffffffffffffffffffffffffffffffff16021790555050565b60086020528060005260406000206000915054906101000a900460ff1681565b600460019054906101000a900460ff1681565b6001543414610f6f576040517f08c379a0000000000000000000000000000000000000000000000000000000008152600401610f66906121a6565b60405180910390fd5b60001515600860008373ffffffffffffffffffffffffffffffffffffffff1673ffffffffffffffffffffffffffffffffffffffff16815260200190815260200160002060009054906101000a900460ff16151514611002576040517f08c379a0000000000000000000000000000000000000000000000000000000008152600401610ff990612238565b60405180910390fd5b60011515600460029054906101000a900460ff16151514611058576040517f08c379a000000000000000000000000000000000000000000000000000000000815260040161104f906122a4565b60405180910390fd5b6001600860008373ffffffffffffffffffffffffffffffffffffffff1673ffffffffffffffffffffffffffffffffffffffff16815260200190815260200160002060006101000a81548160ff0219169083151502179055506009819080600181540180825580915050600190039060005260206000200160009091909190916101000a81548173ffffffffffffffffffffffffffffffffffffffff021916908373ffffffffffffffffffffffffffffffffffffffff16021790555061112a6001546002546115ae90919063ffffffff16565b6002819055508073ffffffffffffffffffffffffffffffffffffffff167f137d2ef4b9d16c904b5b2d3c3ad3d293f0e7bae5cb321f99d496de891135870a60405160405180910390a250565b600460039054906101000a900473ffffffffffffffffffffffffffffffffffffffff1673ffffffffffffffffffffffffffffffffffffffff163373ffffffffffffffffffffffffffffffffffffffff1614611206576040517f08c379a00000000000000000000000000000000000000000000000000000000081526004016111fd90611da6565b60405180910390fd5b600354431161124a576040517f08c379a000000000000000000000000000000000000000000000000000000000815260040161124190612310565b60405180910390fd5b60011515600460029054906101000a900460ff161515146112a0576040517f08c379a00000000000000000000000000000000000000000000000000000000081526004016112979061237c565b60405180910390fd5b6000600460026101000a81548160ff0219169083151502179055506000600980549050111561141a5761135160096112d6611690565b815481106112e7576112e66120e2565b5b9060005260206000200160009054906101000a900473ffffffffffffffffffffffffffffffffffffffff1661134c600460019054906101000a900460ff1660ff1661133e600a60025461177590919063ffffffff16565b61178b90919063ffffffff16565b6117a1565b60005b60098054905081101561140a576000600860006009848154811061137b5761137a6120e2565b5b9060005260206000200160009054906101000a900473ffffffffffffffffffffffffffffffffffffffff1673ffffffffffffffffffffffffffffffffffffffff1673ffffffffffffffffffffffffffffffffffffffff16815260200190815260200160002060006101000a81548160ff021916908315150217905550808061140290612111565b915050611354565b50600960006114199190611923565b5b565b600460039054906101000a900473ffffffffffffffffffffffffffffffffffffffff1673ffffffffffffffffffffffffffffffffffffffff163373ffffffffffffffffffffffffffffffffffffffff16146114ac576040517f08c379a00000000000000000000000000000000000000000000000000000000081526004016114a390611da6565b60405180910390fd5b8060018190555050565b6114be6115c4565b73ffffffffffffffffffffffffffffffffffffffff166114dc610c8d565b73ffffffffffffffffffffffffffffffffffffffff1614611532576040517f08c379a000000000000000000000000000000000000000000000000000000000815260040161152990611f36565b60405180910390fd5b600073ffffffffffffffffffffffffffffffffffffffff168173ffffffffffffffffffffffffffffffffffffffff1614156115a2576040517f08c379a00000000000000000000000000000000000000000000000000000000081526004016115999061240e565b60405180910390fd5b6115ab816115cc565b50565b600081836115bc919061208c565b905092915050565b600033905090565b60008060009054906101000a900473ffffffffffffffffffffffffffffffffffffffff169050816000806101000a81548173ffffffffffffffffffffffffffffffffffffffff021916908373ffffffffffffffffffffffffffffffffffffffff1602179055508173ffffffffffffffffffffffffffffffffffffffff168173ffffffffffffffffffffffffffffffffffffffff167f8be0079c531659141344cd1fd0a4f28419497f9722a3daafe3b4186f6b6457e060405160405180910390a35050565b6000804342336040516020016116a69190612476565b6040516020818303038152906040528051906020012060001c6116c991906124c0565b4542416040516020016116dc919061251a565b6040516020818303038152906040528051906020012060001c6116ff91906124c0565b444261170b919061208c565b611715919061208c565b61171f919061208c565b611729919061208c565b611733919061208c565b6040516020016117439190612556565b6040516020818303038152906040528051906020012060001c90506009805490508161176f9190612571565b91505090565b6000818361178391906124c0565b905092915050565b6000818361179991906125a2565b905092915050565b6000600281905550600660009054906101000a900473ffffffffffffffffffffffffffffffffffffffff16600760006101000a81548173ffffffffffffffffffffffffffffffffffffffff021916908373ffffffffffffffffffffffffffffffffffffffff160217905550600760009054906101000a900473ffffffffffffffffffffffffffffffffffffffff1673ffffffffffffffffffffffffffffffffffffffff1663f340fa0182846040518363ffffffff1660e01b8152600401611868919061265b565b6000604051808303818588803b15801561188157600080fd5b505af1158015611895573d6000803e3d6000fd5b5050505050808273ffffffffffffffffffffffffffffffffffffffff167f275eaacf9e506f9c68b251c2f97cf723c4fb9a3b94e42a1dfb581543c135f0c060405160405180910390a381600a60006101000a81548173ffffffffffffffffffffffffffffffffffffffff021916908373ffffffffffffffffffffffffffffffffffffffff1602179055505050565b50805460008255906000526020600020908101906119419190611944565b50565b5b8082111561195d576000816000905550600101611945565b5090565b6000819050919050565b61197481611961565b82525050565b600060208201905061198f600083018461196b565b92915050565b60008115159050919050565b6119aa81611995565b82525050565b60006020820190506119c560008301846119a1565b92915050565b600060ff82169050919050565b6119e1816119cb565b82525050565b60006020820190506119fc60008301846119d8565b92915050565b600080fd5b611a1081611961565b8114611a1b57600080fd5b50565b600081359050611a2d81611a07565b92915050565b600060208284031215611a4957611a48611a02565b5b6000611a5784828501611a1e565b91505092915050565b600073ffffffffffffffffffffffffffffffffffffffff82169050919050565b6000611a8b82611a60565b9050919050565b611a9b81611a80565b82525050565b6000602082019050611ab66000830184611a92565b92915050565b6000611ac782611a60565b9050919050565b611ad781611abc565b8114611ae257600080fd5b50565b600081359050611af481611ace565b92915050565b600060208284031215611b1057611b0f611a02565b5b6000611b1e84828501611ae5565b91505092915050565b611b30816119cb565b8114611b3b57600080fd5b50565b600081359050611b4d81611b27565b92915050565b600060208284031215611b6957611b68611a02565b5b6000611b7784828501611b3e565b91505092915050565b611b8981611abc565b82525050565b6000602082019050611ba46000830184611b80565b92915050565b60008060408385031215611bc157611bc0611a02565b5b6000611bcf85828601611a1e565b9250506020611be085828601611a1e565b9150509250929050565b600081519050919050565b600082825260208201905092915050565b6000819050602082019050919050565b611c1f81611abc565b82525050565b6000611c318383611c16565b60208301905092915050565b6000602082019050919050565b6000611c5582611bea565b611c5f8185611bf5565b9350611c6a83611c06565b8060005b83811015611c9b578151611c828882611c25565b9750611c8d83611c3d565b925050600181019050611c6e565b5085935050505092915050565b60006020820190508181036000830152611cc28184611c4a565b905092915050565b611cd381611a80565b8114611cde57600080fd5b50565b600081359050611cf081611cca565b92915050565b600060208284031215611d0c57611d0b611a02565b5b6000611d1a84828501611ce1565b91505092915050565b600082825260208201905092915050565b7f4f6e6c792074686520646f6e2063616e20737461727420746865206c6f74746560008201527f7279000000000000000000000000000000000000000000000000000000000000602082015250565b6000611d90602283611d23565b9150611d9b82611d34565b604082019050919050565b60006020820190508181036000830152611dbf81611d83565b9050919050565b7f546865206c6f74746572792063616e206f6e6c7920737461727420696620697460008201527f20697320656e6465640000000000000000000000000000000000000000000000602082015250565b6000611e22602983611d23565b9150611e2d82611dc6565b604082019050919050565b60006020820190508181036000830152611e5181611e15565b9050919050565b7f4f6e6c792074686520636f6d70616e792063616e20737461727420746865206c60008201527f6f74746572790000000000000000000000000000000000000000000000000000602082015250565b6000611eb4602683611d23565b9150611ebf82611e58565b604082019050919050565b60006020820190508181036000830152611ee381611ea7565b9050919050565b7f4f776e61626c653a2063616c6c6572206973206e6f7420746865206f776e6572600082015250565b6000611f20602083611d23565b9150611f2b82611eea565b602082019050919050565b60006020820190508181036000830152611f4f81611f13565b9050919050565b7f73706c69742068617320746f2062652067726561746572207468616e20300000600082015250565b6000611f8c601e83611d23565b9150611f9782611f56565b602082019050919050565b60006020820190508181036000830152611fbb81611f7f565b9050919050565b7f73706c69742068617320746f206265203130206f72206c657373000000000000600082015250565b6000611ff8601a83611d23565b915061200382611fc2565b602082019050919050565b6000602082019050818103600083015261202781611feb565b9050919050565b7f4e487b7100000000000000000000000000000000000000000000000000000000600052604160045260246000fd5b7f4e487b7100000000000000000000000000000000000000000000000000000000600052601160045260246000fd5b600061209782611961565b91506120a283611961565b9250827fffffffffffffffffffffffffffffffffffffffffffffffffffffffffffffffff038211156120d7576120d661205d565b5b828201905092915050565b7f4e487b7100000000000000000000000000000000000000000000000000000000600052603260045260246000fd5b600061211c82611961565b91507fffffffffffffffffffffffffffffffffffffffffffffffffffffffffffffffff82141561214f5761214e61205d565b5b600182019050919050565b7f53656e64696e672077726f6e6720636f7374206f6620656e7472790000000000600082015250565b6000612190601b83611d23565b915061219b8261215a565b602082019050919050565b600060208201905081810360008301526121bf81612183565b9050919050565b7f4164647265737320616c726561647920656e746572656420696e746f206c6f7460008201527f7465727900000000000000000000000000000000000000000000000000000000602082015250565b6000612222602483611d23565b915061222d826121c6565b604082019050919050565b6000602082019050818103600083015261225181612215565b9050919050565b7f4c6f74746572792068617320746f2062652072756e6e696e6700000000000000600082015250565b600061228e601983611d23565b915061229982612258565b602082019050919050565b600060208201905081810360008301526122bd81612281565b9050919050565b7f4c6f747465727920456e64626c6f636b20697320696e20746865207061737400600082015250565b60006122fa601f83611d23565b9150612305826122c4565b602082019050919050565b60006020820190508181036000830152612329816122ed565b9050919050565b7f4c6f74746572792069736e27742072756e6e696e670000000000000000000000600082015250565b6000612366601583611d23565b915061237182612330565b602082019050919050565b6000602082019050818103600083015261239581612359565b9050919050565b7f4f776e61626c653a206e6577206f776e657220697320746865207a65726f206160008201527f6464726573730000000000000000000000000000000000000000000000000000602082015250565b60006123f8602683611d23565b91506124038261239c565b604082019050919050565b60006020820190508181036000830152612427816123eb565b9050919050565b60008160601b9050919050565b60006124468261242e565b9050919050565b60006124588261243b565b9050919050565b61247061246b82611abc565b61244d565b82525050565b6000612482828461245f565b60148201915081905092915050565b7f4e487b7100000000000000000000000000000000000000000000000000000000600052601260045260246000fd5b60006124cb82611961565b91506124d683611961565b9250826124e6576124e5612491565b5b828204905092915050565b60006124fc8261243b565b9050919050565b61251461250f82611a80565b6124f1565b82525050565b60006125268284612503565b60148201915081905092915050565b6000819050919050565b61255061254b82611961565b612535565b82525050565b6000612562828461253f565b60208201915081905092915050565b600061257c82611961565b915061258783611961565b92508261259757612596612491565b5b828206905092915050565b60006125ad82611961565b91506125b883611961565b9250817fffffffffffffffffffffffffffffffffffffffffffffffffffffffffffffffff04831182151516156125f1576125f061205d565b5b828202905092915050565b6000819050919050565b600061262161261c61261784611a60565b6125fc565b611a60565b9050919050565b600061263382612606565b9050919050565b600061264582612628565b9050919050565b6126558161263a565b82525050565b6000602082019050612670600083018461264c565b9291505056fea26469706673582212208257073880c336ae5872251125cab0760dd54150082b6248dc831512aa88fd6e64736f6c634300080b0033",
  "immutableReferences": {},
  "source": "// SPDX-License-Identifier: MIT\npragma solidity >=0.4.21 <8.12.0;\n\nimport \"@openzeppelin/contracts/access/Ownable.sol\";\nimport \"@openzeppelin/contracts/utils/math/SafeMath.sol\";\n\n\nimport \"./LotteryVault.sol\";\n\n\ncontract Lottery is Ownable {\n using SafeMath for uint256;\n\n    uint256 public entryFee;\n    uint256 public currentPot;\n    uint256 public lotteryEndBlock;\n    \n    // max limit for entrantsArrayReturn\n    uint8 public maxLimit = 10;\n\n    // \n    uint8 public winnerSplit = 9;\n\n    bool public lotteryRunning;\n\n    address public don;\n    address payable public company;\n    address payable public LotteryVaultAddress;\n    LotteryVault private vault;\n\n    // entrant address => entered ( true or false )\n    mapping(address => bool) public Entrants;\n\n    // array of all entrants entered in lottery\n    address payable[] public EntrantsArray;\n\n    // address of the last winner \n    address public LastWinner;\n    \n    //Events\n    event NewEntrant(address indexed entrant);\n    event LotteryStarted(uint indexed startblock, uint indexed endblock);\n    event LotteryWinner(address indexed lotterywinner, uint indexed winningpot);\n\n    modifier onlyDon {\n      require(msg.sender == don, \"Only the don can start the lottery\");\n      _;\n   }\n\n    modifier onlyCompany {\n      require(msg.sender == company, \"Only the company can start the lottery\");\n      _;\n   }\n\n    constructor(address _don, address payable _company, address payable _lotteryvault) {\n        entryFee = 40000000000000000;\n        currentPot = 0;\n        don = _don;\n        lotteryEndBlock = 0;\n        lotteryRunning = false;\n        company = _company;\n        LotteryVaultAddress = _lotteryvault;\n    }\n\n    function setEntryFee(uint256 _entryfee) external onlyDon {\n        entryFee = _entryfee;\n    }\n\n    function setMaxLimit(uint8 _maxLimit) public onlyOwner{\n        maxLimit = _maxLimit;\n    }\n\n    //only don can set new don? or owner? \n    function setNewDon(address _address) external onlyOwner {\n        don = _address;\n    }\n\n    // set new company address\n    function setNewCompany(address payable _address) external onlyOwner {\n        company = _address;\n    }\n\n    function setWinnerSplit(uint8 _split) external onlyCompany {\n        require(_split > 0, \"split has to be greater than 0\");\n        require(_split < 11, \"split has to be 10 or less\");\n        winnerSplit = _split;\n    }\n\n\n    function getEntrantsArray(uint256 limit, uint256 offset) view external returns(address[] memory entrantsArraySlice) {\n        \n        uint256 size = EntrantsArray.length < limit  ? EntrantsArray.length : limit;\n\n        size = size < maxLimit ? size : maxLimit;\n\n        entrantsArraySlice = new address[](size);\n\n        for(uint256 i = 0; i < size; i++){\n            entrantsArraySlice[i] = EntrantsArray[i + offset];\n        }\n\n        return entrantsArraySlice;\n    }\n\n    function checkIfAddressIsEntered(address _address)  view external returns(bool){\n        return Entrants[_address];\n    }\n\n \n\n    // Handle the entering of new Entrants into the lottery\n    function enter(address payable _newentrant) payable external {\n        //require the corect entry fee\n        require(msg.value == entryFee, \"Sending wrong cost of entry\");\n        \n        //require that address is not already entered\n        require(Entrants[_newentrant] == false, \"Address already entered into lottery\");\n\n        // require lottery to be running\n        require(lotteryRunning == true, \"Lottery has to be running\");\n\n        //update entry status of new entrant\n        Entrants[_newentrant] = true;\n\n        //add entrant address to address payable array\n        EntrantsArray.push(_newentrant);\n\n        //add 90% of new entry to pot\n        currentPot = currentPot.add(entryFee);\n\n        emit NewEntrant(_newentrant);\n    }\n\n    function lotteryStart(uint _lotterytime) external onlyDon {\n        \n        require(lotteryRunning == false, \"The lottery can only start if it is ended\");\n        \n        lotteryRunning = true;\n\n        lotteryEndBlock = SafeMath.add(block.number, _lotterytime);\n\n        emit LotteryStarted(block.number, lotteryEndBlock);\n    }\n\n\n    // --- handle ending the lottery --- \n    function lotteryEnd() external onlyDon {\n\n        // require that the current block number is larger than our end date\n        require(block.number > lotteryEndBlock, \"Lottery Endblock is in the past\");\n\n        // require that the lottery hasnt already ended\n        require(lotteryRunning == true, \"Lottery isn't running\");\n        \n        //set end flag to true\n        lotteryRunning = false;\n        \n        // need to handle case where EntrantsArray is null ( 0 entrants ) \n        if(EntrantsArray.length > 0){\n\n            // payout to random winner\n            payout(EntrantsArray[random()], currentPot.div(10).mul(winnerSplit));\n        \n            // iterate through our entrants mapping using EntrantsArray as keys and reset their values to false\n            for(uint i=0; i< EntrantsArray.length; i++){\n                Entrants[EntrantsArray[i]] = false; \n            }\n\n            // delete the EntrantsArray\n            delete EntrantsArray;\n        }\n      \n    }\n\n    // withdraw our 10% to vault -- 10% will be remaining in contract after pot is transfered to winner vault\n    function withdrawToCompany() public onlyCompany {\n        require(lotteryRunning == false);\n        company.transfer(address(this).balance);\n    }\n\n\n    // ---- handle paying out to the winner of the lottery --- \n    function payout(address payable winner, uint256 pot) internal {\n        // use local pot variable to help prevent re entrancy ( even though this function is internal and only callable by don)\n        currentPot = 0;\n        vault = LotteryVault(LotteryVaultAddress);\n        // Send pot value with winner to vault deposit contract for future withdraw by winner\n        vault.deposit{value: pot}(winner);\n        emit LotteryWinner(winner, pot);\n        LastWinner = winner;\n    }\n\n    // pseudorandom number generator to get random number from range 0 - # of particpants \n    function random() internal view returns (uint256) {\n        uint256 seed = uint256(keccak256(abi.encodePacked(\n            block.timestamp + block.difficulty +\n            ((uint256(keccak256(abi.encodePacked(block.coinbase)))) / (block.timestamp)) +\n            block.gaslimit + \n            ((uint256(keccak256(abi.encodePacked(msg.sender)))) / (block.timestamp)) +\n            block.number\n        )));\n\n        return (seed % EntrantsArray.length);\n    }\n\n\n}",
  "sourcePath": "/Users/eth/Documents/lottery_deploy/contracts/Lottery.sol",
  "compiler": {
    "name": "solc",
    "version": "0.8.11+commit.d7f03943.Emscripten.clang"
  },
  "schemaVersion": "3.4.4",
  "updatedAt": "2022-02-09T01:16:24.376Z",
  "networkType": "ethereum",
  "devdoc": {
    "kind": "dev",
    "methods": {
      "owner()": {
        "details": "Returns the address of the current owner."
      },
      "renounceOwnership()": {
        "details": "Leaves the contract without owner. It will not be possible to call `onlyOwner` functions anymore. Can only be called by the current owner. NOTE: Renouncing ownership will leave the contract without an owner, thereby removing any functionality that is only available to the owner."
      },
      "transferOwnership(address)": {
        "details": "Transfers ownership of the contract to a new account (`newOwner`). Can only be called by the current owner."
      }
    },
    "version": 1
  },
  "userdoc": {
    "kind": "user",
    "methods": {},
    "version": 1
  }
}