{
  "contractName": "MakeAWhale",
  "abi": [
    {
      "inputs": [
        {
          "internalType": "address",
          "name": "_don",
          "type": "address"
        },
        {
          "internalType": "address payable",
          "name": "_company",
          "type": "address"
        }
      ],
      "stateMutability": "nonpayable",
      "type": "constructor"
    },
    {
      "anonymous": false,
      "inputs": [
        {
          "indexed": true,
          "internalType": "address",
          "name": "entrant",
          "type": "address"
        }
      ],
      "name": "NewEntrant",
      "type": "event"
    },
    {
      "anonymous": false,
      "inputs": [
        {
          "indexed": true,
          "internalType": "address",
          "name": "newwhale",
          "type": "address"
        },
        {
          "indexed": true,
          "internalType": "uint256",
          "name": "winningpot",
          "type": "uint256"
        }
      ],
      "name": "NewWhale",
      "type": "event"
    },
    {
      "anonymous": false,
      "inputs": [
        {
          "indexed": true,
          "internalType": "address",
          "name": "previousOwner",
          "type": "address"
        },
        {
          "indexed": true,
          "internalType": "address",
          "name": "newOwner",
          "type": "address"
        }
      ],
      "name": "OwnershipTransferred",
      "type": "event"
    },
    {
      "anonymous": false,
      "inputs": [
        {
          "indexed": true,
          "internalType": "uint256",
          "name": "startblock",
          "type": "uint256"
        },
        {
          "indexed": true,
          "internalType": "uint256",
          "name": "endblock",
          "type": "uint256"
        }
      ],
      "name": "Started",
      "type": "event"
    },
    {
      "inputs": [
        {
          "internalType": "address",
          "name": "",
          "type": "address"
        }
      ],
      "name": "Entrants",
      "outputs": [
        {
          "internalType": "bool",
          "name": "",
          "type": "bool"
        }
      ],
      "stateMutability": "view",
      "type": "function",
      "constant": true
    },
    {
      "inputs": [
        {
          "internalType": "uint256",
          "name": "",
          "type": "uint256"
        }
      ],
      "name": "EntrantsArray",
      "outputs": [
        {
          "internalType": "address payable",
          "name": "",
          "type": "address"
        }
      ],
      "stateMutability": "view",
      "type": "function",
      "constant": true
    },
    {
      "inputs": [],
      "name": "LastWinner",
      "outputs": [
        {
          "internalType": "address",
          "name": "",
          "type": "address"
        }
      ],
      "stateMutability": "view",
      "type": "function",
      "constant": true
    },
    {
      "inputs": [],
      "name": "WhaleVault",
      "outputs": [
        {
          "internalType": "contract WhaleWinnerVault",
          "name": "",
          "type": "address"
        }
      ],
      "stateMutability": "view",
      "type": "function",
      "constant": true
    },
    {
      "inputs": [],
      "name": "company",
      "outputs": [
        {
          "internalType": "address payable",
          "name": "",
          "type": "address"
        }
      ],
      "stateMutability": "view",
      "type": "function",
      "constant": true
    },
    {
      "inputs": [],
      "name": "currentPot",
      "outputs": [
        {
          "internalType": "uint256",
          "name": "",
          "type": "uint256"
        }
      ],
      "stateMutability": "view",
      "type": "function",
      "constant": true
    },
    {
      "inputs": [],
      "name": "don",
      "outputs": [
        {
          "internalType": "address",
          "name": "",
          "type": "address"
        }
      ],
      "stateMutability": "view",
      "type": "function",
      "constant": true
    },
    {
      "inputs": [],
      "name": "endBlock",
      "outputs": [
        {
          "internalType": "uint256",
          "name": "",
          "type": "uint256"
        }
      ],
      "stateMutability": "view",
      "type": "function",
      "constant": true
    },
    {
      "inputs": [],
      "name": "entryFee",
      "outputs": [
        {
          "internalType": "uint256",
          "name": "",
          "type": "uint256"
        }
      ],
      "stateMutability": "view",
      "type": "function",
      "constant": true
    },
    {
      "inputs": [],
      "name": "maxLimit",
      "outputs": [
        {
          "internalType": "uint256",
          "name": "",
          "type": "uint256"
        }
      ],
      "stateMutability": "view",
      "type": "function",
      "constant": true
    },
    {
      "inputs": [],
      "name": "owner",
      "outputs": [
        {
          "internalType": "address",
          "name": "",
          "type": "address"
        }
      ],
      "stateMutability": "view",
      "type": "function",
      "constant": true
    },
    {
      "inputs": [],
      "name": "renounceOwnership",
      "outputs": [],
      "stateMutability": "nonpayable",
      "type": "function"
    },
    {
      "inputs": [],
      "name": "running",
      "outputs": [
        {
          "internalType": "bool",
          "name": "",
          "type": "bool"
        }
      ],
      "stateMutability": "view",
      "type": "function",
      "constant": true
    },
    {
      "inputs": [
        {
          "internalType": "address",
          "name": "newOwner",
          "type": "address"
        }
      ],
      "name": "transferOwnership",
      "outputs": [],
      "stateMutability": "nonpayable",
      "type": "function"
    },
    {
      "inputs": [],
      "name": "winnerSplit",
      "outputs": [
        {
          "internalType": "uint256",
          "name": "",
          "type": "uint256"
        }
      ],
      "stateMutability": "view",
      "type": "function",
      "constant": true
    },
    {
      "inputs": [
        {
          "internalType": "uint256",
          "name": "_entryfee",
          "type": "uint256"
        }
      ],
      "name": "setEntryFee",
      "outputs": [],
      "stateMutability": "nonpayable",
      "type": "function"
    },
    {
      "inputs": [
        {
          "internalType": "uint256",
          "name": "_maxLimit",
          "type": "uint256"
        }
      ],
      "name": "setMaxLimit",
      "outputs": [],
      "stateMutability": "nonpayable",
      "type": "function"
    },
    {
      "inputs": [
        {
          "internalType": "address",
          "name": "_address",
          "type": "address"
        }
      ],
      "name": "setNewDon",
      "outputs": [],
      "stateMutability": "nonpayable",
      "type": "function"
    },
    {
      "inputs": [
        {
          "internalType": "address payable",
          "name": "_address",
          "type": "address"
        }
      ],
      "name": "setNewCompany",
      "outputs": [],
      "stateMutability": "nonpayable",
      "type": "function"
    },
    {
      "inputs": [
        {
          "internalType": "uint256",
          "name": "_split",
          "type": "uint256"
        }
      ],
      "name": "setWinnerSplit",
      "outputs": [],
      "stateMutability": "nonpayable",
      "type": "function"
    },
    {
      "inputs": [
        {
          "internalType": "uint256",
          "name": "limit",
          "type": "uint256"
        },
        {
          "internalType": "uint256",
          "name": "offset",
          "type": "uint256"
        }
      ],
      "name": "getEntrantsArray",
      "outputs": [
        {
          "internalType": "address[]",
          "name": "entrantsArraySlice",
          "type": "address[]"
        }
      ],
      "stateMutability": "view",
      "type": "function",
      "constant": true
    },
    {
      "inputs": [],
      "name": "getEntrantsArrayLength",
      "outputs": [
        {
          "internalType": "uint256",
          "name": "",
          "type": "uint256"
        }
      ],
      "stateMutability": "view",
      "type": "function",
      "constant": true
    },
    {
      "inputs": [
        {
          "internalType": "address",
          "name": "_address",
          "type": "address"
        }
      ],
      "name": "checkIfAddressIsEntered",
      "outputs": [
        {
          "internalType": "bool",
          "name": "",
          "type": "bool"
        }
      ],
      "stateMutability": "view",
      "type": "function",
      "constant": true
    },
    {
      "inputs": [
        {
          "internalType": "address payable",
          "name": "_newentrant",
          "type": "address"
        }
      ],
      "name": "enter",
      "outputs": [],
      "stateMutability": "payable",
      "type": "function",
      "payable": true
    },
    {
      "inputs": [
        {
          "internalType": "uint256",
          "name": "_blocktime",
          "type": "uint256"
        }
      ],
      "name": "Start",
      "outputs": [],
      "stateMutability": "nonpayable",
      "type": "function"
    },
    {
      "inputs": [],
      "name": "End",
      "outputs": [],
      "stateMutability": "nonpayable",
      "type": "function"
    },
    {
      "inputs": [
        {
          "internalType": "uint256",
          "name": "amount",
          "type": "uint256"
        }
      ],
      "name": "deleteEntrantsData",
      "outputs": [],
      "stateMutability": "nonpayable",
      "type": "function"
    },
    {
      "inputs": [],
      "name": "withdrawToCompany",
      "outputs": [],
      "stateMutability": "nonpayable",
      "type": "function"
    }
  ],
  "bytecode": "0x60806040523480156200001157600080fd5b50604051620039303803806200393083398181016040528101906200003791906200031f565b620000576200004b6200019660201b60201c565b6200019e60201b60201c565b668e1bc9bf040000600181905550600060028190555081600660016101000a81548173ffffffffffffffffffffffffffffffffffffffff021916908373ffffffffffffffffffffffffffffffffffffffff16021790555060006003819055506000600660006101000a81548160ff02191690831515021790555080600760006101000a81548173ffffffffffffffffffffffffffffffffffffffff021916908373ffffffffffffffffffffffffffffffffffffffff160217905550600a6004819055506055600581905550604051620001309062000262565b604051809103906000f0801580156200014d573d6000803e3d6000fd5b50600860006101000a81548173ffffffffffffffffffffffffffffffffffffffff021916908373ffffffffffffffffffffffffffffffffffffffff160217905550505062000366565b600033905090565b60008060009054906101000a900473ffffffffffffffffffffffffffffffffffffffff169050816000806101000a81548173ffffffffffffffffffffffffffffffffffffffff021916908373ffffffffffffffffffffffffffffffffffffffff1602179055508173ffffffffffffffffffffffffffffffffffffffff168173ffffffffffffffffffffffffffffffffffffffff167f8be0079c531659141344cd1fd0a4f28419497f9722a3daafe3b4186f6b6457e060405160405180910390a35050565b610c478062002ce983390190565b600080fd5b600073ffffffffffffffffffffffffffffffffffffffff82169050919050565b6000620002a28262000275565b9050919050565b620002b48162000295565b8114620002c057600080fd5b50565b600081519050620002d481620002a9565b92915050565b6000620002e78262000275565b9050919050565b620002f981620002da565b81146200030557600080fd5b50565b6000815190506200031981620002ee565b92915050565b6000806040838503121562000339576200033862000270565b5b60006200034985828601620002c3565b92505060206200035c8582860162000308565b9150509250929050565b61297380620003766000396000f3fe6080604052600436106101b75760003560e01c80638da5cb5b116100ec578063cff9ea081161008a578063d85bd52611610064578063d85bd526146105b7578063eb770d0c146105e2578063f06a29c91461060b578063f2fde38b14610634576101b7565b8063cff9ea0814610545578063d014c01f14610570578063d4c655ef1461058c576101b7565b8063a0a3861d116100c6578063a0a3861d1461048b578063bf8bcee4146104b6578063c5dc7022146104df578063c838d31714610508576101b7565b80638da5cb5b146103f8578063942c1b411461042357806394fb4edc14610460576101b7565b806340cdb79111610159578063715018a611610133578063715018a61461036457806376b5ebbb1461037b57806381a5ce3b146103a457806384915450146103cf576101b7565b806340cdb791146102d1578063574479e61461030e5780636904c94d14610339576101b7565b8063083c632311610195578063083c6323146102275780631a861d26146102525780632a8abf8f1461027d5780633f413863146102ba576101b7565b806306e64907146101bc578063072ea61c146101d3578063078943fc146101fe575b600080fd5b3480156101c857600080fd5b506101d161065d565b005b3480156101df57600080fd5b506101e8610823565b6040516101f59190611a7c565b60405180910390f35b34801561020a57600080fd5b5061022560048036038101906102209190611ac8565b610829565b005b34801561023357600080fd5b5061023c610a6f565b6040516102499190611a7c565b60405180910390f35b34801561025e57600080fd5b50610267610a75565b6040516102749190611a7c565b60405180910390f35b34801561028957600080fd5b506102a4600480360381019061029f9190611ac8565b610a7b565b6040516102b19190611b36565b60405180910390f35b3480156102c657600080fd5b506102cf610aba565b005b3480156102dd57600080fd5b506102f860048036038101906102f39190611b8f565b610bd5565b6040516103059190611bd7565b60405180910390f35b34801561031a57600080fd5b50610323610c2b565b6040516103309190611a7c565b60405180910390f35b34801561034557600080fd5b5061034e610c31565b60405161035b9190611b36565b60405180910390f35b34801561037057600080fd5b50610379610c57565b005b34801561038757600080fd5b506103a2600480360381019061039d9190611b8f565b610cdf565b005b3480156103b057600080fd5b506103b9610d9f565b6040516103c69190611c01565b60405180910390f35b3480156103db57600080fd5b506103f660048036038101906103f19190611ac8565b610dc5565b005b34801561040457600080fd5b5061040d610ee6565b60405161041a9190611c01565b60405180910390f35b34801561042f57600080fd5b5061044a60048036038101906104459190611c1c565b610f0f565b6040516104579190611d1a565b60405180910390f35b34801561046c57600080fd5b5061047561104c565b6040516104829190611a7c565b60405180910390f35b34801561049757600080fd5b506104a0611059565b6040516104ad9190611c01565b60405180910390f35b3480156104c257600080fd5b506104dd60048036038101906104d89190611ac8565b61107f565b005b3480156104eb57600080fd5b5061050660048036038101906105019190611d68565b611105565b005b34801561051457600080fd5b5061052f600480360381019061052a9190611b8f565b6111c5565b60405161053c9190611bd7565b60405180910390f35b34801561055157600080fd5b5061055a6111e5565b6040516105679190611a7c565b60405180910390f35b61058a60048036038101906105859190611d68565b6111eb565b005b34801561059857600080fd5b506105a1611434565b6040516105ae9190611df4565b60405180910390f35b3480156105c357600080fd5b506105cc61145a565b6040516105d99190611bd7565b60405180910390f35b3480156105ee57600080fd5b5061060960048036038101906106049190611ac8565b61146d565b005b34801561061757600080fd5b50610632600480360381019061062d9190611ac8565b611507565b005b34801561064057600080fd5b5061065b60048036038101906106569190611b8f565b61169b565b005b600660019054906101000a900473ffffffffffffffffffffffffffffffffffffffff1673ffffffffffffffffffffffffffffffffffffffff163373ffffffffffffffffffffffffffffffffffffffff16146106ed576040517f08c379a00000000000000000000000000000000000000000000000000000000081526004016106e490611e92565b60405180910390fd5b6003544311610731576040517f08c379a000000000000000000000000000000000000000000000000000000000815260040161072890611efe565b60405180910390fd5b60011515600660009054906101000a900460ff16151514610787576040517f08c379a000000000000000000000000000000000000000000000000000000000815260040161077e90611f6a565b60405180910390fd5b6000600660006101000a81548160ff0219169083151502179055506000600a80549050905060008111156108205761081f600a6107c2611793565b815481106107d3576107d2611f8a565b5b9060005260206000200160009054906101000a900473ffffffffffffffffffffffffffffffffffffffff1660055460646002546108109190612017565b61081a9190612048565b611878565b5b50565b60015481565b600660019054906101000a900473ffffffffffffffffffffffffffffffffffffffff1673ffffffffffffffffffffffffffffffffffffffff163373ffffffffffffffffffffffffffffffffffffffff16146108b9576040517f08c379a00000000000000000000000000000000000000000000000000000000081526004016108b090611e92565b60405180910390fd5b60001515600660009054906101000a900460ff1615151461090f576040517f08c379a000000000000000000000000000000000000000000000000000000000815260040161090690612114565b60405180910390fd5b80600a805490501015610957576040517f08c379a000000000000000000000000000000000000000000000000000000000815260040161094e906121cc565b60405180910390fd5b6000600a80549050905060005b82811015610a6a5760096000600a8360018661098091906121ec565b61098a91906121ec565b8154811061099b5761099a611f8a565b5b9060005260206000200160009054906101000a900473ffffffffffffffffffffffffffffffffffffffff1673ffffffffffffffffffffffffffffffffffffffff1673ffffffffffffffffffffffffffffffffffffffff16815260200190815260200160002060006101000a81549060ff0219169055600a805480610a2257610a21612220565b5b6001900381819060005260206000200160006101000a81549073ffffffffffffffffffffffffffffffffffffffff021916905590558080610a629061224f565b915050610964565b505050565b60035481565b60045481565b600a8181548110610a8b57600080fd5b906000526020600020016000915054906101000a900473ffffffffffffffffffffffffffffffffffffffff1681565b600760009054906101000a900473ffffffffffffffffffffffffffffffffffffffff1673ffffffffffffffffffffffffffffffffffffffff163373ffffffffffffffffffffffffffffffffffffffff1614610b4a576040517f08c379a0000000000000000000000000000000000000000000000000000000008152600401610b419061230a565b60405180910390fd5b60001515600660009054906101000a900460ff16151514610b6a57600080fd5b600760009054906101000a900473ffffffffffffffffffffffffffffffffffffffff1673ffffffffffffffffffffffffffffffffffffffff166108fc479081150290604051600060405180830381858888f19350505050158015610bd2573d6000803e3d6000fd5b50565b6000600960008373ffffffffffffffffffffffffffffffffffffffff1673ffffffffffffffffffffffffffffffffffffffff16815260200190815260200160002060009054906101000a900460ff169050919050565b60025481565b600760009054906101000a900473ffffffffffffffffffffffffffffffffffffffff1681565b610c5f611997565b73ffffffffffffffffffffffffffffffffffffffff16610c7d610ee6565b73ffffffffffffffffffffffffffffffffffffffff1614610cd3576040517f08c379a0000000000000000000000000000000000000000000000000000000008152600401610cca90612376565b60405180910390fd5b610cdd600061199f565b565b610ce7611997565b73ffffffffffffffffffffffffffffffffffffffff16610d05610ee6565b73ffffffffffffffffffffffffffffffffffffffff1614610d5b576040517f08c379a0000000000000000000000000000000000000000000000000000000008152600401610d5290612376565b60405180910390fd5b80600660016101000a81548173ffffffffffffffffffffffffffffffffffffffff021916908373ffffffffffffffffffffffffffffffffffffffff16021790555050565b600660019054906101000a900473ffffffffffffffffffffffffffffffffffffffff1681565b600760009054906101000a900473ffffffffffffffffffffffffffffffffffffffff1673ffffffffffffffffffffffffffffffffffffffff163373ffffffffffffffffffffffffffffffffffffffff1614610e55576040517f08c379a0000000000000000000000000000000000000000000000000000000008152600401610e4c9061230a565b60405180910390fd5b60008111610e98576040517f08c379a0000000000000000000000000000000000000000000000000000000008152600401610e8f906123e2565b60405180910390fd5b6064811115610edc576040517f08c379a0000000000000000000000000000000000000000000000000000000008152600401610ed39061244e565b60405180910390fd5b8060058190555050565b60008060009054906101000a900473ffffffffffffffffffffffffffffffffffffffff16905090565b60606000600a8054905090506000848210610f2a5784610f2c565b815b90506004548110610f3f57600454610f41565b805b90508067ffffffffffffffff811115610f5d57610f5c61246e565b5b604051908082528060200260200182016040528015610f8b5781602001602082028036833780820191505090505b50925060005b8181101561104357600a8582610fa7919061249d565b81548110610fb857610fb7611f8a565b5b9060005260206000200160009054906101000a900473ffffffffffffffffffffffffffffffffffffffff16848281518110610ff657610ff5611f8a565b5b602002602001019073ffffffffffffffffffffffffffffffffffffffff16908173ffffffffffffffffffffffffffffffffffffffff1681525050808061103b9061224f565b915050610f91565b50505092915050565b6000600a80549050905090565b600b60009054906101000a900473ffffffffffffffffffffffffffffffffffffffff1681565b611087611997565b73ffffffffffffffffffffffffffffffffffffffff166110a5610ee6565b73ffffffffffffffffffffffffffffffffffffffff16146110fb576040517f08c379a00000000000000000000000000000000000000000000000000000000081526004016110f290612376565b60405180910390fd5b8060048190555050565b61110d611997565b73ffffffffffffffffffffffffffffffffffffffff1661112b610ee6565b73ffffffffffffffffffffffffffffffffffffffff1614611181576040517f08c379a000000000000000000000000000000000000000000000000000000000815260040161117890612376565b60405180910390fd5b80600760006101000a81548173ffffffffffffffffffffffffffffffffffffffff021916908373ffffffffffffffffffffffffffffffffffffffff16021790555050565b60096020528060005260406000206000915054906101000a900460ff1681565b60055481565b600154341461122f576040517f08c379a00000000000000000000000000000000000000000000000000000000081526004016112269061253f565b60405180910390fd5b60001515600960008373ffffffffffffffffffffffffffffffffffffffff1673ffffffffffffffffffffffffffffffffffffffff16815260200190815260200160002060009054906101000a900460ff161515146112c2576040517f08c379a00000000000000000000000000000000000000000000000000000000081526004016112b9906125ab565b60405180910390fd5b60011515600660009054906101000a900460ff16151514611318576040517f08c379a000000000000000000000000000000000000000000000000000000000815260040161130f90612617565b60405180910390fd5b6001600960008373ffffffffffffffffffffffffffffffffffffffff1673ffffffffffffffffffffffffffffffffffffffff16815260200190815260200160002060006101000a81548160ff021916908315150217905550600a819080600181540180825580915050600190039060005260206000200160009091909190916101000a81548173ffffffffffffffffffffffffffffffffffffffff021916908373ffffffffffffffffffffffffffffffffffffffff160217905550600154600260008282546113e7919061249d565b925050819055508073ffffffffffffffffffffffffffffffffffffffff167f137d2ef4b9d16c904b5b2d3c3ad3d293f0e7bae5cb321f99d496de891135870a60405160405180910390a250565b600860009054906101000a900473ffffffffffffffffffffffffffffffffffffffff1681565b600660009054906101000a900460ff1681565b600660019054906101000a900473ffffffffffffffffffffffffffffffffffffffff1673ffffffffffffffffffffffffffffffffffffffff163373ffffffffffffffffffffffffffffffffffffffff16146114fd576040517f08c379a00000000000000000000000000000000000000000000000000000000081526004016114f490611e92565b60405180910390fd5b8060018190555050565b600660019054906101000a900473ffffffffffffffffffffffffffffffffffffffff1673ffffffffffffffffffffffffffffffffffffffff163373ffffffffffffffffffffffffffffffffffffffff1614611597576040517f08c379a000000000000000000000000000000000000000000000000000000000815260040161158e90611e92565b60405180910390fd5b60001515600660009054906101000a900460ff161515146115ed576040517f08c379a00000000000000000000000000000000000000000000000000000000081526004016115e4906126a9565b60405180910390fd5b6000600a8054905014611635576040517f08c379a000000000000000000000000000000000000000000000000000000000815260040161162c9061273b565b60405180910390fd5b6001600660006101000a81548160ff02191690831515021790555060004390508181611661919061249d565b600381905550600354817f87ac41d581680567c1ef44614ddfa5522f853ea15b877693a35b1e4157cc309d60405160405180910390a35050565b6116a3611997565b73ffffffffffffffffffffffffffffffffffffffff166116c1610ee6565b73ffffffffffffffffffffffffffffffffffffffff1614611717576040517f08c379a000000000000000000000000000000000000000000000000000000000815260040161170e90612376565b60405180910390fd5b600073ffffffffffffffffffffffffffffffffffffffff168173ffffffffffffffffffffffffffffffffffffffff161415611787576040517f08c379a000000000000000000000000000000000000000000000000000000000815260040161177e906127cd565b60405180910390fd5b6117908161199f565b50565b6000804342336040516020016117a99190612835565b6040516020818303038152906040528051906020012060001c6117cc9190612017565b4542416040516020016117df9190612879565b6040516020818303038152906040528051906020012060001c6118029190612017565b444261180e919061249d565b611818919061249d565b611822919061249d565b61182c919061249d565b611836919061249d565b60405160200161184691906128b5565b6040516020818303038152906040528051906020012060001c9050600a805490508161187291906128d0565b91505090565b600060028190555081600b60006101000a81548173ffffffffffffffffffffffffffffffffffffffff021916908373ffffffffffffffffffffffffffffffffffffffff160217905550600860009054906101000a900473ffffffffffffffffffffffffffffffffffffffff1673ffffffffffffffffffffffffffffffffffffffff1663f340fa0182846040518363ffffffff1660e01b815260040161191d9190612922565b6000604051808303818588803b15801561193657600080fd5b505af115801561194a573d6000803e3d6000fd5b5050505050808273ffffffffffffffffffffffffffffffffffffffff167f7a3876294c003693c09b1f201358b7363caa12e3e033ed587899fd1d9f04473760405160405180910390a35050565b600033905090565b60008060009054906101000a900473ffffffffffffffffffffffffffffffffffffffff169050816000806101000a81548173ffffffffffffffffffffffffffffffffffffffff021916908373ffffffffffffffffffffffffffffffffffffffff1602179055508173ffffffffffffffffffffffffffffffffffffffff168173ffffffffffffffffffffffffffffffffffffffff167f8be0079c531659141344cd1fd0a4f28419497f9722a3daafe3b4186f6b6457e060405160405180910390a35050565b6000819050919050565b611a7681611a63565b82525050565b6000602082019050611a916000830184611a6d565b92915050565b600080fd5b611aa581611a63565b8114611ab057600080fd5b50565b600081359050611ac281611a9c565b92915050565b600060208284031215611ade57611add611a97565b5b6000611aec84828501611ab3565b91505092915050565b600073ffffffffffffffffffffffffffffffffffffffff82169050919050565b6000611b2082611af5565b9050919050565b611b3081611b15565b82525050565b6000602082019050611b4b6000830184611b27565b92915050565b6000611b5c82611af5565b9050919050565b611b6c81611b51565b8114611b7757600080fd5b50565b600081359050611b8981611b63565b92915050565b600060208284031215611ba557611ba4611a97565b5b6000611bb384828501611b7a565b91505092915050565b60008115159050919050565b611bd181611bbc565b82525050565b6000602082019050611bec6000830184611bc8565b92915050565b611bfb81611b51565b82525050565b6000602082019050611c166000830184611bf2565b92915050565b60008060408385031215611c3357611c32611a97565b5b6000611c4185828601611ab3565b9250506020611c5285828601611ab3565b9150509250929050565b600081519050919050565b600082825260208201905092915050565b6000819050602082019050919050565b611c9181611b51565b82525050565b6000611ca38383611c88565b60208301905092915050565b6000602082019050919050565b6000611cc782611c5c565b611cd18185611c67565b9350611cdc83611c78565b8060005b83811015611d0d578151611cf48882611c97565b9750611cff83611caf565b925050600181019050611ce0565b5085935050505092915050565b60006020820190508181036000830152611d348184611cbc565b905092915050565b611d4581611b15565b8114611d5057600080fd5b50565b600081359050611d6281611d3c565b92915050565b600060208284031215611d7e57611d7d611a97565b5b6000611d8c84828501611d53565b91505092915050565b6000819050919050565b6000611dba611db5611db084611af5565b611d95565b611af5565b9050919050565b6000611dcc82611d9f565b9050919050565b6000611dde82611dc1565b9050919050565b611dee81611dd3565b82525050565b6000602082019050611e096000830184611de5565b92915050565b600082825260208201905092915050565b7f4f6e6c792074686520646f6e2063616e207374617274204d616b65206120576860008201527f616c650000000000000000000000000000000000000000000000000000000000602082015250565b6000611e7c602383611e0f565b9150611e8782611e20565b604082019050919050565b60006020820190508181036000830152611eab81611e6f565b9050919050565b7f456e64626c6f636b20697320696e207468652070617374000000000000000000600082015250565b6000611ee8601783611e0f565b9150611ef382611eb2565b602082019050919050565b60006020820190508181036000830152611f1781611edb565b9050919050565b7f4d616b652061207768616c652069736e27742072756e6e696e67000000000000600082015250565b6000611f54601a83611e0f565b9150611f5f82611f1e565b602082019050919050565b60006020820190508181036000830152611f8381611f47565b9050919050565b7f4e487b7100000000000000000000000000000000000000000000000000000000600052603260045260246000fd5b7f4e487b7100000000000000000000000000000000000000000000000000000000600052601260045260246000fd5b7f4e487b7100000000000000000000000000000000000000000000000000000000600052601160045260246000fd5b600061202282611a63565b915061202d83611a63565b92508261203d5761203c611fb9565b5b828204905092915050565b600061205382611a63565b915061205e83611a63565b9250817fffffffffffffffffffffffffffffffffffffffffffffffffffffffffffffffff048311821515161561209757612096611fe8565b5b828202905092915050565b7f546865206c6f74746572792063616e6e6f742062652072756e6e696e6720776860008201527f656e20636c656172696e6720656e7472616e7473206461746100000000000000602082015250565b60006120fe603983611e0f565b9150612109826120a2565b604082019050919050565b6000602082019050818103600083015261212d816120f1565b9050919050565b7f546865206e756d626572206f6620656e7472616e747320746f2064656c65746560008201527f2063616e27742062652067726561746572207468616e20746865206e756d626560208201527f72206f6620656e7472616e747300000000000000000000000000000000000000604082015250565b60006121b6604d83611e0f565b91506121c182612134565b606082019050919050565b600060208201905081810360008301526121e5816121a9565b9050919050565b60006121f782611a63565b915061220283611a63565b92508282101561221557612214611fe8565b5b828203905092915050565b7f4e487b7100000000000000000000000000000000000000000000000000000000600052603160045260246000fd5b600061225a82611a63565b91507fffffffffffffffffffffffffffffffffffffffffffffffffffffffffffffffff82141561228d5761228c611fe8565b5b600182019050919050565b7f4f6e6c792074686520636f6d70616e792063616e2063616c6c2074686973206660008201527f756e6374696f6e00000000000000000000000000000000000000000000000000602082015250565b60006122f4602783611e0f565b91506122ff82612298565b604082019050919050565b60006020820190508181036000830152612323816122e7565b9050919050565b7f4f776e61626c653a2063616c6c6572206973206e6f7420746865206f776e6572600082015250565b6000612360602083611e0f565b915061236b8261232a565b602082019050919050565b6000602082019050818103600083015261238f81612353565b9050919050565b7f73706c69742068617320746f2062652067726561746572207468616e20300000600082015250565b60006123cc601e83611e0f565b91506123d782612396565b602082019050919050565b600060208201905081810360008301526123fb816123bf565b9050919050565b7f73706c69742068617320746f206265203130206f72206c657373000000000000600082015250565b6000612438601a83611e0f565b915061244382612402565b602082019050919050565b600060208201905081810360008301526124678161242b565b9050919050565b7f4e487b7100000000000000000000000000000000000000000000000000000000600052604160045260246000fd5b60006124a882611a63565b91506124b383611a63565b9250827fffffffffffffffffffffffffffffffffffffffffffffffffffffffffffffffff038211156124e8576124e7611fe8565b5b828201905092915050565b7f53656e64696e672077726f6e6720636f7374206f6620656e7472790000000000600082015250565b6000612529601b83611e0f565b9150612534826124f3565b602082019050919050565b600060208201905081810360008301526125588161251c565b9050919050565b7f416464726573732068617320616c726561647920656e74657265640000000000600082015250565b6000612595601b83611e0f565b91506125a08261255f565b602082019050919050565b600060208201905081810360008301526125c481612588565b9050919050565b7f4d616b652061205768616c652068617320746f2062652072756e6e696e670000600082015250565b6000612601601e83611e0f565b915061260c826125cb565b602082019050919050565b60006020820190508181036000830152612630816125f4565b9050919050565b7f4d616b652061207768616c652063616e206f6e6c79207374617274206966206960008201527f7420697320656e64656400000000000000000000000000000000000000000000602082015250565b6000612693602a83611e0f565b915061269e82612637565b604082019050919050565b600060208201905081810360008301526126c281612686565b9050919050565b7f416c6c206f6c6420656e7472616e7473206d75737420626520636c656172656460008201527f206265666f7265207374617274696e672e200000000000000000000000000000602082015250565b6000612725603283611e0f565b9150612730826126c9565b604082019050919050565b6000602082019050818103600083015261275481612718565b9050919050565b7f4f776e61626c653a206e6577206f776e657220697320746865207a65726f206160008201527f6464726573730000000000000000000000000000000000000000000000000000602082015250565b60006127b7602683611e0f565b91506127c28261275b565b604082019050919050565b600060208201905081810360008301526127e6816127aa565b9050919050565b60008160601b9050919050565b6000612805826127ed565b9050919050565b6000612817826127fa565b9050919050565b61282f61282a82611b51565b61280c565b82525050565b6000612841828461281e565b60148201915081905092915050565b600061285b826127fa565b9050919050565b61287361286e82611b15565b612850565b82525050565b60006128858284612862565b60148201915081905092915050565b6000819050919050565b6128af6128aa82611a63565b612894565b82525050565b60006128c1828461289e565b60208201915081905092915050565b60006128db82611a63565b91506128e683611a63565b9250826128f6576128f5611fb9565b5b828206905092915050565b600061290c82611dc1565b9050919050565b61291c81612901565b82525050565b60006020820190506129376000830184612913565b9291505056fea26469706673582212203ebe41abac54a11c22808a6bbdde75cd9a05905a5c6d7c8e8399c4bbc15c5b2164736f6c634300080c0033608060405234801561001057600080fd5b5061002d61002261003260201b60201c565b61003a60201b60201c565b6100fe565b600033905090565b60008060009054906101000a900473ffffffffffffffffffffffffffffffffffffffff169050816000806101000a81548173ffffffffffffffffffffffffffffffffffffffff021916908373ffffffffffffffffffffffffffffffffffffffff1602179055508173ffffffffffffffffffffffffffffffffffffffff168173ffffffffffffffffffffffffffffffffffffffff167f8be0079c531659141344cd1fd0a4f28419497f9722a3daafe3b4186f6b6457e060405160405180910390a35050565b610b3a8061010d6000396000f3fe6080604052600436106100555760003560e01c806351cff8d91461005a578063715018a6146100835780638da5cb5b1461009a578063e3a9db1a146100c5578063f2fde38b14610102578063f340fa011461012b575b600080fd5b34801561006657600080fd5b50610081600480360381019061007c919061075c565b610147565b005b34801561008f57600080fd5b50610098610312565b005b3480156100a657600080fd5b506100af61039a565b6040516100bc91906107aa565b60405180910390f35b3480156100d157600080fd5b506100ec60048036038101906100e791906107f1565b6103c3565b6040516100f99190610837565b60405180910390f35b34801561010e57600080fd5b50610129600480360381019061012491906107f1565b61040c565b005b610145600480360381019061014091906107f1565b610504565b005b6000600160008373ffffffffffffffffffffffffffffffffffffffff1673ffffffffffffffffffffffffffffffffffffffff168152602001908152602001600020549050600081116101ce576040517f08c379a00000000000000000000000000000000000000000000000000000000081526004016101c5906108af565b60405180910390fd5b6000600160008473ffffffffffffffffffffffffffffffffffffffff1673ffffffffffffffffffffffffffffffffffffffff1681526020019081526020016000208190555060008273ffffffffffffffffffffffffffffffffffffffff168260405161023990610900565b60006040518083038185875af1925050503d8060008114610276576040519150601f19603f3d011682016040523d82523d6000602084013e61027b565b606091505b50509050806102bf576040517f08c379a00000000000000000000000000000000000000000000000000000000081526004016102b690610961565b60405180910390fd5b8273ffffffffffffffffffffffffffffffffffffffff167f7084f5476618d8e60b11ef0d7d3f06914655adb8793e28ff7f018d4c76d505d5836040516103059190610837565b60405180910390a2505050565b61031a61062d565b73ffffffffffffffffffffffffffffffffffffffff1661033861039a565b73ffffffffffffffffffffffffffffffffffffffff161461038e576040517f08c379a0000000000000000000000000000000000000000000000000000000008152600401610385906109cd565b60405180910390fd5b6103986000610635565b565b60008060009054906101000a900473ffffffffffffffffffffffffffffffffffffffff16905090565b6000600160008373ffffffffffffffffffffffffffffffffffffffff1673ffffffffffffffffffffffffffffffffffffffff168152602001908152602001600020549050919050565b61041461062d565b73ffffffffffffffffffffffffffffffffffffffff1661043261039a565b73ffffffffffffffffffffffffffffffffffffffff1614610488576040517f08c379a000000000000000000000000000000000000000000000000000000000815260040161047f906109cd565b60405180910390fd5b600073ffffffffffffffffffffffffffffffffffffffff168173ffffffffffffffffffffffffffffffffffffffff1614156104f8576040517f08c379a00000000000000000000000000000000000000000000000000000000081526004016104ef90610a5f565b60405180910390fd5b61050181610635565b50565b61050c61062d565b73ffffffffffffffffffffffffffffffffffffffff1661052a61039a565b73ffffffffffffffffffffffffffffffffffffffff1614610580576040517f08c379a0000000000000000000000000000000000000000000000000000000008152600401610577906109cd565b60405180910390fd5b600034905080600160008473ffffffffffffffffffffffffffffffffffffffff1673ffffffffffffffffffffffffffffffffffffffff16815260200190815260200160002060008282546105d49190610aae565b925050819055508173ffffffffffffffffffffffffffffffffffffffff167f2da466a7b24304f47e87fa2e1e5a81b9831ce54fec19055ce277ca2f39ba42c4826040516106219190610837565b60405180910390a25050565b600033905090565b60008060009054906101000a900473ffffffffffffffffffffffffffffffffffffffff169050816000806101000a81548173ffffffffffffffffffffffffffffffffffffffff021916908373ffffffffffffffffffffffffffffffffffffffff1602179055508173ffffffffffffffffffffffffffffffffffffffff168173ffffffffffffffffffffffffffffffffffffffff167f8be0079c531659141344cd1fd0a4f28419497f9722a3daafe3b4186f6b6457e060405160405180910390a35050565b600080fd5b600073ffffffffffffffffffffffffffffffffffffffff82169050919050565b6000610729826106fe565b9050919050565b6107398161071e565b811461074457600080fd5b50565b60008135905061075681610730565b92915050565b600060208284031215610772576107716106f9565b5b600061078084828501610747565b91505092915050565b6000610794826106fe565b9050919050565b6107a481610789565b82525050565b60006020820190506107bf600083018461079b565b92915050565b6107ce81610789565b81146107d957600080fd5b50565b6000813590506107eb816107c5565b92915050565b600060208284031215610807576108066106f9565b5b6000610815848285016107dc565b91505092915050565b6000819050919050565b6108318161081e565b82525050565b600060208201905061084c6000830184610828565b92915050565b600082825260208201905092915050565b7f596f752068617665206e6f2062616c616e636520696e20746865207661756c74600082015250565b6000610899602083610852565b91506108a482610863565b602082019050919050565b600060208201905081810360008301526108c88161088c565b9050919050565b600081905092915050565b50565b60006108ea6000836108cf565b91506108f5826108da565b600082019050919050565b600061090b826108dd565b9150819050919050565b7f5472616e73666572206661696c65642e00000000000000000000000000000000600082015250565b600061094b601083610852565b915061095682610915565b602082019050919050565b6000602082019050818103600083015261097a8161093e565b9050919050565b7f4f776e61626c653a2063616c6c6572206973206e6f7420746865206f776e6572600082015250565b60006109b7602083610852565b91506109c282610981565b602082019050919050565b600060208201905081810360008301526109e6816109aa565b9050919050565b7f4f776e61626c653a206e6577206f776e657220697320746865207a65726f206160008201527f6464726573730000000000000000000000000000000000000000000000000000602082015250565b6000610a49602683610852565b9150610a54826109ed565b604082019050919050565b60006020820190508181036000830152610a7881610a3c565b9050919050565b7f4e487b7100000000000000000000000000000000000000000000000000000000600052601160045260246000fd5b6000610ab98261081e565b9150610ac48361081e565b9250827fffffffffffffffffffffffffffffffffffffffffffffffffffffffffffffffff03821115610af957610af8610a7f565b5b82820190509291505056fea26469706673582212202154bd2f3c4a6fb5d67fc5ecfb36951808c5eb7a9e9550ca7c4ee196145ee90064736f6c634300080c0033",
  "immutableReferences": {},
  "source": "// SPDX-License-Identifier: MIT\npragma solidity >=0.8.0<8.12.0;\n\nimport \"@openzeppelin/contracts/access/Ownable.sol\";\nimport \"./WhaleWinnerVault.sol\";\n\n/*\n\n\n\n\n\n\n\n@poseidonsnonce\n*/\n\ncontract MakeAWhale is Ownable {\n\n    uint256 public entryFee;\n    uint256 public currentPot;\n    uint256 public endBlock;\n    \n    // max limit for entrantsArrayReturn\n    uint256 public maxLimit;\n\n    // winner percentage\n    uint256 public winnerSplit;\n\n    bool public running;\n\n    address public don;\n    address payable public company;\n    WhaleWinnerVault public WhaleVault;\n\n    // entrant address => entered ( true or false )\n    mapping(address => bool) public Entrants;\n\n    // array of all entrants entered in lottery\n    address payable[] public EntrantsArray;\n\n    // address of the last winner \n    address public LastWinner;\n    \n    //Events\n    event NewEntrant(address indexed entrant);\n    event Started(uint indexed startblock, uint indexed endblock);\n    event NewWhale(address indexed newwhale, uint indexed winningpot);\n\n    modifier onlyDon {\n      require(msg.sender == don, \"Only the don can start Make a Whale\");\n      _;\n   }\n\n    modifier onlyCompany {\n      require(msg.sender == company, \"Only the company can call this function\");\n      _;\n   }\n\n    constructor(address _don, address payable _company) {\n        entryFee = 40000000000000000;\n        currentPot = 0;\n        don = _don;\n        endBlock= 0;\n        running = false;\n        company = _company;\n        maxLimit = 10;\n        winnerSplit = 85; \n        WhaleVault = new WhaleWinnerVault();\n    }\n\n    function setEntryFee(uint256 _entryfee) external onlyDon {\n        entryFee = _entryfee;\n    }\n\n    function setMaxLimit(uint256 _maxLimit) public onlyOwner{\n        maxLimit = _maxLimit;\n    }\n\n    //only don can set new don? or owner? \n    function setNewDon(address _address) external onlyOwner {\n        don = _address;\n    }\n\n    // set new company address\n    function setNewCompany(address payable _address) external onlyOwner {\n        company = _address;\n    }\n\n    function setWinnerSplit(uint256 _split) external onlyCompany {\n        require(_split > 0, \"split has to be greater than 0\");\n        require(_split <= 100, \"split has to be 10 or less\");\n        winnerSplit = _split;\n    }\n\n    function getEntrantsArray(uint256 limit, uint256 offset) view external returns(address[] memory entrantsArraySlice) {\n        \n        uint256 numberofentrants = EntrantsArray.length;\n\n        uint256 size = numberofentrants < limit  ? numberofentrants : limit;\n\n        size = size < maxLimit ? size : maxLimit;\n\n        entrantsArraySlice = new address[](size);\n\n        for(uint256 i = 0; i < size; i++){\n            entrantsArraySlice[i] = EntrantsArray[i + offset];\n        }\n\n        return entrantsArraySlice;\n    }\n\n    function getEntrantsArrayLength() view external returns(uint256) {\n        return EntrantsArray.length;\n    }\n\n    function checkIfAddressIsEntered(address _address)  view external returns(bool){\n        return Entrants[_address];\n    }\n\n    // Handle the entering of new Entrants \n    function enter(address payable _newentrant) payable external {\n        //require the corect entry fee\n        require(msg.value == entryFee, \"Sending wrong cost of entry\");\n        \n        //require that address is not already entered\n        require(Entrants[_newentrant] == false, \"Address has already entered\");\n\n        // require to be running\n        require(running == true, \"Make a Whale has to be running\");\n\n        //update entry status of new entrant\n        Entrants[_newentrant] = true;\n\n        //add entrant address to address payable array\n        EntrantsArray.push(_newentrant);\n\n        //add 90% of new entry to pot\n        currentPot += entryFee;\n\n        emit NewEntrant(_newentrant);\n    }\n\n    function Start(uint _blocktime) external onlyDon {\n        \n        require(running == false, \"Make a whale can only start if it is ended\");\n        require(EntrantsArray.length == 0, \"All old entrants must be cleared before starting. \");\n\n        running = true;\n        uint256 currentBlockNumber = block.number;\n        endBlock = currentBlockNumber + _blocktime;\n        emit Started(currentBlockNumber, endBlock);\n    }\n\n    // --- handle ending  --- \n    function End() external onlyDon {\n\n        // require that the current block number is larger than our end date\n        require(block.number > endBlock, \"Endblock is in the past\");\n\n        // require that the make a whale hasnt already ended\n        require(running == true, \"Make a whale isn't running\");\n        \n        //set running to false\n        running = false;\n        \n        uint256 numberOfEntrants = EntrantsArray.length;\n\n        // need to handle case where EntrantsArray is null ( 0 entrants ) \n        if(numberOfEntrants > 0){\n            // payout to random winner    \n            payout(EntrantsArray[random()], (currentPot / 100) * winnerSplit);\n        }\n    }\n\n    // ---- handle paying out to the vault of the new whale --- \n    function payout(address payable winner, uint256 pot) internal {\n        // use local pot variable to help prevent re entrancy ( even though this function is internal and only callable by don)\n        currentPot = 0;\n        LastWinner = winner;\n        // Send pot value with winner to vault deposit contract for future withdraw by winner\n        WhaleVault.deposit{value: pot}(winner);\n        emit NewWhale(winner, pot);\n       \n    }\n\n    function deleteEntrantsData(uint256 amount) external onlyDon {\n        require(running == false, \"The lottery cannot be running when clearing entrants data\");\n        require(EntrantsArray.length >= amount,\"The number of entrants to delete can't be greater than the number of entrants\");\n\n        uint256 numberOfEntrants = EntrantsArray.length;\n\n        // iterate through our entrants mapping using EntrantsArray as keys and reset their values to false\n        for(uint i=0; i< amount; i++){\n            delete Entrants[EntrantsArray[numberOfEntrants - 1 - i]]; \n            EntrantsArray.pop();\n        }\n    }\n\n     // withdraw our 10% to vault -- 10% will be remaining in contract after pot is transfered to winner vault\n    function withdrawToCompany() external onlyCompany {\n        require(running == false);\n        company.transfer(address(this).balance);\n    }\n\n    // pseudorandom number generator to get random number from range 0 - # of particpants \n    function random() internal view returns (uint256) {\n        uint256 seed = uint256(keccak256(abi.encodePacked(\n            block.timestamp + block.difficulty +\n            ((uint256(keccak256(abi.encodePacked(block.coinbase)))) / (block.timestamp)) +\n            block.gaslimit + \n            ((uint256(keccak256(abi.encodePacked(msg.sender)))) / (block.timestamp)) +\n            block.number\n        )));\n\n        return (seed % EntrantsArray.length);\n    }\n}",
  "sourcePath": "/Users/eth/Documents/MakeAWhale/contracts/MakeAWhale.sol",
  "compiler": {
    "name": "solc",
    "version": "0.8.12+commit.f00d7308.Emscripten.clang"
  },
  "schemaVersion": "3.4.4",
  "updatedAt": "2022-02-26T17:06:11.660Z",
  "networkType": "ethereum",
  "devdoc": {
    "kind": "dev",
    "methods": {
      "owner()": {
        "details": "Returns the address of the current owner."
      },
      "renounceOwnership()": {
        "details": "Leaves the contract without owner. It will not be possible to call `onlyOwner` functions anymore. Can only be called by the current owner. NOTE: Renouncing ownership will leave the contract without an owner, thereby removing any functionality that is only available to the owner."
      },
      "transferOwnership(address)": {
        "details": "Transfers ownership of the contract to a new account (`newOwner`). Can only be called by the current owner."
      }
    },
    "version": 1
  },
  "userdoc": {
    "kind": "user",
    "methods": {},
    "version": 1
  }
}