{
  "contractName": "MakeAWhale",
  "abi": [
    {
      "inputs": [
        {
          "internalType": "address",
          "name": "_don",
          "type": "address"
        },
        {
          "internalType": "address payable",
          "name": "_company",
          "type": "address"
        },
        {
          "internalType": "address payable",
          "name": "_winnervault",
          "type": "address"
        }
      ],
      "stateMutability": "nonpayable",
      "type": "constructor"
    },
    {
      "anonymous": false,
      "inputs": [
        {
          "indexed": true,
          "internalType": "address",
          "name": "entrant",
          "type": "address"
        }
      ],
      "name": "NewEntrant",
      "type": "event"
    },
    {
      "anonymous": false,
      "inputs": [
        {
          "indexed": true,
          "internalType": "address",
          "name": "newwhale",
          "type": "address"
        },
        {
          "indexed": true,
          "internalType": "uint256",
          "name": "winningpot",
          "type": "uint256"
        }
      ],
      "name": "NewWhale",
      "type": "event"
    },
    {
      "anonymous": false,
      "inputs": [
        {
          "indexed": true,
          "internalType": "address",
          "name": "previousOwner",
          "type": "address"
        },
        {
          "indexed": true,
          "internalType": "address",
          "name": "newOwner",
          "type": "address"
        }
      ],
      "name": "OwnershipTransferred",
      "type": "event"
    },
    {
      "anonymous": false,
      "inputs": [
        {
          "indexed": true,
          "internalType": "uint256",
          "name": "startblock",
          "type": "uint256"
        },
        {
          "indexed": true,
          "internalType": "uint256",
          "name": "endblock",
          "type": "uint256"
        }
      ],
      "name": "Started",
      "type": "event"
    },
    {
      "inputs": [
        {
          "internalType": "address",
          "name": "",
          "type": "address"
        }
      ],
      "name": "Entrants",
      "outputs": [
        {
          "internalType": "bool",
          "name": "",
          "type": "bool"
        }
      ],
      "stateMutability": "view",
      "type": "function",
      "constant": true
    },
    {
      "inputs": [
        {
          "internalType": "uint256",
          "name": "",
          "type": "uint256"
        }
      ],
      "name": "EntrantsArray",
      "outputs": [
        {
          "internalType": "address payable",
          "name": "",
          "type": "address"
        }
      ],
      "stateMutability": "view",
      "type": "function",
      "constant": true
    },
    {
      "inputs": [],
      "name": "LastWinner",
      "outputs": [
        {
          "internalType": "address",
          "name": "",
          "type": "address"
        }
      ],
      "stateMutability": "view",
      "type": "function",
      "constant": true
    },
    {
      "inputs": [],
      "name": "WinnerVaultAddress",
      "outputs": [
        {
          "internalType": "address payable",
          "name": "",
          "type": "address"
        }
      ],
      "stateMutability": "view",
      "type": "function",
      "constant": true
    },
    {
      "inputs": [],
      "name": "company",
      "outputs": [
        {
          "internalType": "address payable",
          "name": "",
          "type": "address"
        }
      ],
      "stateMutability": "view",
      "type": "function",
      "constant": true
    },
    {
      "inputs": [],
      "name": "currentPot",
      "outputs": [
        {
          "internalType": "uint256",
          "name": "",
          "type": "uint256"
        }
      ],
      "stateMutability": "view",
      "type": "function",
      "constant": true
    },
    {
      "inputs": [],
      "name": "don",
      "outputs": [
        {
          "internalType": "address",
          "name": "",
          "type": "address"
        }
      ],
      "stateMutability": "view",
      "type": "function",
      "constant": true
    },
    {
      "inputs": [],
      "name": "endBlock",
      "outputs": [
        {
          "internalType": "uint256",
          "name": "",
          "type": "uint256"
        }
      ],
      "stateMutability": "view",
      "type": "function",
      "constant": true
    },
    {
      "inputs": [],
      "name": "entryFee",
      "outputs": [
        {
          "internalType": "uint256",
          "name": "",
          "type": "uint256"
        }
      ],
      "stateMutability": "view",
      "type": "function",
      "constant": true
    },
    {
      "inputs": [],
      "name": "maxLimit",
      "outputs": [
        {
          "internalType": "uint8",
          "name": "",
          "type": "uint8"
        }
      ],
      "stateMutability": "view",
      "type": "function",
      "constant": true
    },
    {
      "inputs": [],
      "name": "owner",
      "outputs": [
        {
          "internalType": "address",
          "name": "",
          "type": "address"
        }
      ],
      "stateMutability": "view",
      "type": "function",
      "constant": true
    },
    {
      "inputs": [],
      "name": "renounceOwnership",
      "outputs": [],
      "stateMutability": "nonpayable",
      "type": "function"
    },
    {
      "inputs": [],
      "name": "running",
      "outputs": [
        {
          "internalType": "bool",
          "name": "",
          "type": "bool"
        }
      ],
      "stateMutability": "view",
      "type": "function",
      "constant": true
    },
    {
      "inputs": [
        {
          "internalType": "address",
          "name": "newOwner",
          "type": "address"
        }
      ],
      "name": "transferOwnership",
      "outputs": [],
      "stateMutability": "nonpayable",
      "type": "function"
    },
    {
      "inputs": [],
      "name": "winnerSplit",
      "outputs": [
        {
          "internalType": "uint8",
          "name": "",
          "type": "uint8"
        }
      ],
      "stateMutability": "view",
      "type": "function",
      "constant": true
    },
    {
      "inputs": [
        {
          "internalType": "uint256",
          "name": "_entryfee",
          "type": "uint256"
        }
      ],
      "name": "setEntryFee",
      "outputs": [],
      "stateMutability": "nonpayable",
      "type": "function"
    },
    {
      "inputs": [
        {
          "internalType": "uint8",
          "name": "_maxLimit",
          "type": "uint8"
        }
      ],
      "name": "setMaxLimit",
      "outputs": [],
      "stateMutability": "nonpayable",
      "type": "function"
    },
    {
      "inputs": [
        {
          "internalType": "address",
          "name": "_address",
          "type": "address"
        }
      ],
      "name": "setNewDon",
      "outputs": [],
      "stateMutability": "nonpayable",
      "type": "function"
    },
    {
      "inputs": [
        {
          "internalType": "address payable",
          "name": "_address",
          "type": "address"
        }
      ],
      "name": "setNewCompany",
      "outputs": [],
      "stateMutability": "nonpayable",
      "type": "function"
    },
    {
      "inputs": [
        {
          "internalType": "uint8",
          "name": "_split",
          "type": "uint8"
        }
      ],
      "name": "setWinnerSplit",
      "outputs": [],
      "stateMutability": "nonpayable",
      "type": "function"
    },
    {
      "inputs": [
        {
          "internalType": "uint256",
          "name": "limit",
          "type": "uint256"
        },
        {
          "internalType": "uint256",
          "name": "offset",
          "type": "uint256"
        }
      ],
      "name": "getEntrantsArray",
      "outputs": [
        {
          "internalType": "address[]",
          "name": "entrantsArraySlice",
          "type": "address[]"
        }
      ],
      "stateMutability": "view",
      "type": "function",
      "constant": true
    },
    {
      "inputs": [],
      "name": "getEntrantsArrayLength",
      "outputs": [
        {
          "internalType": "uint256",
          "name": "",
          "type": "uint256"
        }
      ],
      "stateMutability": "view",
      "type": "function",
      "constant": true
    },
    {
      "inputs": [
        {
          "internalType": "address",
          "name": "_address",
          "type": "address"
        }
      ],
      "name": "checkIfAddressIsEntered",
      "outputs": [
        {
          "internalType": "bool",
          "name": "",
          "type": "bool"
        }
      ],
      "stateMutability": "view",
      "type": "function",
      "constant": true
    },
    {
      "inputs": [
        {
          "internalType": "address payable",
          "name": "_newentrant",
          "type": "address"
        }
      ],
      "name": "enter",
      "outputs": [],
      "stateMutability": "payable",
      "type": "function",
      "payable": true
    },
    {
      "inputs": [
        {
          "internalType": "uint256",
          "name": "_blocktime",
          "type": "uint256"
        }
      ],
      "name": "Start",
      "outputs": [],
      "stateMutability": "nonpayable",
      "type": "function"
    },
    {
      "inputs": [],
      "name": "End",
      "outputs": [],
      "stateMutability": "nonpayable",
      "type": "function"
    },
    {
      "inputs": [
        {
          "internalType": "uint16",
          "name": "amount",
          "type": "uint16"
        }
      ],
      "name": "deleteEntrantsData",
      "outputs": [],
      "stateMutability": "nonpayable",
      "type": "function"
    },
    {
      "inputs": [],
      "name": "withdrawToCompany",
      "outputs": [],
      "stateMutability": "nonpayable",
      "type": "function"
    }
  ],
  "bytecode": "0x6080604052600a600460006101000a81548160ff021916908360ff1602179055506009600460016101000a81548160ff021916908360ff1602179055503480156200004957600080fd5b5060405162002edb38038062002edb83398181016040528101906200006f91906200030f565b6200008f620000836200019460201b60201c565b6200019c60201b60201c565b668e1bc9bf040000600181905550600060028190555082600460036101000a81548173ffffffffffffffffffffffffffffffffffffffff021916908373ffffffffffffffffffffffffffffffffffffffff16021790555060006003819055506000600460026101000a81548160ff02191690831515021790555081600560006101000a81548173ffffffffffffffffffffffffffffffffffffffff021916908373ffffffffffffffffffffffffffffffffffffffff16021790555080600660006101000a81548173ffffffffffffffffffffffffffffffffffffffff021916908373ffffffffffffffffffffffffffffffffffffffff1602179055505050506200036b565b600033905090565b60008060009054906101000a900473ffffffffffffffffffffffffffffffffffffffff169050816000806101000a81548173ffffffffffffffffffffffffffffffffffffffff021916908373ffffffffffffffffffffffffffffffffffffffff1602179055508173ffffffffffffffffffffffffffffffffffffffff168173ffffffffffffffffffffffffffffffffffffffff167f8be0079c531659141344cd1fd0a4f28419497f9722a3daafe3b4186f6b6457e060405160405180910390a35050565b600080fd5b600073ffffffffffffffffffffffffffffffffffffffff82169050919050565b6000620002928262000265565b9050919050565b620002a48162000285565b8114620002b057600080fd5b50565b600081519050620002c48162000299565b92915050565b6000620002d78262000265565b9050919050565b620002e981620002ca565b8114620002f557600080fd5b50565b6000815190506200030981620002de565b92915050565b6000806000606084860312156200032b576200032a62000260565b5b60006200033b86828701620002b3565b93505060206200034e86828701620002f8565b92505060406200036186828701620002f8565b9150509250925092565b612b60806200037b6000396000f3fe6080604052600436106101b75760003560e01c80638c5833e9116100ec578063c838d3171161008a578063d85bd52611610064578063d85bd526146105b7578063eb770d0c146105e2578063f06a29c91461060b578063f2fde38b14610634576101b7565b8063c838d31714610533578063cff9ea0814610570578063d014c01f1461059b576101b7565b806394fb4edc116100c657806394fb4edc14610489578063a0a3861d146104b4578063c5dc7022146104df578063c7f8707814610508576101b7565b80638c5833e9146103f85780638da5cb5b14610421578063942c1b411461044c576101b7565b806345978668116101595780636904c94d116101335780636904c94d14610362578063715018a61461038d57806376b5ebbb146103a457806381a5ce3b146103cd576101b7565b806345978668146102e557806356e0300a1461030e578063574479e614610337576101b7565b80631a861d26116101955780631a861d26146102295780632a8abf8f146102545780633f4138631461029157806340cdb791146102a8576101b7565b806306e64907146101bc578063072ea61c146101d3578063083c6323146101fe575b600080fd5b3480156101c857600080fd5b506101d161065d565b005b3480156101df57600080fd5b506101e8610841565b6040516101f59190611bae565b60405180910390f35b34801561020a57600080fd5b50610213610847565b6040516102209190611bae565b60405180910390f35b34801561023557600080fd5b5061023e61084d565b60405161024b9190611be5565b60405180910390f35b34801561026057600080fd5b5061027b60048036038101906102769190611c31565b610860565b6040516102889190611c9f565b60405180910390f35b34801561029d57600080fd5b506102a661089f565b005b3480156102b457600080fd5b506102cf60048036038101906102ca9190611cf8565b6109ba565b6040516102dc9190611d40565b60405180910390f35b3480156102f157600080fd5b5061030c60048036038101906103079190611d87565b610a10565b005b34801561031a57600080fd5b5061033560048036038101906103309190611dee565b610aaa565b005b34801561034357600080fd5b5061034c610cf8565b6040516103599190611bae565b60405180910390f35b34801561036e57600080fd5b50610377610cfe565b6040516103849190611c9f565b60405180910390f35b34801561039957600080fd5b506103a2610d24565b005b3480156103b057600080fd5b506103cb60048036038101906103c69190611cf8565b610dac565b005b3480156103d957600080fd5b506103e2610e6c565b6040516103ef9190611e2a565b60405180910390f35b34801561040457600080fd5b5061041f600480360381019061041a9190611d87565b610e92565b005b34801561042d57600080fd5b50610436610fcc565b6040516104439190611e2a565b60405180910390f35b34801561045857600080fd5b50610473600480360381019061046e9190611e45565b610ff5565b6040516104809190611f43565b60405180910390f35b34801561049557600080fd5b5061049e611152565b6040516104ab9190611bae565b60405180910390f35b3480156104c057600080fd5b506104c961115f565b6040516104d69190611e2a565b60405180910390f35b3480156104eb57600080fd5b5061050660048036038101906105019190611f91565b611185565b005b34801561051457600080fd5b5061051d611245565b60405161052a9190611c9f565b60405180910390f35b34801561053f57600080fd5b5061055a60048036038101906105559190611cf8565b61126b565b6040516105679190611d40565b60405180910390f35b34801561057c57600080fd5b5061058561128b565b6040516105929190611be5565b60405180910390f35b6105b560048036038101906105b09190611f91565b61129e565b005b3480156105c357600080fd5b506105cc6114e9565b6040516105d99190611d40565b60405180910390f35b3480156105ee57600080fd5b5061060960048036038101906106049190611c31565b6114fc565b005b34801561061757600080fd5b50610632600480360381019061062d9190611c31565b611596565b005b34801561064057600080fd5b5061065b60048036038101906106569190611cf8565b611728565b005b600460039054906101000a900473ffffffffffffffffffffffffffffffffffffffff1673ffffffffffffffffffffffffffffffffffffffff163373ffffffffffffffffffffffffffffffffffffffff16146106ed576040517f08c379a00000000000000000000000000000000000000000000000000000000081526004016106e490612041565b60405180910390fd5b6003544311610731576040517f08c379a0000000000000000000000000000000000000000000000000000000008152600401610728906120ad565b60405180910390fd5b60011515600460029054906101000a900460ff16151514610787576040517f08c379a000000000000000000000000000000000000000000000000000000000815260040161077e90612119565b60405180910390fd5b6000600460026101000a81548160ff02191690831515021790555060006009805490509050600081111561083e5761083d60096107c2611820565b815481106107d3576107d2612139565b5b9060005260206000200160009054906101000a900473ffffffffffffffffffffffffffffffffffffffff16610838600460019054906101000a900460ff1660ff1661082a600a60025461190590919063ffffffff16565b61191b90919063ffffffff16565b611931565b5b50565b60015481565b60035481565b600460009054906101000a900460ff1681565b6009818154811061087057600080fd5b906000526020600020016000915054906101000a900473ffffffffffffffffffffffffffffffffffffffff1681565b600560009054906101000a900473ffffffffffffffffffffffffffffffffffffffff1673ffffffffffffffffffffffffffffffffffffffff163373ffffffffffffffffffffffffffffffffffffffff161461092f576040517f08c379a0000000000000000000000000000000000000000000000000000000008152600401610926906121da565b60405180910390fd5b60001515600460029054906101000a900460ff1615151461094f57600080fd5b600560009054906101000a900473ffffffffffffffffffffffffffffffffffffffff1673ffffffffffffffffffffffffffffffffffffffff166108fc479081150290604051600060405180830381858888f193505050501580156109b7573d6000803e3d6000fd5b50565b6000600860008373ffffffffffffffffffffffffffffffffffffffff1673ffffffffffffffffffffffffffffffffffffffff16815260200190815260200160002060009054906101000a900460ff169050919050565b610a18611ab3565b73ffffffffffffffffffffffffffffffffffffffff16610a36610fcc565b73ffffffffffffffffffffffffffffffffffffffff1614610a8c576040517f08c379a0000000000000000000000000000000000000000000000000000000008152600401610a8390612246565b60405180910390fd5b80600460006101000a81548160ff021916908360ff16021790555050565b600460039054906101000a900473ffffffffffffffffffffffffffffffffffffffff1673ffffffffffffffffffffffffffffffffffffffff163373ffffffffffffffffffffffffffffffffffffffff1614610b3a576040517f08c379a0000000000000000000000000000000000000000000000000000000008152600401610b3190612041565b60405180910390fd5b60001515600460029054906101000a900460ff16151514610b90576040517f08c379a0000000000000000000000000000000000000000000000000000000008152600401610b87906122d8565b60405180910390fd5b8061ffff166009805490501015610bdc576040517f08c379a0000000000000000000000000000000000000000000000000000000008152600401610bd390612390565b60405180910390fd5b6000600980549050905060005b8261ffff16811015610cf35760086000600983600186610c0991906123df565b610c1391906123df565b81548110610c2457610c23612139565b5b9060005260206000200160009054906101000a900473ffffffffffffffffffffffffffffffffffffffff1673ffffffffffffffffffffffffffffffffffffffff1673ffffffffffffffffffffffffffffffffffffffff16815260200190815260200160002060006101000a81549060ff02191690556009805480610cab57610caa612413565b5b6001900381819060005260206000200160006101000a81549073ffffffffffffffffffffffffffffffffffffffff021916905590558080610ceb90612442565b915050610be9565b505050565b60025481565b600560009054906101000a900473ffffffffffffffffffffffffffffffffffffffff1681565b610d2c611ab3565b73ffffffffffffffffffffffffffffffffffffffff16610d4a610fcc565b73ffffffffffffffffffffffffffffffffffffffff1614610da0576040517f08c379a0000000000000000000000000000000000000000000000000000000008152600401610d9790612246565b60405180910390fd5b610daa6000611abb565b565b610db4611ab3565b73ffffffffffffffffffffffffffffffffffffffff16610dd2610fcc565b73ffffffffffffffffffffffffffffffffffffffff1614610e28576040517f08c379a0000000000000000000000000000000000000000000000000000000008152600401610e1f90612246565b60405180910390fd5b80600460036101000a81548173ffffffffffffffffffffffffffffffffffffffff021916908373ffffffffffffffffffffffffffffffffffffffff16021790555050565b600460039054906101000a900473ffffffffffffffffffffffffffffffffffffffff1681565b600560009054906101000a900473ffffffffffffffffffffffffffffffffffffffff1673ffffffffffffffffffffffffffffffffffffffff163373ffffffffffffffffffffffffffffffffffffffff1614610f22576040517f08c379a0000000000000000000000000000000000000000000000000000000008152600401610f19906121da565b60405180910390fd5b60008160ff1611610f68576040517f08c379a0000000000000000000000000000000000000000000000000000000008152600401610f5f906124d7565b60405180910390fd5b600b8160ff1610610fae576040517f08c379a0000000000000000000000000000000000000000000000000000000008152600401610fa590612543565b60405180910390fd5b80600460016101000a81548160ff021916908360ff16021790555050565b60008060009054906101000a900473ffffffffffffffffffffffffffffffffffffffff16905090565b60606000600980549050905060008482106110105784611012565b815b9050600460009054906101000a900460ff1660ff16811061104557600460009054906101000a900460ff1660ff16611047565b805b90508067ffffffffffffffff81111561106357611062612563565b5b6040519080825280602002602001820160405280156110915781602001602082028036833780820191505090505b50925060005b8181101561114957600985826110ad9190612592565b815481106110be576110bd612139565b5b9060005260206000200160009054906101000a900473ffffffffffffffffffffffffffffffffffffffff168482815181106110fc576110fb612139565b5b602002602001019073ffffffffffffffffffffffffffffffffffffffff16908173ffffffffffffffffffffffffffffffffffffffff1681525050808061114190612442565b915050611097565b50505092915050565b6000600980549050905090565b600a60009054906101000a900473ffffffffffffffffffffffffffffffffffffffff1681565b61118d611ab3565b73ffffffffffffffffffffffffffffffffffffffff166111ab610fcc565b73ffffffffffffffffffffffffffffffffffffffff1614611201576040517f08c379a00000000000000000000000000000000000000000000000000000000081526004016111f890612246565b60405180910390fd5b80600560006101000a81548173ffffffffffffffffffffffffffffffffffffffff021916908373ffffffffffffffffffffffffffffffffffffffff16021790555050565b600660009054906101000a900473ffffffffffffffffffffffffffffffffffffffff1681565b60086020528060005260406000206000915054906101000a900460ff1681565b600460019054906101000a900460ff1681565b60015434146112e2576040517f08c379a00000000000000000000000000000000000000000000000000000000081526004016112d990612634565b60405180910390fd5b60001515600860008373ffffffffffffffffffffffffffffffffffffffff1673ffffffffffffffffffffffffffffffffffffffff16815260200190815260200160002060009054906101000a900460ff16151514611375576040517f08c379a000000000000000000000000000000000000000000000000000000000815260040161136c906126a0565b60405180910390fd5b60011515600460029054906101000a900460ff161515146113cb576040517f08c379a00000000000000000000000000000000000000000000000000000000081526004016113c29061270c565b60405180910390fd5b6001600860008373ffffffffffffffffffffffffffffffffffffffff1673ffffffffffffffffffffffffffffffffffffffff16815260200190815260200160002060006101000a81548160ff0219169083151502179055506009819080600181540180825580915050600190039060005260206000200160009091909190916101000a81548173ffffffffffffffffffffffffffffffffffffffff021916908373ffffffffffffffffffffffffffffffffffffffff16021790555061149d600154600254611b7f90919063ffffffff16565b6002819055508073ffffffffffffffffffffffffffffffffffffffff167f137d2ef4b9d16c904b5b2d3c3ad3d293f0e7bae5cb321f99d496de891135870a60405160405180910390a250565b600460029054906101000a900460ff1681565b600460039054906101000a900473ffffffffffffffffffffffffffffffffffffffff1673ffffffffffffffffffffffffffffffffffffffff163373ffffffffffffffffffffffffffffffffffffffff161461158c576040517f08c379a000000000000000000000000000000000000000000000000000000000815260040161158390612041565b60405180910390fd5b8060018190555050565b600460039054906101000a900473ffffffffffffffffffffffffffffffffffffffff1673ffffffffffffffffffffffffffffffffffffffff163373ffffffffffffffffffffffffffffffffffffffff1614611626576040517f08c379a000000000000000000000000000000000000000000000000000000000815260040161161d90612041565b60405180910390fd5b60001515600460029054906101000a900460ff1615151461167c576040517f08c379a00000000000000000000000000000000000000000000000000000000081526004016116739061279e565b60405180910390fd5b6000600980549050146116c4576040517f08c379a00000000000000000000000000000000000000000000000000000000081526004016116bb90612830565b60405180910390fd5b6001600460026101000a81548160ff02191690831515021790555060004390506116ee8183611b7f565b600381905550600354817f87ac41d581680567c1ef44614ddfa5522f853ea15b877693a35b1e4157cc309d60405160405180910390a35050565b611730611ab3565b73ffffffffffffffffffffffffffffffffffffffff1661174e610fcc565b73ffffffffffffffffffffffffffffffffffffffff16146117a4576040517f08c379a000000000000000000000000000000000000000000000000000000000815260040161179b90612246565b60405180910390fd5b600073ffffffffffffffffffffffffffffffffffffffff168173ffffffffffffffffffffffffffffffffffffffff161415611814576040517f08c379a000000000000000000000000000000000000000000000000000000000815260040161180b906128c2565b60405180910390fd5b61181d81611abb565b50565b600080434233604051602001611836919061292a565b6040516020818303038152906040528051906020012060001c6118599190612974565b45424160405160200161186c91906129ce565b6040516020818303038152906040528051906020012060001c61188f9190612974565b444261189b9190612592565b6118a59190612592565b6118af9190612592565b6118b99190612592565b6118c39190612592565b6040516020016118d39190612a0a565b6040516020818303038152906040528051906020012060001c9050600980549050816118ff9190612a25565b91505090565b600081836119139190612974565b905092915050565b600081836119299190612a56565b905092915050565b6000600281905550600660009054906101000a900473ffffffffffffffffffffffffffffffffffffffff16600760006101000a81548173ffffffffffffffffffffffffffffffffffffffff021916908373ffffffffffffffffffffffffffffffffffffffff160217905550600760009054906101000a900473ffffffffffffffffffffffffffffffffffffffff1673ffffffffffffffffffffffffffffffffffffffff1663f340fa0182846040518363ffffffff1660e01b81526004016119f89190612b0f565b6000604051808303818588803b158015611a1157600080fd5b505af1158015611a25573d6000803e3d6000fd5b5050505050808273ffffffffffffffffffffffffffffffffffffffff167f7a3876294c003693c09b1f201358b7363caa12e3e033ed587899fd1d9f04473760405160405180910390a381600a60006101000a81548173ffffffffffffffffffffffffffffffffffffffff021916908373ffffffffffffffffffffffffffffffffffffffff1602179055505050565b600033905090565b60008060009054906101000a900473ffffffffffffffffffffffffffffffffffffffff169050816000806101000a81548173ffffffffffffffffffffffffffffffffffffffff021916908373ffffffffffffffffffffffffffffffffffffffff1602179055508173ffffffffffffffffffffffffffffffffffffffff168173ffffffffffffffffffffffffffffffffffffffff167f8be0079c531659141344cd1fd0a4f28419497f9722a3daafe3b4186f6b6457e060405160405180910390a35050565b60008183611b8d9190612592565b905092915050565b6000819050919050565b611ba881611b95565b82525050565b6000602082019050611bc36000830184611b9f565b92915050565b600060ff82169050919050565b611bdf81611bc9565b82525050565b6000602082019050611bfa6000830184611bd6565b92915050565b600080fd5b611c0e81611b95565b8114611c1957600080fd5b50565b600081359050611c2b81611c05565b92915050565b600060208284031215611c4757611c46611c00565b5b6000611c5584828501611c1c565b91505092915050565b600073ffffffffffffffffffffffffffffffffffffffff82169050919050565b6000611c8982611c5e565b9050919050565b611c9981611c7e565b82525050565b6000602082019050611cb46000830184611c90565b92915050565b6000611cc582611c5e565b9050919050565b611cd581611cba565b8114611ce057600080fd5b50565b600081359050611cf281611ccc565b92915050565b600060208284031215611d0e57611d0d611c00565b5b6000611d1c84828501611ce3565b91505092915050565b60008115159050919050565b611d3a81611d25565b82525050565b6000602082019050611d556000830184611d31565b92915050565b611d6481611bc9565b8114611d6f57600080fd5b50565b600081359050611d8181611d5b565b92915050565b600060208284031215611d9d57611d9c611c00565b5b6000611dab84828501611d72565b91505092915050565b600061ffff82169050919050565b611dcb81611db4565b8114611dd657600080fd5b50565b600081359050611de881611dc2565b92915050565b600060208284031215611e0457611e03611c00565b5b6000611e1284828501611dd9565b91505092915050565b611e2481611cba565b82525050565b6000602082019050611e3f6000830184611e1b565b92915050565b60008060408385031215611e5c57611e5b611c00565b5b6000611e6a85828601611c1c565b9250506020611e7b85828601611c1c565b9150509250929050565b600081519050919050565b600082825260208201905092915050565b6000819050602082019050919050565b611eba81611cba565b82525050565b6000611ecc8383611eb1565b60208301905092915050565b6000602082019050919050565b6000611ef082611e85565b611efa8185611e90565b9350611f0583611ea1565b8060005b83811015611f36578151611f1d8882611ec0565b9750611f2883611ed8565b925050600181019050611f09565b5085935050505092915050565b60006020820190508181036000830152611f5d8184611ee5565b905092915050565b611f6e81611c7e565b8114611f7957600080fd5b50565b600081359050611f8b81611f65565b92915050565b600060208284031215611fa757611fa6611c00565b5b6000611fb584828501611f7c565b91505092915050565b600082825260208201905092915050565b7f4f6e6c792074686520646f6e2063616e207374617274204d616b65206120576860008201527f616c650000000000000000000000000000000000000000000000000000000000602082015250565b600061202b602383611fbe565b915061203682611fcf565b604082019050919050565b6000602082019050818103600083015261205a8161201e565b9050919050565b7f456e64626c6f636b20697320696e207468652070617374000000000000000000600082015250565b6000612097601783611fbe565b91506120a282612061565b602082019050919050565b600060208201905081810360008301526120c68161208a565b9050919050565b7f4d616b652061207768616c652069736e27742072756e6e696e67000000000000600082015250565b6000612103601a83611fbe565b915061210e826120cd565b602082019050919050565b60006020820190508181036000830152612132816120f6565b9050919050565b7f4e487b7100000000000000000000000000000000000000000000000000000000600052603260045260246000fd5b7f4f6e6c792074686520636f6d70616e792063616e2063616c6c2074686973206660008201527f756e6374696f6e00000000000000000000000000000000000000000000000000602082015250565b60006121c4602783611fbe565b91506121cf82612168565b604082019050919050565b600060208201905081810360008301526121f3816121b7565b9050919050565b7f4f776e61626c653a2063616c6c6572206973206e6f7420746865206f776e6572600082015250565b6000612230602083611fbe565b915061223b826121fa565b602082019050919050565b6000602082019050818103600083015261225f81612223565b9050919050565b7f546865206c6f74746572792063616e6e6f742062652072756e6e696e6720776860008201527f656e20636c656172696e6720656e7472616e7473206461746100000000000000602082015250565b60006122c2603983611fbe565b91506122cd82612266565b604082019050919050565b600060208201905081810360008301526122f1816122b5565b9050919050565b7f546865206e756d626572206f6620656e7472616e747320746f2064656c65746560008201527f2063616e27742062652067726561746572207468616e20746865206e756d626560208201527f72206f6620656e7472616e747300000000000000000000000000000000000000604082015250565b600061237a604d83611fbe565b9150612385826122f8565b606082019050919050565b600060208201905081810360008301526123a98161236d565b9050919050565b7f4e487b7100000000000000000000000000000000000000000000000000000000600052601160045260246000fd5b60006123ea82611b95565b91506123f583611b95565b925082821015612408576124076123b0565b5b828203905092915050565b7f4e487b7100000000000000000000000000000000000000000000000000000000600052603160045260246000fd5b600061244d82611b95565b91507fffffffffffffffffffffffffffffffffffffffffffffffffffffffffffffffff8214156124805761247f6123b0565b5b600182019050919050565b7f73706c69742068617320746f2062652067726561746572207468616e20300000600082015250565b60006124c1601e83611fbe565b91506124cc8261248b565b602082019050919050565b600060208201905081810360008301526124f0816124b4565b9050919050565b7f73706c69742068617320746f206265203130206f72206c657373000000000000600082015250565b600061252d601a83611fbe565b9150612538826124f7565b602082019050919050565b6000602082019050818103600083015261255c81612520565b9050919050565b7f4e487b7100000000000000000000000000000000000000000000000000000000600052604160045260246000fd5b600061259d82611b95565b91506125a883611b95565b9250827fffffffffffffffffffffffffffffffffffffffffffffffffffffffffffffffff038211156125dd576125dc6123b0565b5b828201905092915050565b7f53656e64696e672077726f6e6720636f7374206f6620656e7472790000000000600082015250565b600061261e601b83611fbe565b9150612629826125e8565b602082019050919050565b6000602082019050818103600083015261264d81612611565b9050919050565b7f416464726573732068617320616c726561647920656e74657265640000000000600082015250565b600061268a601b83611fbe565b915061269582612654565b602082019050919050565b600060208201905081810360008301526126b98161267d565b9050919050565b7f4d616b652061205768616c652068617320746f2062652072756e6e696e670000600082015250565b60006126f6601e83611fbe565b9150612701826126c0565b602082019050919050565b60006020820190508181036000830152612725816126e9565b9050919050565b7f4d616b652061207768616c652063616e206f6e6c79207374617274206966206960008201527f7420697320656e64656400000000000000000000000000000000000000000000602082015250565b6000612788602a83611fbe565b91506127938261272c565b604082019050919050565b600060208201905081810360008301526127b78161277b565b9050919050565b7f416c6c206f6c6420656e7472616e7473206d75737420626520636c656172656460008201527f206265666f7265207374617274696e672e200000000000000000000000000000602082015250565b600061281a603283611fbe565b9150612825826127be565b604082019050919050565b600060208201905081810360008301526128498161280d565b9050919050565b7f4f776e61626c653a206e6577206f776e657220697320746865207a65726f206160008201527f6464726573730000000000000000000000000000000000000000000000000000602082015250565b60006128ac602683611fbe565b91506128b782612850565b604082019050919050565b600060208201905081810360008301526128db8161289f565b9050919050565b60008160601b9050919050565b60006128fa826128e2565b9050919050565b600061290c826128ef565b9050919050565b61292461291f82611cba565b612901565b82525050565b60006129368284612913565b60148201915081905092915050565b7f4e487b7100000000000000000000000000000000000000000000000000000000600052601260045260246000fd5b600061297f82611b95565b915061298a83611b95565b92508261299a57612999612945565b5b828204905092915050565b60006129b0826128ef565b9050919050565b6129c86129c382611c7e565b6129a5565b82525050565b60006129da82846129b7565b60148201915081905092915050565b6000819050919050565b612a046129ff82611b95565b6129e9565b82525050565b6000612a1682846129f3565b60208201915081905092915050565b6000612a3082611b95565b9150612a3b83611b95565b925082612a4b57612a4a612945565b5b828206905092915050565b6000612a6182611b95565b9150612a6c83611b95565b9250817fffffffffffffffffffffffffffffffffffffffffffffffffffffffffffffffff0483118215151615612aa557612aa46123b0565b5b828202905092915050565b6000819050919050565b6000612ad5612ad0612acb84611c5e565b612ab0565b611c5e565b9050919050565b6000612ae782612aba565b9050919050565b6000612af982612adc565b9050919050565b612b0981612aee565b82525050565b6000602082019050612b246000830184612b00565b9291505056fea2646970667358221220921fe9f9d8ab434b06196d9e74c82abb05b7cbfcb93010670b2c00f8cbe24e5d64736f6c634300080c0033",
  "immutableReferences": {},
  "source": "// SPDX-License-Identifier: MIT\npragma solidity >=0.4.21 <8.12.0;\n\nimport \"@openzeppelin/contracts/access/Ownable.sol\";\nimport \"@openzeppelin/contracts/utils/math/SafeMath.sol\";\n\n\nimport \"./WhaleWinnerVault.sol\";\n\n\ncontract MakeAWhale is Ownable {\n using SafeMath for uint256;\n\n    uint256 public entryFee;\n    uint256 public currentPot;\n    uint256 public endBlock;\n    \n    // max limit for entrantsArrayReturn\n    uint8 public maxLimit = 10;\n\n    // \n    uint8 public winnerSplit = 9;\n\n    bool public running;\n\n    address public don;\n    address payable public company;\n    address payable public WinnerVaultAddress;\n    WhaleWinnerVault private vault;\n\n    // entrant address => entered ( true or false )\n    mapping(address => bool) public Entrants;\n\n    // array of all entrants entered in lottery\n    address payable[] public EntrantsArray;\n\n    // address of the last winner \n    address public LastWinner;\n    \n    //Events\n    event NewEntrant(address indexed entrant);\n    event Started(uint indexed startblock, uint indexed endblock);\n    event NewWhale(address indexed newwhale, uint indexed winningpot);\n\n    modifier onlyDon {\n      require(msg.sender == don, \"Only the don can start Make a Whale\");\n      _;\n   }\n\n    modifier onlyCompany {\n      require(msg.sender == company, \"Only the company can call this function\");\n      _;\n   }\n\n    constructor(address _don, address payable _company, address payable _winnervault) {\n        entryFee = 40000000000000000;\n        currentPot = 0;\n        don = _don;\n        endBlock= 0;\n        running = false;\n        company = _company;\n        WinnerVaultAddress = _winnervault;\n    }\n\n    function setEntryFee(uint256 _entryfee) external onlyDon {\n        entryFee = _entryfee;\n    }\n\n    function setMaxLimit(uint8 _maxLimit) public onlyOwner{\n        maxLimit = _maxLimit;\n    }\n\n    //only don can set new don? or owner? \n    function setNewDon(address _address) external onlyOwner {\n        don = _address;\n    }\n\n    // set new company address\n    function setNewCompany(address payable _address) external onlyOwner {\n        company = _address;\n    }\n\n    function setWinnerSplit(uint8 _split) external onlyCompany {\n        require(_split > 0, \"split has to be greater than 0\");\n        require(_split < 11, \"split has to be 10 or less\");\n        winnerSplit = _split;\n    }\n\n\n    function getEntrantsArray(uint256 limit, uint256 offset) view external returns(address[] memory entrantsArraySlice) {\n        \n        uint256 numberofentrants = EntrantsArray.length;\n\n        uint256 size = numberofentrants < limit  ? numberofentrants : limit;\n\n        size = size < maxLimit ? size : maxLimit;\n\n        entrantsArraySlice = new address[](size);\n\n        for(uint256 i = 0; i < size; i++){\n            entrantsArraySlice[i] = EntrantsArray[i + offset];\n        }\n\n        return entrantsArraySlice;\n    }\n\n    function getEntrantsArrayLength() view external returns(uint256) {\n        return EntrantsArray.length;\n    }\n\n    function checkIfAddressIsEntered(address _address)  view external returns(bool){\n        return Entrants[_address];\n    }\n\n    // Handle the entering of new Entrants \n    function enter(address payable _newentrant) payable external {\n        //require the corect entry fee\n        require(msg.value == entryFee, \"Sending wrong cost of entry\");\n        \n        //require that address is not already entered\n        require(Entrants[_newentrant] == false, \"Address has already entered\");\n\n        // require to be running\n        require(running == true, \"Make a Whale has to be running\");\n\n        //update entry status of new entrant\n        Entrants[_newentrant] = true;\n\n        //add entrant address to address payable array\n        EntrantsArray.push(_newentrant);\n\n        //add 90% of new entry to pot\n        currentPot = currentPot.add(entryFee);\n\n        emit NewEntrant(_newentrant);\n    }\n\n    function Start(uint _blocktime) external onlyDon {\n        \n        require(running == false, \"Make a whale can only start if it is ended\");\n        require(EntrantsArray.length == 0, \"All old entrants must be cleared before starting. \");\n\n        \n        running = true;\n        \n        uint256 currentBlockNumber = block.number;\n\n        endBlock = SafeMath.add(currentBlockNumber, _blocktime);\n\n        emit Started(currentBlockNumber, endBlock);\n    }\n\n\n    // --- handle ending  --- \n    function End() external onlyDon {\n\n        // require that the current block number is larger than our end date\n        require(block.number > endBlock, \"Endblock is in the past\");\n\n        // require that the make a whale hasnt already ended\n        require(running == true, \"Make a whale isn't running\");\n        \n        //set end flag to true\n        running = false;\n        \n        uint256 numberOfEntrants = EntrantsArray.length;\n\n        // need to handle case where EntrantsArray is null ( 0 entrants ) \n        if(numberOfEntrants > 0){\n            // payout to random winner\n            payout(EntrantsArray[random()], currentPot.div(10).mul(winnerSplit));\n        }\n    }\n\n   \n    // ---- handle paying out to the vault of the new whale --- \n    function payout(address payable winner, uint256 pot) internal {\n        // use local pot variable to help prevent re entrancy ( even though this function is internal and only callable by don)\n        currentPot = 0;\n        vault = WhaleWinnerVault(WinnerVaultAddress);\n        // Send pot value with winner to vault deposit contract for future withdraw by winner\n        vault.deposit{value: pot}(winner);\n        emit NewWhale(winner, pot);\n        LastWinner = winner;\n    }\n\n    function deleteEntrantsData(uint16 amount) public onlyDon {\n        require(running == false, \"The lottery cannot be running when clearing entrants data\");\n        require(EntrantsArray.length >= amount,\"The number of entrants to delete can't be greater than the number of entrants\");\n\n        uint256 numberOfEntrants = EntrantsArray.length;\n\n        // iterate through our entrants mapping using EntrantsArray as keys and reset their values to false\n        for(uint i=0; i< amount; i++){\n            delete Entrants[EntrantsArray[numberOfEntrants - 1 - i]]; \n            EntrantsArray.pop();\n        }\n    }\n\n\n  \n\n     // withdraw our 10% to vault -- 10% will be remaining in contract after pot is transfered to winner vault\n    function withdrawToCompany() public onlyCompany {\n        require(running == false);\n        company.transfer(address(this).balance);\n    }\n\n\n    // pseudorandom number generator to get random number from range 0 - # of particpants \n    function random() internal view returns (uint256) {\n        uint256 seed = uint256(keccak256(abi.encodePacked(\n            block.timestamp + block.difficulty +\n            ((uint256(keccak256(abi.encodePacked(block.coinbase)))) / (block.timestamp)) +\n            block.gaslimit + \n            ((uint256(keccak256(abi.encodePacked(msg.sender)))) / (block.timestamp)) +\n            block.number\n        )));\n\n        return (seed % EntrantsArray.length);\n    }\n\n\n}",
  "sourcePath": "/Users/eth/Documents/MakeAWhale/contracts/MakeAWhale.sol",
  "compiler": {
    "name": "solc",
    "version": "0.8.12+commit.f00d7308.Emscripten.clang"
  },
  "schemaVersion": "3.4.4",
  "updatedAt": "2022-02-19T22:56:27.781Z",
  "networkType": "ethereum",
  "devdoc": {
    "kind": "dev",
    "methods": {
      "owner()": {
        "details": "Returns the address of the current owner."
      },
      "renounceOwnership()": {
        "details": "Leaves the contract without owner. It will not be possible to call `onlyOwner` functions anymore. Can only be called by the current owner. NOTE: Renouncing ownership will leave the contract without an owner, thereby removing any functionality that is only available to the owner."
      },
      "transferOwnership(address)": {
        "details": "Transfers ownership of the contract to a new account (`newOwner`). Can only be called by the current owner."
      }
    },
    "version": 1
  },
  "userdoc": {
    "kind": "user",
    "methods": {},
    "version": 1
  }
}