{
  "contractName": "MakeAWhale",
  "abi": [
    {
      "inputs": [
        {
          "internalType": "address",
          "name": "_don",
          "type": "address"
        },
        {
          "internalType": "address payable",
          "name": "_company",
          "type": "address"
        }
      ],
      "stateMutability": "nonpayable",
      "type": "constructor"
    },
    {
      "anonymous": false,
      "inputs": [
        {
          "indexed": true,
          "internalType": "address",
          "name": "entrant",
          "type": "address"
        }
      ],
      "name": "NewEntrant",
      "type": "event"
    },
    {
      "anonymous": false,
      "inputs": [
        {
          "indexed": true,
          "internalType": "address",
          "name": "newwhale",
          "type": "address"
        },
        {
          "indexed": true,
          "internalType": "uint256",
          "name": "winningpot",
          "type": "uint256"
        }
      ],
      "name": "NewWhale",
      "type": "event"
    },
    {
      "anonymous": false,
      "inputs": [
        {
          "indexed": true,
          "internalType": "address",
          "name": "previousOwner",
          "type": "address"
        },
        {
          "indexed": true,
          "internalType": "address",
          "name": "newOwner",
          "type": "address"
        }
      ],
      "name": "OwnershipTransferred",
      "type": "event"
    },
    {
      "anonymous": false,
      "inputs": [
        {
          "indexed": true,
          "internalType": "uint256",
          "name": "startblock",
          "type": "uint256"
        },
        {
          "indexed": true,
          "internalType": "uint256",
          "name": "endblock",
          "type": "uint256"
        }
      ],
      "name": "Started",
      "type": "event"
    },
    {
      "inputs": [
        {
          "internalType": "address",
          "name": "",
          "type": "address"
        }
      ],
      "name": "Entrants",
      "outputs": [
        {
          "internalType": "bool",
          "name": "",
          "type": "bool"
        }
      ],
      "stateMutability": "view",
      "type": "function",
      "constant": true
    },
    {
      "inputs": [
        {
          "internalType": "uint256",
          "name": "",
          "type": "uint256"
        }
      ],
      "name": "EntrantsArray",
      "outputs": [
        {
          "internalType": "address",
          "name": "",
          "type": "address"
        }
      ],
      "stateMutability": "view",
      "type": "function",
      "constant": true
    },
    {
      "inputs": [],
      "name": "WhaleVault",
      "outputs": [
        {
          "internalType": "contract WhaleWinnerVault",
          "name": "",
          "type": "address"
        }
      ],
      "stateMutability": "view",
      "type": "function",
      "constant": true
    },
    {
      "inputs": [],
      "name": "company",
      "outputs": [
        {
          "internalType": "address payable",
          "name": "",
          "type": "address"
        }
      ],
      "stateMutability": "view",
      "type": "function",
      "constant": true
    },
    {
      "inputs": [],
      "name": "currentPot",
      "outputs": [
        {
          "internalType": "uint128",
          "name": "",
          "type": "uint128"
        }
      ],
      "stateMutability": "view",
      "type": "function",
      "constant": true
    },
    {
      "inputs": [],
      "name": "don",
      "outputs": [
        {
          "internalType": "address",
          "name": "",
          "type": "address"
        }
      ],
      "stateMutability": "view",
      "type": "function",
      "constant": true
    },
    {
      "inputs": [],
      "name": "endBlock",
      "outputs": [
        {
          "internalType": "uint256",
          "name": "",
          "type": "uint256"
        }
      ],
      "stateMutability": "view",
      "type": "function",
      "constant": true
    },
    {
      "inputs": [],
      "name": "entryFee",
      "outputs": [
        {
          "internalType": "uint128",
          "name": "",
          "type": "uint128"
        }
      ],
      "stateMutability": "view",
      "type": "function",
      "constant": true
    },
    {
      "inputs": [],
      "name": "maxLimit",
      "outputs": [
        {
          "internalType": "uint64",
          "name": "",
          "type": "uint64"
        }
      ],
      "stateMutability": "view",
      "type": "function",
      "constant": true
    },
    {
      "inputs": [],
      "name": "owner",
      "outputs": [
        {
          "internalType": "address",
          "name": "",
          "type": "address"
        }
      ],
      "stateMutability": "view",
      "type": "function",
      "constant": true
    },
    {
      "inputs": [],
      "name": "renounceOwnership",
      "outputs": [],
      "stateMutability": "nonpayable",
      "type": "function"
    },
    {
      "inputs": [],
      "name": "running",
      "outputs": [
        {
          "internalType": "bool",
          "name": "",
          "type": "bool"
        }
      ],
      "stateMutability": "view",
      "type": "function",
      "constant": true
    },
    {
      "inputs": [
        {
          "internalType": "address",
          "name": "newOwner",
          "type": "address"
        }
      ],
      "name": "transferOwnership",
      "outputs": [],
      "stateMutability": "nonpayable",
      "type": "function"
    },
    {
      "inputs": [],
      "name": "winnerSplit",
      "outputs": [
        {
          "internalType": "uint8",
          "name": "",
          "type": "uint8"
        }
      ],
      "stateMutability": "view",
      "type": "function",
      "constant": true
    },
    {
      "inputs": [
        {
          "internalType": "uint128",
          "name": "_entryfee",
          "type": "uint128"
        }
      ],
      "name": "setEntryFee",
      "outputs": [],
      "stateMutability": "nonpayable",
      "type": "function"
    },
    {
      "inputs": [
        {
          "internalType": "uint64",
          "name": "_maxLimit",
          "type": "uint64"
        }
      ],
      "name": "setMaxLimit",
      "outputs": [],
      "stateMutability": "nonpayable",
      "type": "function"
    },
    {
      "inputs": [
        {
          "internalType": "address",
          "name": "_address",
          "type": "address"
        }
      ],
      "name": "setNewDon",
      "outputs": [],
      "stateMutability": "nonpayable",
      "type": "function"
    },
    {
      "inputs": [
        {
          "internalType": "address payable",
          "name": "_address",
          "type": "address"
        }
      ],
      "name": "setNewCompany",
      "outputs": [],
      "stateMutability": "nonpayable",
      "type": "function"
    },
    {
      "inputs": [
        {
          "internalType": "uint8",
          "name": "_split",
          "type": "uint8"
        }
      ],
      "name": "setWinnerSplit",
      "outputs": [],
      "stateMutability": "nonpayable",
      "type": "function"
    },
    {
      "inputs": [
        {
          "internalType": "uint256",
          "name": "limit",
          "type": "uint256"
        },
        {
          "internalType": "uint256",
          "name": "offset",
          "type": "uint256"
        }
      ],
      "name": "getEntrantsArray",
      "outputs": [
        {
          "internalType": "address[]",
          "name": "entrantsArraySlice",
          "type": "address[]"
        }
      ],
      "stateMutability": "view",
      "type": "function",
      "constant": true
    },
    {
      "inputs": [],
      "name": "getEntrantsArrayLength",
      "outputs": [
        {
          "internalType": "uint256",
          "name": "",
          "type": "uint256"
        }
      ],
      "stateMutability": "view",
      "type": "function",
      "constant": true
    },
    {
      "inputs": [
        {
          "internalType": "address",
          "name": "_address",
          "type": "address"
        }
      ],
      "name": "checkIfAddressIsEntered",
      "outputs": [
        {
          "internalType": "bool",
          "name": "",
          "type": "bool"
        }
      ],
      "stateMutability": "view",
      "type": "function",
      "constant": true
    },
    {
      "inputs": [
        {
          "internalType": "address payable",
          "name": "_newentrant",
          "type": "address"
        }
      ],
      "name": "enter",
      "outputs": [],
      "stateMutability": "payable",
      "type": "function",
      "payable": true
    },
    {
      "inputs": [
        {
          "internalType": "uint256",
          "name": "_blocktime",
          "type": "uint256"
        }
      ],
      "name": "Start",
      "outputs": [],
      "stateMutability": "nonpayable",
      "type": "function"
    },
    {
      "inputs": [],
      "name": "End",
      "outputs": [],
      "stateMutability": "nonpayable",
      "type": "function"
    },
    {
      "inputs": [
        {
          "internalType": "uint256",
          "name": "amount",
          "type": "uint256"
        }
      ],
      "name": "deleteEntrantsData",
      "outputs": [],
      "stateMutability": "nonpayable",
      "type": "function"
    },
    {
      "inputs": [],
      "name": "withdrawToCompany",
      "outputs": [],
      "stateMutability": "nonpayable",
      "type": "function"
    }
  ],
  "bytecode": "0x60806040523480156200001157600080fd5b5060405162003ccf38038062003ccf83398181016040528101906200003791906200035c565b620000576200004b620001d360201b60201c565b620001db60201b60201c565b668e1bc9bf040000600160006101000a8154816fffffffffffffffffffffffffffffffff02191690836fffffffffffffffffffffffffffffffff16021790555081600260096101000a81548173ffffffffffffffffffffffffffffffffffffffff021916908373ffffffffffffffffffffffffffffffffffffffff16021790555080600460016101000a81548173ffffffffffffffffffffffffffffffffffffffff021916908373ffffffffffffffffffffffffffffffffffffffff160217905550600a600260006101000a81548167ffffffffffffffff021916908367ffffffffffffffff1602179055506055600260086101000a81548160ff021916908360ff1602179055506040516200016d906200029f565b604051809103906000f0801580156200018a573d6000803e3d6000fd5b50600560006101000a81548173ffffffffffffffffffffffffffffffffffffffff021916908373ffffffffffffffffffffffffffffffffffffffff1602179055505050620003a3565b600033905090565b60008060009054906101000a900473ffffffffffffffffffffffffffffffffffffffff169050816000806101000a81548173ffffffffffffffffffffffffffffffffffffffff021916908373ffffffffffffffffffffffffffffffffffffffff1602179055508173ffffffffffffffffffffffffffffffffffffffff168173ffffffffffffffffffffffffffffffffffffffff167f8be0079c531659141344cd1fd0a4f28419497f9722a3daafe3b4186f6b6457e060405160405180910390a35050565b610c47806200308883390190565b600080fd5b600073ffffffffffffffffffffffffffffffffffffffff82169050919050565b6000620002df82620002b2565b9050919050565b620002f181620002d2565b8114620002fd57600080fd5b50565b6000815190506200031181620002e6565b92915050565b60006200032482620002b2565b9050919050565b620003368162000317565b81146200034257600080fd5b50565b60008151905062000356816200032b565b92915050565b60008060408385031215620003765762000375620002ad565b5b6000620003868582860162000300565b9250506020620003998582860162000345565b9150509250929050565b612cd580620003b36000396000f3fe60806040526004361061019c5760003560e01c806381a5ce3b116100ec578063c838d3171161008a578063d4c655ef11610064578063d4c655ef1461056f578063d85bd5261461059a578063f06a29c9146105c5578063f2fde38b146105ee5761019c565b8063c838d317146104eb578063cff9ea0814610528578063d014c01f146105535761019c565b80638da5cb5b116100c65780638da5cb5b1461042f578063942c1b411461045a57806394fb4edc14610497578063c5dc7022146104c25761019c565b806381a5ce3b146103b2578063854fde31146103dd5780638c5833e9146104065761019c565b80633f413863116101595780636904c94d116101335780636904c94d1461031e578063715018a61461034957806376b5ebbb1461036057806378632067146103895761019c565b80633f4138631461029f57806340cdb791146102b6578063574479e6146102f35761019c565b806306e64907146101a1578063072ea61c146101b8578063078943fc146101e3578063083c63231461020c5780631a861d26146102375780632a8abf8f14610262575b600080fd5b3480156101ad57600080fd5b506101b6610617565b005b3480156101c457600080fd5b506101cd61081b565b6040516101da9190611bff565b60405180910390f35b3480156101ef57600080fd5b5061020a60048036038101906102059190611c55565b61083d565b005b34801561021857600080fd5b50610221610a83565b60405161022e9190611c91565b60405180910390f35b34801561024357600080fd5b5061024c610a89565b6040516102599190611ccf565b60405180910390f35b34801561026e57600080fd5b5061028960048036038101906102849190611c55565b610aa3565b6040516102969190611d2b565b60405180910390f35b3480156102ab57600080fd5b506102b4610ae2565b005b3480156102c257600080fd5b506102dd60048036038101906102d89190611d72565b610bfd565b6040516102ea9190611dba565b60405180910390f35b3480156102ff57600080fd5b50610308610c53565b6040516103159190611bff565b60405180910390f35b34801561032a57600080fd5b50610333610c75565b6040516103409190611df6565b60405180910390f35b34801561035557600080fd5b5061035e610c9b565b005b34801561036c57600080fd5b5061038760048036038101906103829190611d72565b610d23565b005b34801561039557600080fd5b506103b060048036038101906103ab9190611e3d565b610de3565b005b3480156103be57600080fd5b506103c7610e8b565b6040516103d49190611d2b565b60405180910390f35b3480156103e957600080fd5b5061040460048036038101906103ff9190611e96565b610eb1565b005b34801561041257600080fd5b5061042d60048036038101906104289190611efc565b610f7d565b005b34801561043b57600080fd5b506104446110b8565b6040516104519190611d2b565b60405180910390f35b34801561046657600080fd5b50610481600480360381019061047c9190611f29565b6110e1565b60405161048e9190612027565b60405180910390f35b3480156104a357600080fd5b506104ac611271565b6040516104b99190611c91565b60405180910390f35b3480156104ce57600080fd5b506104e960048036038101906104e49190612075565b61127e565b005b3480156104f757600080fd5b50610512600480360381019061050d9190611d72565b61133e565b60405161051f9190611dba565b60405180910390f35b34801561053457600080fd5b5061053d61135e565b60405161054a91906120b1565b60405180910390f35b61056d60048036038101906105689190612075565b611371565b005b34801561057b57600080fd5b5061058461164e565b604051610591919061212b565b60405180910390f35b3480156105a657600080fd5b506105af611674565b6040516105bc9190611dba565b60405180910390f35b3480156105d157600080fd5b506105ec60048036038101906105e79190611c55565b611687565b005b3480156105fa57600080fd5b5061061560048036038101906106109190611d72565b61181b565b005b600260099054906101000a900473ffffffffffffffffffffffffffffffffffffffff1673ffffffffffffffffffffffffffffffffffffffff163373ffffffffffffffffffffffffffffffffffffffff16146106a7576040517f08c379a000000000000000000000000000000000000000000000000000000000815260040161069e906121c9565b60405180910390fd5b60035443116106eb576040517f08c379a00000000000000000000000000000000000000000000000000000000081526004016106e290612235565b60405180910390fd5b60011515600460009054906101000a900460ff16151514610741576040517f08c379a0000000000000000000000000000000000000000000000000000000008152600401610738906122a1565b60405180910390fd5b6000600460006101000a81548160ff02191690831515021790555060006007805490509050600081111561081857610817600761077c611913565b8154811061078d5761078c6122c1565b5b9060005260206000200160009054906101000a900473ffffffffffffffffffffffffffffffffffffffff16600260089054906101000a900460ff1660ff166064600160109054906101000a90046fffffffffffffffffffffffffffffffff166107f6919061234e565b610800919061237f565b6fffffffffffffffffffffffffffffffff166119f8565b5b50565b600160009054906101000a90046fffffffffffffffffffffffffffffffff1681565b600260099054906101000a900473ffffffffffffffffffffffffffffffffffffffff1673ffffffffffffffffffffffffffffffffffffffff163373ffffffffffffffffffffffffffffffffffffffff16146108cd576040517f08c379a00000000000000000000000000000000000000000000000000000000081526004016108c4906121c9565b60405180910390fd5b60001515600460009054906101000a900460ff16151514610923576040517f08c379a000000000000000000000000000000000000000000000000000000000815260040161091a9061243b565b60405180910390fd5b80600780549050101561096b576040517f08c379a0000000000000000000000000000000000000000000000000000000008152600401610962906124f3565b60405180910390fd5b6000600780549050905060005b82811015610a7e57600660006007836001866109949190612513565b61099e9190612513565b815481106109af576109ae6122c1565b5b9060005260206000200160009054906101000a900473ffffffffffffffffffffffffffffffffffffffff1673ffffffffffffffffffffffffffffffffffffffff1673ffffffffffffffffffffffffffffffffffffffff16815260200190815260200160002060006101000a81549060ff02191690556007805480610a3657610a35612547565b5b6001900381819060005260206000200160006101000a81549073ffffffffffffffffffffffffffffffffffffffff021916905590558080610a7690612576565b915050610978565b505050565b60035481565b600260009054906101000a900467ffffffffffffffff1681565b60078181548110610ab357600080fd5b906000526020600020016000915054906101000a900473ffffffffffffffffffffffffffffffffffffffff1681565b600460019054906101000a900473ffffffffffffffffffffffffffffffffffffffff1673ffffffffffffffffffffffffffffffffffffffff163373ffffffffffffffffffffffffffffffffffffffff1614610b72576040517f08c379a0000000000000000000000000000000000000000000000000000000008152600401610b6990612631565b60405180910390fd5b60001515600460009054906101000a900460ff16151514610b9257600080fd5b600460019054906101000a900473ffffffffffffffffffffffffffffffffffffffff1673ffffffffffffffffffffffffffffffffffffffff166108fc479081150290604051600060405180830381858888f19350505050158015610bfa573d6000803e3d6000fd5b50565b6000600660008373ffffffffffffffffffffffffffffffffffffffff1673ffffffffffffffffffffffffffffffffffffffff16815260200190815260200160002060009054906101000a900460ff169050919050565b600160109054906101000a90046fffffffffffffffffffffffffffffffff1681565b600460019054906101000a900473ffffffffffffffffffffffffffffffffffffffff1681565b610ca3611b08565b73ffffffffffffffffffffffffffffffffffffffff16610cc16110b8565b73ffffffffffffffffffffffffffffffffffffffff1614610d17576040517f08c379a0000000000000000000000000000000000000000000000000000000008152600401610d0e9061269d565b60405180910390fd5b610d216000611b10565b565b610d2b611b08565b73ffffffffffffffffffffffffffffffffffffffff16610d496110b8565b73ffffffffffffffffffffffffffffffffffffffff1614610d9f576040517f08c379a0000000000000000000000000000000000000000000000000000000008152600401610d969061269d565b60405180910390fd5b80600260096101000a81548173ffffffffffffffffffffffffffffffffffffffff021916908373ffffffffffffffffffffffffffffffffffffffff16021790555050565b610deb611b08565b73ffffffffffffffffffffffffffffffffffffffff16610e096110b8565b73ffffffffffffffffffffffffffffffffffffffff1614610e5f576040517f08c379a0000000000000000000000000000000000000000000000000000000008152600401610e569061269d565b60405180910390fd5b80600260006101000a81548167ffffffffffffffff021916908367ffffffffffffffff16021790555050565b600260099054906101000a900473ffffffffffffffffffffffffffffffffffffffff1681565b600260099054906101000a900473ffffffffffffffffffffffffffffffffffffffff1673ffffffffffffffffffffffffffffffffffffffff163373ffffffffffffffffffffffffffffffffffffffff1614610f41576040517f08c379a0000000000000000000000000000000000000000000000000000000008152600401610f38906121c9565b60405180910390fd5b80600160006101000a8154816fffffffffffffffffffffffffffffffff02191690836fffffffffffffffffffffffffffffffff16021790555050565b600460019054906101000a900473ffffffffffffffffffffffffffffffffffffffff1673ffffffffffffffffffffffffffffffffffffffff163373ffffffffffffffffffffffffffffffffffffffff161461100d576040517f08c379a000000000000000000000000000000000000000000000000000000000815260040161100490612631565b60405180910390fd5b60008160ff1611611053576040517f08c379a000000000000000000000000000000000000000000000000000000000815260040161104a90612709565b60405180910390fd5b60648160ff16111561109a576040517f08c379a000000000000000000000000000000000000000000000000000000000815260040161109190612775565b60405180910390fd5b80600260086101000a81548160ff021916908360ff16021790555050565b60008060009054906101000a900473ffffffffffffffffffffffffffffffffffffffff16905090565b60606000600780549050905060008482106110fc57846110fe565b815b9050600260009054906101000a900467ffffffffffffffff1667ffffffffffffffff16811061114d57600260009054906101000a900467ffffffffffffffff1667ffffffffffffffff1661114f565b805b90508067ffffffffffffffff81111561116b5761116a612795565b5b6040519080825280602002602001820160405280156111995781602001602082028036833780820191505090505b50925060005b8181101561126857600785826001866111b89190612513565b6111c29190612513565b6111cc9190612513565b815481106111dd576111dc6122c1565b5b9060005260206000200160009054906101000a900473ffffffffffffffffffffffffffffffffffffffff1684828151811061121b5761121a6122c1565b5b602002602001019073ffffffffffffffffffffffffffffffffffffffff16908173ffffffffffffffffffffffffffffffffffffffff1681525050808061126090612576565b91505061119f565b50505092915050565b6000600780549050905090565b611286611b08565b73ffffffffffffffffffffffffffffffffffffffff166112a46110b8565b73ffffffffffffffffffffffffffffffffffffffff16146112fa576040517f08c379a00000000000000000000000000000000000000000000000000000000081526004016112f19061269d565b60405180910390fd5b80600460016101000a81548173ffffffffffffffffffffffffffffffffffffffff021916908373ffffffffffffffffffffffffffffffffffffffff16021790555050565b60066020528060005260406000206000915054906101000a900460ff1681565b600260089054906101000a900460ff1681565b600160009054906101000a90046fffffffffffffffffffffffffffffffff166fffffffffffffffffffffffffffffffff1634146113e3576040517f08c379a00000000000000000000000000000000000000000000000000000000081526004016113da90612810565b60405180910390fd5b60001515600660008373ffffffffffffffffffffffffffffffffffffffff1673ffffffffffffffffffffffffffffffffffffffff16815260200190815260200160002060009054906101000a900460ff16151514611476576040517f08c379a000000000000000000000000000000000000000000000000000000000815260040161146d9061287c565b60405180910390fd5b60011515600460009054906101000a900460ff161515146114cc576040517f08c379a00000000000000000000000000000000000000000000000000000000081526004016114c3906128e8565b60405180910390fd5b6001600660008373ffffffffffffffffffffffffffffffffffffffff1673ffffffffffffffffffffffffffffffffffffffff16815260200190815260200160002060006101000a81548160ff0219169083151502179055506007819080600181540180825580915050600190039060005260206000200160009091909190916101000a81548173ffffffffffffffffffffffffffffffffffffffff021916908373ffffffffffffffffffffffffffffffffffffffff160217905550600160009054906101000a90046fffffffffffffffffffffffffffffffff16600160108282829054906101000a90046fffffffffffffffffffffffffffffffff166115d29190612908565b92506101000a8154816fffffffffffffffffffffffffffffffff02191690836fffffffffffffffffffffffffffffffff1602179055508073ffffffffffffffffffffffffffffffffffffffff167f137d2ef4b9d16c904b5b2d3c3ad3d293f0e7bae5cb321f99d496de891135870a60405160405180910390a250565b600560009054906101000a900473ffffffffffffffffffffffffffffffffffffffff1681565b600460009054906101000a900460ff1681565b600260099054906101000a900473ffffffffffffffffffffffffffffffffffffffff1673ffffffffffffffffffffffffffffffffffffffff163373ffffffffffffffffffffffffffffffffffffffff1614611717576040517f08c379a000000000000000000000000000000000000000000000000000000000815260040161170e906121c9565b60405180910390fd5b60001515600460009054906101000a900460ff1615151461176d576040517f08c379a0000000000000000000000000000000000000000000000000000000008152600401611764906129c0565b60405180910390fd5b6000600780549050146117b5576040517f08c379a00000000000000000000000000000000000000000000000000000000081526004016117ac90612a52565b60405180910390fd5b6001600460006101000a81548160ff021916908315150217905550600043905081816117e19190612a72565b600381905550600354817f87ac41d581680567c1ef44614ddfa5522f853ea15b877693a35b1e4157cc309d60405160405180910390a35050565b611823611b08565b73ffffffffffffffffffffffffffffffffffffffff166118416110b8565b73ffffffffffffffffffffffffffffffffffffffff1614611897576040517f08c379a000000000000000000000000000000000000000000000000000000000815260040161188e9061269d565b60405180910390fd5b600073ffffffffffffffffffffffffffffffffffffffff168173ffffffffffffffffffffffffffffffffffffffff161415611907576040517f08c379a00000000000000000000000000000000000000000000000000000000081526004016118fe90612b3a565b60405180910390fd5b61191081611b10565b50565b6000804342336040516020016119299190612ba2565b6040516020818303038152906040528051906020012060001c61194c9190612bbd565b45424160405160200161195f9190612c17565b6040516020818303038152906040528051906020012060001c6119829190612bbd565b444261198e9190612a72565b6119989190612a72565b6119a29190612a72565b6119ac9190612a72565b6119b69190612a72565b6040516020016119c69190612c53565b6040516020818303038152906040528051906020012060001c9050600780549050816119f29190612c6e565b91505090565b6000600160106101000a8154816fffffffffffffffffffffffffffffffff02191690836fffffffffffffffffffffffffffffffff160217905550600560009054906101000a900473ffffffffffffffffffffffffffffffffffffffff1673ffffffffffffffffffffffffffffffffffffffff1663f340fa0182846040518363ffffffff1660e01b8152600401611a8e9190611d2b565b6000604051808303818588803b158015611aa757600080fd5b505af1158015611abb573d6000803e3d6000fd5b5050505050808273ffffffffffffffffffffffffffffffffffffffff167f7a3876294c003693c09b1f201358b7363caa12e3e033ed587899fd1d9f04473760405160405180910390a35050565b600033905090565b60008060009054906101000a900473ffffffffffffffffffffffffffffffffffffffff169050816000806101000a81548173ffffffffffffffffffffffffffffffffffffffff021916908373ffffffffffffffffffffffffffffffffffffffff1602179055508173ffffffffffffffffffffffffffffffffffffffff168173ffffffffffffffffffffffffffffffffffffffff167f8be0079c531659141344cd1fd0a4f28419497f9722a3daafe3b4186f6b6457e060405160405180910390a35050565b60006fffffffffffffffffffffffffffffffff82169050919050565b611bf981611bd4565b82525050565b6000602082019050611c146000830184611bf0565b92915050565b600080fd5b6000819050919050565b611c3281611c1f565b8114611c3d57600080fd5b50565b600081359050611c4f81611c29565b92915050565b600060208284031215611c6b57611c6a611c1a565b5b6000611c7984828501611c40565b91505092915050565b611c8b81611c1f565b82525050565b6000602082019050611ca66000830184611c82565b92915050565b600067ffffffffffffffff82169050919050565b611cc981611cac565b82525050565b6000602082019050611ce46000830184611cc0565b92915050565b600073ffffffffffffffffffffffffffffffffffffffff82169050919050565b6000611d1582611cea565b9050919050565b611d2581611d0a565b82525050565b6000602082019050611d406000830184611d1c565b92915050565b611d4f81611d0a565b8114611d5a57600080fd5b50565b600081359050611d6c81611d46565b92915050565b600060208284031215611d8857611d87611c1a565b5b6000611d9684828501611d5d565b91505092915050565b60008115159050919050565b611db481611d9f565b82525050565b6000602082019050611dcf6000830184611dab565b92915050565b6000611de082611cea565b9050919050565b611df081611dd5565b82525050565b6000602082019050611e0b6000830184611de7565b92915050565b611e1a81611cac565b8114611e2557600080fd5b50565b600081359050611e3781611e11565b92915050565b600060208284031215611e5357611e52611c1a565b5b6000611e6184828501611e28565b91505092915050565b611e7381611bd4565b8114611e7e57600080fd5b50565b600081359050611e9081611e6a565b92915050565b600060208284031215611eac57611eab611c1a565b5b6000611eba84828501611e81565b91505092915050565b600060ff82169050919050565b611ed981611ec3565b8114611ee457600080fd5b50565b600081359050611ef681611ed0565b92915050565b600060208284031215611f1257611f11611c1a565b5b6000611f2084828501611ee7565b91505092915050565b60008060408385031215611f4057611f3f611c1a565b5b6000611f4e85828601611c40565b9250506020611f5f85828601611c40565b9150509250929050565b600081519050919050565b600082825260208201905092915050565b6000819050602082019050919050565b611f9e81611d0a565b82525050565b6000611fb08383611f95565b60208301905092915050565b6000602082019050919050565b6000611fd482611f69565b611fde8185611f74565b9350611fe983611f85565b8060005b8381101561201a5781516120018882611fa4565b975061200c83611fbc565b925050600181019050611fed565b5085935050505092915050565b600060208201905081810360008301526120418184611fc9565b905092915050565b61205281611dd5565b811461205d57600080fd5b50565b60008135905061206f81612049565b92915050565b60006020828403121561208b5761208a611c1a565b5b600061209984828501612060565b91505092915050565b6120ab81611ec3565b82525050565b60006020820190506120c660008301846120a2565b92915050565b6000819050919050565b60006120f16120ec6120e784611cea565b6120cc565b611cea565b9050919050565b6000612103826120d6565b9050919050565b6000612115826120f8565b9050919050565b6121258161210a565b82525050565b6000602082019050612140600083018461211c565b92915050565b600082825260208201905092915050565b7f4f6e6c792074686520646f6e2063616e207374617274204d616b65206120576860008201527f616c650000000000000000000000000000000000000000000000000000000000602082015250565b60006121b3602383612146565b91506121be82612157565b604082019050919050565b600060208201905081810360008301526121e2816121a6565b9050919050565b7f53756666696369656e742074696d6520686173206e6f74207061737420796574600082015250565b600061221f602083612146565b915061222a826121e9565b602082019050919050565b6000602082019050818103600083015261224e81612212565b9050919050565b7f4d616b652061207768616c652069736e27742072756e6e696e67000000000000600082015250565b600061228b601a83612146565b915061229682612255565b602082019050919050565b600060208201905081810360008301526122ba8161227e565b9050919050565b7f4e487b7100000000000000000000000000000000000000000000000000000000600052603260045260246000fd5b7f4e487b7100000000000000000000000000000000000000000000000000000000600052601260045260246000fd5b7f4e487b7100000000000000000000000000000000000000000000000000000000600052601160045260246000fd5b600061235982611bd4565b915061236483611bd4565b925082612374576123736122f0565b5b828204905092915050565b600061238a82611bd4565b915061239583611bd4565b9250816fffffffffffffffffffffffffffffffff04831182151516156123be576123bd61231f565b5b828202905092915050565b7f546865206c6f74746572792063616e6e6f742062652072756e6e696e6720776860008201527f656e20636c656172696e6720656e7472616e7473206461746100000000000000602082015250565b6000612425603983612146565b9150612430826123c9565b604082019050919050565b6000602082019050818103600083015261245481612418565b9050919050565b7f546865206e756d626572206f6620656e7472616e747320746f2064656c65746560008201527f2063616e27742062652067726561746572207468616e20746865206e756d626560208201527f72206f6620656e7472616e747300000000000000000000000000000000000000604082015250565b60006124dd604d83612146565b91506124e88261245b565b606082019050919050565b6000602082019050818103600083015261250c816124d0565b9050919050565b600061251e82611c1f565b915061252983611c1f565b92508282101561253c5761253b61231f565b5b828203905092915050565b7f4e487b7100000000000000000000000000000000000000000000000000000000600052603160045260246000fd5b600061258182611c1f565b91507fffffffffffffffffffffffffffffffffffffffffffffffffffffffffffffffff8214156125b4576125b361231f565b5b600182019050919050565b7f4f6e6c792074686520636f6d70616e792063616e2063616c6c2074686973206660008201527f756e6374696f6e00000000000000000000000000000000000000000000000000602082015250565b600061261b602783612146565b9150612626826125bf565b604082019050919050565b6000602082019050818103600083015261264a8161260e565b9050919050565b7f4f776e61626c653a2063616c6c6572206973206e6f7420746865206f776e6572600082015250565b6000612687602083612146565b915061269282612651565b602082019050919050565b600060208201905081810360008301526126b68161267a565b9050919050565b7f73706c69742068617320746f2062652067726561746572207468616e20300000600082015250565b60006126f3601e83612146565b91506126fe826126bd565b602082019050919050565b60006020820190508181036000830152612722816126e6565b9050919050565b7f73706c69742068617320746f206265203130206f72206c657373000000000000600082015250565b600061275f601a83612146565b915061276a82612729565b602082019050919050565b6000602082019050818103600083015261278e81612752565b9050919050565b7f4e487b7100000000000000000000000000000000000000000000000000000000600052604160045260246000fd5b7f53656e64696e672077726f6e6720636f7374206f6620656e7472790000000000600082015250565b60006127fa601b83612146565b9150612805826127c4565b602082019050919050565b60006020820190508181036000830152612829816127ed565b9050919050565b7f416464726573732068617320616c726561647920656e74657265640000000000600082015250565b6000612866601b83612146565b915061287182612830565b602082019050919050565b6000602082019050818103600083015261289581612859565b9050919050565b7f4d616b652061205768616c652068617320746f2062652072756e6e696e670000600082015250565b60006128d2601e83612146565b91506128dd8261289c565b602082019050919050565b60006020820190508181036000830152612901816128c5565b9050919050565b600061291382611bd4565b915061291e83611bd4565b9250826fffffffffffffffffffffffffffffffff038211156129435761294261231f565b5b828201905092915050565b7f4d616b652061207768616c652063616e206f6e6c79207374617274206966206960008201527f7420697320656e64656400000000000000000000000000000000000000000000602082015250565b60006129aa602a83612146565b91506129b58261294e565b604082019050919050565b600060208201905081810360008301526129d98161299d565b9050919050565b7f416c6c206f6c6420656e7472616e7473206d75737420626520636c656172656460008201527f206265666f7265207374617274696e672e200000000000000000000000000000602082015250565b6000612a3c603283612146565b9150612a47826129e0565b604082019050919050565b60006020820190508181036000830152612a6b81612a2f565b9050919050565b6000612a7d82611c1f565b9150612a8883611c1f565b9250827fffffffffffffffffffffffffffffffffffffffffffffffffffffffffffffffff03821115612abd57612abc61231f565b5b828201905092915050565b7f4f776e61626c653a206e6577206f776e657220697320746865207a65726f206160008201527f6464726573730000000000000000000000000000000000000000000000000000602082015250565b6000612b24602683612146565b9150612b2f82612ac8565b604082019050919050565b60006020820190508181036000830152612b5381612b17565b9050919050565b60008160601b9050919050565b6000612b7282612b5a565b9050919050565b6000612b8482612b67565b9050919050565b612b9c612b9782611d0a565b612b79565b82525050565b6000612bae8284612b8b565b60148201915081905092915050565b6000612bc882611c1f565b9150612bd383611c1f565b925082612be357612be26122f0565b5b828204905092915050565b6000612bf982612b67565b9050919050565b612c11612c0c82611dd5565b612bee565b82525050565b6000612c238284612c00565b60148201915081905092915050565b6000819050919050565b612c4d612c4882611c1f565b612c32565b82525050565b6000612c5f8284612c3c565b60208201915081905092915050565b6000612c7982611c1f565b9150612c8483611c1f565b925082612c9457612c936122f0565b5b82820690509291505056fea2646970667358221220becf2f224df965337d76f6f6d62c76a5e56a85c692b547a89f65990d5cc957e664736f6c634300080c0033608060405234801561001057600080fd5b5061002d61002261003260201b60201c565b61003a60201b60201c565b6100fe565b600033905090565b60008060009054906101000a900473ffffffffffffffffffffffffffffffffffffffff169050816000806101000a81548173ffffffffffffffffffffffffffffffffffffffff021916908373ffffffffffffffffffffffffffffffffffffffff1602179055508173ffffffffffffffffffffffffffffffffffffffff168173ffffffffffffffffffffffffffffffffffffffff167f8be0079c531659141344cd1fd0a4f28419497f9722a3daafe3b4186f6b6457e060405160405180910390a35050565b610b3a8061010d6000396000f3fe6080604052600436106100555760003560e01c806351cff8d91461005a578063715018a6146100835780638da5cb5b1461009a578063e3a9db1a146100c5578063f2fde38b14610102578063f340fa011461012b575b600080fd5b34801561006657600080fd5b50610081600480360381019061007c919061075c565b610147565b005b34801561008f57600080fd5b50610098610312565b005b3480156100a657600080fd5b506100af61039a565b6040516100bc91906107aa565b60405180910390f35b3480156100d157600080fd5b506100ec60048036038101906100e791906107f1565b6103c3565b6040516100f99190610837565b60405180910390f35b34801561010e57600080fd5b50610129600480360381019061012491906107f1565b61040c565b005b610145600480360381019061014091906107f1565b610504565b005b6000600160008373ffffffffffffffffffffffffffffffffffffffff1673ffffffffffffffffffffffffffffffffffffffff168152602001908152602001600020549050600081116101ce576040517f08c379a00000000000000000000000000000000000000000000000000000000081526004016101c5906108af565b60405180910390fd5b6000600160008473ffffffffffffffffffffffffffffffffffffffff1673ffffffffffffffffffffffffffffffffffffffff1681526020019081526020016000208190555060008273ffffffffffffffffffffffffffffffffffffffff168260405161023990610900565b60006040518083038185875af1925050503d8060008114610276576040519150601f19603f3d011682016040523d82523d6000602084013e61027b565b606091505b50509050806102bf576040517f08c379a00000000000000000000000000000000000000000000000000000000081526004016102b690610961565b60405180910390fd5b8273ffffffffffffffffffffffffffffffffffffffff167f7084f5476618d8e60b11ef0d7d3f06914655adb8793e28ff7f018d4c76d505d5836040516103059190610837565b60405180910390a2505050565b61031a61062d565b73ffffffffffffffffffffffffffffffffffffffff1661033861039a565b73ffffffffffffffffffffffffffffffffffffffff161461038e576040517f08c379a0000000000000000000000000000000000000000000000000000000008152600401610385906109cd565b60405180910390fd5b6103986000610635565b565b60008060009054906101000a900473ffffffffffffffffffffffffffffffffffffffff16905090565b6000600160008373ffffffffffffffffffffffffffffffffffffffff1673ffffffffffffffffffffffffffffffffffffffff168152602001908152602001600020549050919050565b61041461062d565b73ffffffffffffffffffffffffffffffffffffffff1661043261039a565b73ffffffffffffffffffffffffffffffffffffffff1614610488576040517f08c379a000000000000000000000000000000000000000000000000000000000815260040161047f906109cd565b60405180910390fd5b600073ffffffffffffffffffffffffffffffffffffffff168173ffffffffffffffffffffffffffffffffffffffff1614156104f8576040517f08c379a00000000000000000000000000000000000000000000000000000000081526004016104ef90610a5f565b60405180910390fd5b61050181610635565b50565b61050c61062d565b73ffffffffffffffffffffffffffffffffffffffff1661052a61039a565b73ffffffffffffffffffffffffffffffffffffffff1614610580576040517f08c379a0000000000000000000000000000000000000000000000000000000008152600401610577906109cd565b60405180910390fd5b600034905080600160008473ffffffffffffffffffffffffffffffffffffffff1673ffffffffffffffffffffffffffffffffffffffff16815260200190815260200160002060008282546105d49190610aae565b925050819055508173ffffffffffffffffffffffffffffffffffffffff167f2da466a7b24304f47e87fa2e1e5a81b9831ce54fec19055ce277ca2f39ba42c4826040516106219190610837565b60405180910390a25050565b600033905090565b60008060009054906101000a900473ffffffffffffffffffffffffffffffffffffffff169050816000806101000a81548173ffffffffffffffffffffffffffffffffffffffff021916908373ffffffffffffffffffffffffffffffffffffffff1602179055508173ffffffffffffffffffffffffffffffffffffffff168173ffffffffffffffffffffffffffffffffffffffff167f8be0079c531659141344cd1fd0a4f28419497f9722a3daafe3b4186f6b6457e060405160405180910390a35050565b600080fd5b600073ffffffffffffffffffffffffffffffffffffffff82169050919050565b6000610729826106fe565b9050919050565b6107398161071e565b811461074457600080fd5b50565b60008135905061075681610730565b92915050565b600060208284031215610772576107716106f9565b5b600061078084828501610747565b91505092915050565b6000610794826106fe565b9050919050565b6107a481610789565b82525050565b60006020820190506107bf600083018461079b565b92915050565b6107ce81610789565b81146107d957600080fd5b50565b6000813590506107eb816107c5565b92915050565b600060208284031215610807576108066106f9565b5b6000610815848285016107dc565b91505092915050565b6000819050919050565b6108318161081e565b82525050565b600060208201905061084c6000830184610828565b92915050565b600082825260208201905092915050565b7f596f752068617665206e6f2062616c616e636520696e20746865207661756c74600082015250565b6000610899602083610852565b91506108a482610863565b602082019050919050565b600060208201905081810360008301526108c88161088c565b9050919050565b600081905092915050565b50565b60006108ea6000836108cf565b91506108f5826108da565b600082019050919050565b600061090b826108dd565b9150819050919050565b7f5472616e73666572206661696c65642e00000000000000000000000000000000600082015250565b600061094b601083610852565b915061095682610915565b602082019050919050565b6000602082019050818103600083015261097a8161093e565b9050919050565b7f4f776e61626c653a2063616c6c6572206973206e6f7420746865206f776e6572600082015250565b60006109b7602083610852565b91506109c282610981565b602082019050919050565b600060208201905081810360008301526109e6816109aa565b9050919050565b7f4f776e61626c653a206e6577206f776e657220697320746865207a65726f206160008201527f6464726573730000000000000000000000000000000000000000000000000000602082015250565b6000610a49602683610852565b9150610a54826109ed565b604082019050919050565b60006020820190508181036000830152610a7881610a3c565b9050919050565b7f4e487b7100000000000000000000000000000000000000000000000000000000600052601160045260246000fd5b6000610ab98261081e565b9150610ac48361081e565b9250827fffffffffffffffffffffffffffffffffffffffffffffffffffffffffffffffff03821115610af957610af8610a7f565b5b82820190509291505056fea264697066735822122013e64e9da18f30efe73ad4f7e29fa65da3973520cf943161a3bc33a425ea615764736f6c634300080c0033",
  "immutableReferences": {},
  "source": "// SPDX-License-Identifier: MIT\npragma solidity >=0.8.0<8.12.0;\n\nimport \"@openzeppelin/contracts/access/Ownable.sol\";\nimport \"./WhaleWinnerVault.sol\";\n\n/*\n\n\n\n\n\n\n\n@poseidonsnonce\nmakeawhale.com\n*/\n\ncontract MakeAWhale is Ownable {\n\n    // Entry Fee \n    uint128 public entryFee;\n\n    // Current Pot\n    uint128 public currentPot;\n    \n    // max limit for entrantsArrayReturn\n    uint64 public maxLimit;\n\n    // winner percentage\n    uint8 public winnerSplit;\n\n    // Address of the don\n    address public don;\n\n     // End Block \n    uint256 public endBlock;\n\n    // Is Make a Whale Running\n    bool public running;\n\n    // Address of the company \n    address payable public company;\n\n    // Initialize the Whale Vault  \n    WhaleWinnerVault public WhaleVault;\n\n    // entrant address => entered ( true or false )\n    mapping(address => bool) public Entrants;\n\n    // array of all entrants entered in lottery\n    address[] public EntrantsArray;\n    \n    //Events\n    event NewEntrant(address indexed entrant);\n    event Started(uint indexed startblock, uint indexed endblock);\n    event NewWhale(address indexed newwhale, uint indexed winningpot);\n\n    modifier onlyDon {\n      require(msg.sender == don, \"Only the don can start Make a Whale\");\n      _;\n   }\n\n    modifier onlyCompany {\n      require(msg.sender == company, \"Only the company can call this function\");\n      _;\n   }\n\n    constructor(address _don, address payable _company) {\n        entryFee = 40000000000000000;\n        don = _don;\n        company = _company;\n        maxLimit = 10;\n        winnerSplit = 85; \n        WhaleVault = new WhaleWinnerVault();\n    }\n\n    function setEntryFee(uint128 _entryfee) external onlyDon {\n        entryFee = _entryfee;\n    }\n\n    function setMaxLimit(uint64 _maxLimit) public onlyOwner{\n        maxLimit = _maxLimit;\n    }\n\n    //only don can set new don? or owner? \n    function setNewDon(address _address) external onlyOwner {\n        don = _address;\n    }\n\n    // set new company address\n    function setNewCompany(address payable _address) external onlyOwner {\n        company = _address;\n    }\n\n    function setWinnerSplit(uint8 _split) external onlyCompany {\n        require(_split > 0, \"split has to be greater than 0\");\n        require(_split <= 100, \"split has to be 10 or less\");\n        winnerSplit = _split;\n    }\n\n    function getEntrantsArray(uint256 limit, uint256 offset) view external returns(address[] memory entrantsArraySlice) {\n        \n        uint256 numberofentrants = EntrantsArray.length;\n\n        uint256 size = numberofentrants < limit  ? numberofentrants : limit;\n\n        size = size < maxLimit ? size : maxLimit;\n\n        entrantsArraySlice = new address[](size);\n\n        for(uint256 i = 0; i < size; i++){\n            entrantsArraySlice[i] = EntrantsArray[numberofentrants - 1 - i - offset];\n        }\n\n        return entrantsArraySlice;\n    }\n\n    function getEntrantsArrayLength() view external returns(uint256) {\n        return EntrantsArray.length;\n    }\n\n    function checkIfAddressIsEntered(address _address)  view external returns(bool){\n        return Entrants[_address];\n    }\n\n    // Handle the entering of new Entrants \n    function enter(address payable _newentrant) payable external {\n        //require the corect entry fee\n        require(msg.value == entryFee, \"Sending wrong cost of entry\");\n        \n        //require that address is not already entered\n        require(Entrants[_newentrant] == false, \"Address has already entered\");\n\n        // require to be running\n        require(running == true, \"Make a Whale has to be running\");\n\n        //update entry status of new entrant\n        Entrants[_newentrant] = true;\n\n        //add entrant address to address payable array\n        EntrantsArray.push(_newentrant);\n\n        //add 90% of new entry to pot\n        currentPot += entryFee;\n\n        emit NewEntrant(_newentrant);\n    }\n\n    function Start(uint256 _blocktime) external onlyDon {\n        \n        require(running == false, \"Make a whale can only start if it is ended\");\n        require(EntrantsArray.length == 0, \"All old entrants must be cleared before starting. \");\n\n        running = true;\n        uint256 currentBlockNumber = block.number;\n        endBlock = currentBlockNumber + _blocktime;\n        emit Started(currentBlockNumber, endBlock);\n    }\n\n    // --- handle ending  --- \n    function End() external onlyDon {\n\n        // require that the current block number is larger than our end date\n        require(block.number > endBlock, \"Sufficient time has not past yet\");\n\n        // require that the make a whale hasnt already ended\n        require(running == true, \"Make a whale isn't running\");\n        \n        //set running to false\n        running = false;\n        \n        uint256 numberOfEntrants = EntrantsArray.length;\n\n        // need to handle case where EntrantsArray is null ( 0 entrants ) \n        if(numberOfEntrants > 0){\n            // payout to random winner    \n            payout(EntrantsArray[random()], (currentPot / 100) * winnerSplit);\n        }\n    }\n\n    // ---- handle paying out to the vault of the new whale --- \n    function payout(address winner, uint256 pot) internal {\n        // use local pot variable to help prevent re entrancy ( even though this function is internal and only callable by don)\n        currentPot = 0;\n\n        // Send pot value with winner to vault deposit contract for future withdraw by winner\n        WhaleVault.deposit{value: pot}(winner);\n        emit NewWhale(winner, pot);\n       \n    }\n\n    // moved this to seperate function to handle deleting entrants data in case entrants array grows to large \n    function deleteEntrantsData(uint256 amount) external onlyDon {\n        require(running == false, \"The lottery cannot be running when clearing entrants data\");\n        require(EntrantsArray.length >= amount,\"The number of entrants to delete can't be greater than the number of entrants\");\n\n        uint256 numberOfEntrants = EntrantsArray.length;\n\n        // iterate through our entrants mapping using EntrantsArray as keys and reset their values to false\n        for(uint i=0; i< amount; i++){\n            delete Entrants[EntrantsArray[numberOfEntrants - 1 - i]]; \n            EntrantsArray.pop();\n        }\n    }\n\n     // withdraw company % - this will be remaining in contract after pot is transfered to winner vault\n     // this can only be called when running is false which can only happen in the End function call \n     // this is security against company rug pulling the entire pot balance when running \n    function withdrawToCompany() external onlyCompany {\n        require(running == false);\n        company.transfer(address(this).balance);\n    }\n\n    // pseudorandom number generator to get random number from range 0 - # of particpants \n    // pseudorandomness is not a problem here since this function is only called by the don in the End function\n    function random() internal view returns (uint256) {\n        uint256 seed = uint256(keccak256(abi.encodePacked(\n            block.timestamp + block.difficulty +\n            ((uint256(keccak256(abi.encodePacked(block.coinbase)))) / (block.timestamp)) +\n            block.gaslimit + \n            ((uint256(keccak256(abi.encodePacked(msg.sender)))) / (block.timestamp)) +\n            block.number\n        )));\n\n        return (seed % EntrantsArray.length);\n    }\n}",
  "sourcePath": "/Users/eth/Documents/MakeAWhale/contracts/MakeAWhale.sol",
  "compiler": {
    "name": "solc",
    "version": "0.8.12+commit.f00d7308.Emscripten.clang"
  },
  "schemaVersion": "3.4.4",
  "updatedAt": "2022-03-02T00:55:40.081Z",
  "networkType": "ethereum",
  "devdoc": {
    "kind": "dev",
    "methods": {
      "owner()": {
        "details": "Returns the address of the current owner."
      },
      "renounceOwnership()": {
        "details": "Leaves the contract without owner. It will not be possible to call `onlyOwner` functions anymore. Can only be called by the current owner. NOTE: Renouncing ownership will leave the contract without an owner, thereby removing any functionality that is only available to the owner."
      },
      "transferOwnership(address)": {
        "details": "Transfers ownership of the contract to a new account (`newOwner`). Can only be called by the current owner."
      }
    },
    "version": 1
  },
  "userdoc": {
    "kind": "user",
    "methods": {},
    "version": 1
  }
}