{
  "contractName": "MakeAWhale",
  "abi": [
    {
      "inputs": [
        {
          "internalType": "address",
          "name": "_don",
          "type": "address"
        },
        {
          "internalType": "address payable",
          "name": "_company",
          "type": "address"
        }
      ],
      "stateMutability": "nonpayable",
      "type": "constructor"
    },
    {
      "anonymous": false,
      "inputs": [
        {
          "indexed": true,
          "internalType": "address",
          "name": "entrant",
          "type": "address"
        }
      ],
      "name": "NewEntrant",
      "type": "event"
    },
    {
      "anonymous": false,
      "inputs": [
        {
          "indexed": true,
          "internalType": "address",
          "name": "newwhale",
          "type": "address"
        },
        {
          "indexed": true,
          "internalType": "uint256",
          "name": "winningpot",
          "type": "uint256"
        }
      ],
      "name": "NewWhale",
      "type": "event"
    },
    {
      "anonymous": false,
      "inputs": [
        {
          "indexed": true,
          "internalType": "address",
          "name": "previousOwner",
          "type": "address"
        },
        {
          "indexed": true,
          "internalType": "address",
          "name": "newOwner",
          "type": "address"
        }
      ],
      "name": "OwnershipTransferred",
      "type": "event"
    },
    {
      "anonymous": false,
      "inputs": [
        {
          "indexed": true,
          "internalType": "uint256",
          "name": "startblock",
          "type": "uint256"
        },
        {
          "indexed": true,
          "internalType": "uint256",
          "name": "endblock",
          "type": "uint256"
        }
      ],
      "name": "Started",
      "type": "event"
    },
    {
      "inputs": [
        {
          "internalType": "address",
          "name": "",
          "type": "address"
        }
      ],
      "name": "Entrants",
      "outputs": [
        {
          "internalType": "bool",
          "name": "",
          "type": "bool"
        }
      ],
      "stateMutability": "view",
      "type": "function",
      "constant": true
    },
    {
      "inputs": [
        {
          "internalType": "uint256",
          "name": "",
          "type": "uint256"
        }
      ],
      "name": "EntrantsArray",
      "outputs": [
        {
          "internalType": "address",
          "name": "",
          "type": "address"
        }
      ],
      "stateMutability": "view",
      "type": "function",
      "constant": true
    },
    {
      "inputs": [],
      "name": "WhaleVault",
      "outputs": [
        {
          "internalType": "contract WhaleWinnerVault",
          "name": "",
          "type": "address"
        }
      ],
      "stateMutability": "view",
      "type": "function",
      "constant": true
    },
    {
      "inputs": [],
      "name": "company",
      "outputs": [
        {
          "internalType": "address payable",
          "name": "",
          "type": "address"
        }
      ],
      "stateMutability": "view",
      "type": "function",
      "constant": true
    },
    {
      "inputs": [],
      "name": "currentPot",
      "outputs": [
        {
          "internalType": "uint128",
          "name": "",
          "type": "uint128"
        }
      ],
      "stateMutability": "view",
      "type": "function",
      "constant": true
    },
    {
      "inputs": [],
      "name": "don",
      "outputs": [
        {
          "internalType": "address",
          "name": "",
          "type": "address"
        }
      ],
      "stateMutability": "view",
      "type": "function",
      "constant": true
    },
    {
      "inputs": [],
      "name": "endBlock",
      "outputs": [
        {
          "internalType": "uint256",
          "name": "",
          "type": "uint256"
        }
      ],
      "stateMutability": "view",
      "type": "function",
      "constant": true
    },
    {
      "inputs": [],
      "name": "entryFee",
      "outputs": [
        {
          "internalType": "uint128",
          "name": "",
          "type": "uint128"
        }
      ],
      "stateMutability": "view",
      "type": "function",
      "constant": true
    },
    {
      "inputs": [],
      "name": "maxLimit",
      "outputs": [
        {
          "internalType": "uint64",
          "name": "",
          "type": "uint64"
        }
      ],
      "stateMutability": "view",
      "type": "function",
      "constant": true
    },
    {
      "inputs": [],
      "name": "owner",
      "outputs": [
        {
          "internalType": "address",
          "name": "",
          "type": "address"
        }
      ],
      "stateMutability": "view",
      "type": "function",
      "constant": true
    },
    {
      "inputs": [],
      "name": "renounceOwnership",
      "outputs": [],
      "stateMutability": "nonpayable",
      "type": "function"
    },
    {
      "inputs": [],
      "name": "running",
      "outputs": [
        {
          "internalType": "bool",
          "name": "",
          "type": "bool"
        }
      ],
      "stateMutability": "view",
      "type": "function",
      "constant": true
    },
    {
      "inputs": [
        {
          "internalType": "address",
          "name": "newOwner",
          "type": "address"
        }
      ],
      "name": "transferOwnership",
      "outputs": [],
      "stateMutability": "nonpayable",
      "type": "function"
    },
    {
      "inputs": [],
      "name": "winnerSplit",
      "outputs": [
        {
          "internalType": "uint8",
          "name": "",
          "type": "uint8"
        }
      ],
      "stateMutability": "view",
      "type": "function",
      "constant": true
    },
    {
      "inputs": [
        {
          "internalType": "uint128",
          "name": "_entryfee",
          "type": "uint128"
        }
      ],
      "name": "setEntryFee",
      "outputs": [],
      "stateMutability": "nonpayable",
      "type": "function"
    },
    {
      "inputs": [
        {
          "internalType": "uint64",
          "name": "_maxLimit",
          "type": "uint64"
        }
      ],
      "name": "setMaxLimit",
      "outputs": [],
      "stateMutability": "nonpayable",
      "type": "function"
    },
    {
      "inputs": [
        {
          "internalType": "address",
          "name": "_address",
          "type": "address"
        }
      ],
      "name": "setNewDon",
      "outputs": [],
      "stateMutability": "nonpayable",
      "type": "function"
    },
    {
      "inputs": [
        {
          "internalType": "address payable",
          "name": "_address",
          "type": "address"
        }
      ],
      "name": "setNewCompany",
      "outputs": [],
      "stateMutability": "nonpayable",
      "type": "function"
    },
    {
      "inputs": [
        {
          "internalType": "uint8",
          "name": "_split",
          "type": "uint8"
        }
      ],
      "name": "setWinnerSplit",
      "outputs": [],
      "stateMutability": "nonpayable",
      "type": "function"
    },
    {
      "inputs": [
        {
          "internalType": "uint256",
          "name": "limit",
          "type": "uint256"
        },
        {
          "internalType": "uint256",
          "name": "offset",
          "type": "uint256"
        }
      ],
      "name": "getEntrantsArray",
      "outputs": [
        {
          "internalType": "address[]",
          "name": "entrantsArraySlice",
          "type": "address[]"
        }
      ],
      "stateMutability": "view",
      "type": "function",
      "constant": true
    },
    {
      "inputs": [],
      "name": "getEntrantsArrayLength",
      "outputs": [
        {
          "internalType": "uint256",
          "name": "",
          "type": "uint256"
        }
      ],
      "stateMutability": "view",
      "type": "function",
      "constant": true
    },
    {
      "inputs": [
        {
          "internalType": "address",
          "name": "_address",
          "type": "address"
        }
      ],
      "name": "checkIfAddressIsEntered",
      "outputs": [
        {
          "internalType": "bool",
          "name": "",
          "type": "bool"
        }
      ],
      "stateMutability": "view",
      "type": "function",
      "constant": true
    },
    {
      "inputs": [
        {
          "internalType": "address payable",
          "name": "_newentrant",
          "type": "address"
        }
      ],
      "name": "enter",
      "outputs": [],
      "stateMutability": "payable",
      "type": "function",
      "payable": true
    },
    {
      "inputs": [
        {
          "internalType": "uint256",
          "name": "_blocktime",
          "type": "uint256"
        }
      ],
      "name": "Start",
      "outputs": [],
      "stateMutability": "nonpayable",
      "type": "function"
    },
    {
      "inputs": [],
      "name": "End",
      "outputs": [],
      "stateMutability": "nonpayable",
      "type": "function"
    },
    {
      "inputs": [
        {
          "internalType": "uint256",
          "name": "amount",
          "type": "uint256"
        }
      ],
      "name": "deleteEntrantsData",
      "outputs": [],
      "stateMutability": "nonpayable",
      "type": "function"
    },
    {
      "inputs": [],
      "name": "withdrawToCompany",
      "outputs": [],
      "stateMutability": "nonpayable",
      "type": "function"
    }
  ],
  "bytecode": "0x60806040523480156200001157600080fd5b5060405162003cb838038062003cb883398181016040528101906200003791906200035c565b620000576200004b620001d360201b60201c565b620001db60201b60201c565b668e1bc9bf040000600160006101000a8154816fffffffffffffffffffffffffffffffff02191690836fffffffffffffffffffffffffffffffff16021790555081600260096101000a81548173ffffffffffffffffffffffffffffffffffffffff021916908373ffffffffffffffffffffffffffffffffffffffff16021790555080600460016101000a81548173ffffffffffffffffffffffffffffffffffffffff021916908373ffffffffffffffffffffffffffffffffffffffff160217905550600a600260006101000a81548167ffffffffffffffff021916908367ffffffffffffffff1602179055506055600260086101000a81548160ff021916908360ff1602179055506040516200016d906200029f565b604051809103906000f0801580156200018a573d6000803e3d6000fd5b50600560006101000a81548173ffffffffffffffffffffffffffffffffffffffff021916908373ffffffffffffffffffffffffffffffffffffffff1602179055505050620003a3565b600033905090565b60008060009054906101000a900473ffffffffffffffffffffffffffffffffffffffff169050816000806101000a81548173ffffffffffffffffffffffffffffffffffffffff021916908373ffffffffffffffffffffffffffffffffffffffff1602179055508173ffffffffffffffffffffffffffffffffffffffff168173ffffffffffffffffffffffffffffffffffffffff167f8be0079c531659141344cd1fd0a4f28419497f9722a3daafe3b4186f6b6457e060405160405180910390a35050565b610c47806200307183390190565b600080fd5b600073ffffffffffffffffffffffffffffffffffffffff82169050919050565b6000620002df82620002b2565b9050919050565b620002f181620002d2565b8114620002fd57600080fd5b50565b6000815190506200031181620002e6565b92915050565b60006200032482620002b2565b9050919050565b620003368162000317565b81146200034257600080fd5b50565b60008151905062000356816200032b565b92915050565b60008060408385031215620003765762000375620002ad565b5b6000620003868582860162000300565b9250506020620003998582860162000345565b9150509250929050565b612cbe80620003b36000396000f3fe60806040526004361061019c5760003560e01c806381a5ce3b116100ec578063c838d3171161008a578063d4c655ef11610064578063d4c655ef1461056f578063d85bd5261461059a578063f06a29c9146105c5578063f2fde38b146105ee5761019c565b8063c838d317146104eb578063cff9ea0814610528578063d014c01f146105535761019c565b80638da5cb5b116100c65780638da5cb5b1461042f578063942c1b411461045a57806394fb4edc14610497578063c5dc7022146104c25761019c565b806381a5ce3b146103b2578063854fde31146103dd5780638c5833e9146104065761019c565b80633f413863116101595780636904c94d116101335780636904c94d1461031e578063715018a61461034957806376b5ebbb1461036057806378632067146103895761019c565b80633f4138631461029f57806340cdb791146102b6578063574479e6146102f35761019c565b806306e64907146101a1578063072ea61c146101b8578063078943fc146101e3578063083c63231461020c5780631a861d26146102375780632a8abf8f14610262575b600080fd5b3480156101ad57600080fd5b506101b6610617565b005b3480156101c457600080fd5b506101cd61081b565b6040516101da9190611be8565b60405180910390f35b3480156101ef57600080fd5b5061020a60048036038101906102059190611c3e565b61083d565b005b34801561021857600080fd5b50610221610a83565b60405161022e9190611c7a565b60405180910390f35b34801561024357600080fd5b5061024c610a89565b6040516102599190611cb8565b60405180910390f35b34801561026e57600080fd5b5061028960048036038101906102849190611c3e565b610aa3565b6040516102969190611d14565b60405180910390f35b3480156102ab57600080fd5b506102b4610ae2565b005b3480156102c257600080fd5b506102dd60048036038101906102d89190611d5b565b610bfd565b6040516102ea9190611da3565b60405180910390f35b3480156102ff57600080fd5b50610308610c53565b6040516103159190611be8565b60405180910390f35b34801561032a57600080fd5b50610333610c75565b6040516103409190611ddf565b60405180910390f35b34801561035557600080fd5b5061035e610c9b565b005b34801561036c57600080fd5b5061038760048036038101906103829190611d5b565b610d23565b005b34801561039557600080fd5b506103b060048036038101906103ab9190611e26565b610de3565b005b3480156103be57600080fd5b506103c7610e8b565b6040516103d49190611d14565b60405180910390f35b3480156103e957600080fd5b5061040460048036038101906103ff9190611e7f565b610eb1565b005b34801561041257600080fd5b5061042d60048036038101906104289190611ee5565b610f7d565b005b34801561043b57600080fd5b506104446110b8565b6040516104519190611d14565b60405180910390f35b34801561046657600080fd5b50610481600480360381019061047c9190611f12565b6110e1565b60405161048e9190612010565b60405180910390f35b3480156104a357600080fd5b506104ac61125a565b6040516104b99190611c7a565b60405180910390f35b3480156104ce57600080fd5b506104e960048036038101906104e4919061205e565b611267565b005b3480156104f757600080fd5b50610512600480360381019061050d9190611d5b565b611327565b60405161051f9190611da3565b60405180910390f35b34801561053457600080fd5b5061053d611347565b60405161054a919061209a565b60405180910390f35b61056d6004803603810190610568919061205e565b61135a565b005b34801561057b57600080fd5b50610584611637565b6040516105919190612114565b60405180910390f35b3480156105a657600080fd5b506105af61165d565b6040516105bc9190611da3565b60405180910390f35b3480156105d157600080fd5b506105ec60048036038101906105e79190611c3e565b611670565b005b3480156105fa57600080fd5b5061061560048036038101906106109190611d5b565b611804565b005b600260099054906101000a900473ffffffffffffffffffffffffffffffffffffffff1673ffffffffffffffffffffffffffffffffffffffff163373ffffffffffffffffffffffffffffffffffffffff16146106a7576040517f08c379a000000000000000000000000000000000000000000000000000000000815260040161069e906121b2565b60405180910390fd5b60035443116106eb576040517f08c379a00000000000000000000000000000000000000000000000000000000081526004016106e29061221e565b60405180910390fd5b60011515600460009054906101000a900460ff16151514610741576040517f08c379a00000000000000000000000000000000000000000000000000000000081526004016107389061228a565b60405180910390fd5b6000600460006101000a81548160ff02191690831515021790555060006007805490509050600081111561081857610817600761077c6118fc565b8154811061078d5761078c6122aa565b5b9060005260206000200160009054906101000a900473ffffffffffffffffffffffffffffffffffffffff16600260089054906101000a900460ff1660ff166064600160109054906101000a90046fffffffffffffffffffffffffffffffff166107f69190612337565b6108009190612368565b6fffffffffffffffffffffffffffffffff166119e1565b5b50565b600160009054906101000a90046fffffffffffffffffffffffffffffffff1681565b600260099054906101000a900473ffffffffffffffffffffffffffffffffffffffff1673ffffffffffffffffffffffffffffffffffffffff163373ffffffffffffffffffffffffffffffffffffffff16146108cd576040517f08c379a00000000000000000000000000000000000000000000000000000000081526004016108c4906121b2565b60405180910390fd5b60001515600460009054906101000a900460ff16151514610923576040517f08c379a000000000000000000000000000000000000000000000000000000000815260040161091a90612424565b60405180910390fd5b80600780549050101561096b576040517f08c379a0000000000000000000000000000000000000000000000000000000008152600401610962906124dc565b60405180910390fd5b6000600780549050905060005b82811015610a7e576006600060078360018661099491906124fc565b61099e91906124fc565b815481106109af576109ae6122aa565b5b9060005260206000200160009054906101000a900473ffffffffffffffffffffffffffffffffffffffff1673ffffffffffffffffffffffffffffffffffffffff1673ffffffffffffffffffffffffffffffffffffffff16815260200190815260200160002060006101000a81549060ff02191690556007805480610a3657610a35612530565b5b6001900381819060005260206000200160006101000a81549073ffffffffffffffffffffffffffffffffffffffff021916905590558080610a769061255f565b915050610978565b505050565b60035481565b600260009054906101000a900467ffffffffffffffff1681565b60078181548110610ab357600080fd5b906000526020600020016000915054906101000a900473ffffffffffffffffffffffffffffffffffffffff1681565b600460019054906101000a900473ffffffffffffffffffffffffffffffffffffffff1673ffffffffffffffffffffffffffffffffffffffff163373ffffffffffffffffffffffffffffffffffffffff1614610b72576040517f08c379a0000000000000000000000000000000000000000000000000000000008152600401610b699061261a565b60405180910390fd5b60001515600460009054906101000a900460ff16151514610b9257600080fd5b600460019054906101000a900473ffffffffffffffffffffffffffffffffffffffff1673ffffffffffffffffffffffffffffffffffffffff166108fc479081150290604051600060405180830381858888f19350505050158015610bfa573d6000803e3d6000fd5b50565b6000600660008373ffffffffffffffffffffffffffffffffffffffff1673ffffffffffffffffffffffffffffffffffffffff16815260200190815260200160002060009054906101000a900460ff169050919050565b600160109054906101000a90046fffffffffffffffffffffffffffffffff1681565b600460019054906101000a900473ffffffffffffffffffffffffffffffffffffffff1681565b610ca3611af1565b73ffffffffffffffffffffffffffffffffffffffff16610cc16110b8565b73ffffffffffffffffffffffffffffffffffffffff1614610d17576040517f08c379a0000000000000000000000000000000000000000000000000000000008152600401610d0e90612686565b60405180910390fd5b610d216000611af9565b565b610d2b611af1565b73ffffffffffffffffffffffffffffffffffffffff16610d496110b8565b73ffffffffffffffffffffffffffffffffffffffff1614610d9f576040517f08c379a0000000000000000000000000000000000000000000000000000000008152600401610d9690612686565b60405180910390fd5b80600260096101000a81548173ffffffffffffffffffffffffffffffffffffffff021916908373ffffffffffffffffffffffffffffffffffffffff16021790555050565b610deb611af1565b73ffffffffffffffffffffffffffffffffffffffff16610e096110b8565b73ffffffffffffffffffffffffffffffffffffffff1614610e5f576040517f08c379a0000000000000000000000000000000000000000000000000000000008152600401610e5690612686565b60405180910390fd5b80600260006101000a81548167ffffffffffffffff021916908367ffffffffffffffff16021790555050565b600260099054906101000a900473ffffffffffffffffffffffffffffffffffffffff1681565b600260099054906101000a900473ffffffffffffffffffffffffffffffffffffffff1673ffffffffffffffffffffffffffffffffffffffff163373ffffffffffffffffffffffffffffffffffffffff1614610f41576040517f08c379a0000000000000000000000000000000000000000000000000000000008152600401610f38906121b2565b60405180910390fd5b80600160006101000a8154816fffffffffffffffffffffffffffffffff02191690836fffffffffffffffffffffffffffffffff16021790555050565b600460019054906101000a900473ffffffffffffffffffffffffffffffffffffffff1673ffffffffffffffffffffffffffffffffffffffff163373ffffffffffffffffffffffffffffffffffffffff161461100d576040517f08c379a00000000000000000000000000000000000000000000000000000000081526004016110049061261a565b60405180910390fd5b60008160ff1611611053576040517f08c379a000000000000000000000000000000000000000000000000000000000815260040161104a906126f2565b60405180910390fd5b60648160ff16111561109a576040517f08c379a00000000000000000000000000000000000000000000000000000000081526004016110919061275e565b60405180910390fd5b80600260086101000a81548160ff021916908360ff16021790555050565b60008060009054906101000a900473ffffffffffffffffffffffffffffffffffffffff16905090565b60606000600780549050905060008482106110fc57846110fe565b815b9050600260009054906101000a900467ffffffffffffffff1667ffffffffffffffff16811061114d57600260009054906101000a900467ffffffffffffffff1667ffffffffffffffff1661114f565b805b90508067ffffffffffffffff81111561116b5761116a61277e565b5b6040519080825280602002602001820160405280156111995781602001602082028036833780820191505090505b50925060005b8181101561125157600785826111b591906127ad565b815481106111c6576111c56122aa565b5b9060005260206000200160009054906101000a900473ffffffffffffffffffffffffffffffffffffffff16848281518110611204576112036122aa565b5b602002602001019073ffffffffffffffffffffffffffffffffffffffff16908173ffffffffffffffffffffffffffffffffffffffff168152505080806112499061255f565b91505061119f565b50505092915050565b6000600780549050905090565b61126f611af1565b73ffffffffffffffffffffffffffffffffffffffff1661128d6110b8565b73ffffffffffffffffffffffffffffffffffffffff16146112e3576040517f08c379a00000000000000000000000000000000000000000000000000000000081526004016112da90612686565b60405180910390fd5b80600460016101000a81548173ffffffffffffffffffffffffffffffffffffffff021916908373ffffffffffffffffffffffffffffffffffffffff16021790555050565b60066020528060005260406000206000915054906101000a900460ff1681565b600260089054906101000a900460ff1681565b600160009054906101000a90046fffffffffffffffffffffffffffffffff166fffffffffffffffffffffffffffffffff1634146113cc576040517f08c379a00000000000000000000000000000000000000000000000000000000081526004016113c39061284f565b60405180910390fd5b60001515600660008373ffffffffffffffffffffffffffffffffffffffff1673ffffffffffffffffffffffffffffffffffffffff16815260200190815260200160002060009054906101000a900460ff1615151461145f576040517f08c379a0000000000000000000000000000000000000000000000000000000008152600401611456906128bb565b60405180910390fd5b60011515600460009054906101000a900460ff161515146114b5576040517f08c379a00000000000000000000000000000000000000000000000000000000081526004016114ac90612927565b60405180910390fd5b6001600660008373ffffffffffffffffffffffffffffffffffffffff1673ffffffffffffffffffffffffffffffffffffffff16815260200190815260200160002060006101000a81548160ff0219169083151502179055506007819080600181540180825580915050600190039060005260206000200160009091909190916101000a81548173ffffffffffffffffffffffffffffffffffffffff021916908373ffffffffffffffffffffffffffffffffffffffff160217905550600160009054906101000a90046fffffffffffffffffffffffffffffffff16600160108282829054906101000a90046fffffffffffffffffffffffffffffffff166115bb9190612947565b92506101000a8154816fffffffffffffffffffffffffffffffff02191690836fffffffffffffffffffffffffffffffff1602179055508073ffffffffffffffffffffffffffffffffffffffff167f137d2ef4b9d16c904b5b2d3c3ad3d293f0e7bae5cb321f99d496de891135870a60405160405180910390a250565b600560009054906101000a900473ffffffffffffffffffffffffffffffffffffffff1681565b600460009054906101000a900460ff1681565b600260099054906101000a900473ffffffffffffffffffffffffffffffffffffffff1673ffffffffffffffffffffffffffffffffffffffff163373ffffffffffffffffffffffffffffffffffffffff1614611700576040517f08c379a00000000000000000000000000000000000000000000000000000000081526004016116f7906121b2565b60405180910390fd5b60001515600460009054906101000a900460ff16151514611756576040517f08c379a000000000000000000000000000000000000000000000000000000000815260040161174d906129ff565b60405180910390fd5b60006007805490501461179e576040517f08c379a000000000000000000000000000000000000000000000000000000000815260040161179590612a91565b60405180910390fd5b6001600460006101000a81548160ff021916908315150217905550600043905081816117ca91906127ad565b600381905550600354817f87ac41d581680567c1ef44614ddfa5522f853ea15b877693a35b1e4157cc309d60405160405180910390a35050565b61180c611af1565b73ffffffffffffffffffffffffffffffffffffffff1661182a6110b8565b73ffffffffffffffffffffffffffffffffffffffff1614611880576040517f08c379a000000000000000000000000000000000000000000000000000000000815260040161187790612686565b60405180910390fd5b600073ffffffffffffffffffffffffffffffffffffffff168173ffffffffffffffffffffffffffffffffffffffff1614156118f0576040517f08c379a00000000000000000000000000000000000000000000000000000000081526004016118e790612b23565b60405180910390fd5b6118f981611af9565b50565b6000804342336040516020016119129190612b8b565b6040516020818303038152906040528051906020012060001c6119359190612ba6565b4542416040516020016119489190612c00565b6040516020818303038152906040528051906020012060001c61196b9190612ba6565b444261197791906127ad565b61198191906127ad565b61198b91906127ad565b61199591906127ad565b61199f91906127ad565b6040516020016119af9190612c3c565b6040516020818303038152906040528051906020012060001c9050600780549050816119db9190612c57565b91505090565b6000600160106101000a8154816fffffffffffffffffffffffffffffffff02191690836fffffffffffffffffffffffffffffffff160217905550600560009054906101000a900473ffffffffffffffffffffffffffffffffffffffff1673ffffffffffffffffffffffffffffffffffffffff1663f340fa0182846040518363ffffffff1660e01b8152600401611a779190611d14565b6000604051808303818588803b158015611a9057600080fd5b505af1158015611aa4573d6000803e3d6000fd5b5050505050808273ffffffffffffffffffffffffffffffffffffffff167f7a3876294c003693c09b1f201358b7363caa12e3e033ed587899fd1d9f04473760405160405180910390a35050565b600033905090565b60008060009054906101000a900473ffffffffffffffffffffffffffffffffffffffff169050816000806101000a81548173ffffffffffffffffffffffffffffffffffffffff021916908373ffffffffffffffffffffffffffffffffffffffff1602179055508173ffffffffffffffffffffffffffffffffffffffff168173ffffffffffffffffffffffffffffffffffffffff167f8be0079c531659141344cd1fd0a4f28419497f9722a3daafe3b4186f6b6457e060405160405180910390a35050565b60006fffffffffffffffffffffffffffffffff82169050919050565b611be281611bbd565b82525050565b6000602082019050611bfd6000830184611bd9565b92915050565b600080fd5b6000819050919050565b611c1b81611c08565b8114611c2657600080fd5b50565b600081359050611c3881611c12565b92915050565b600060208284031215611c5457611c53611c03565b5b6000611c6284828501611c29565b91505092915050565b611c7481611c08565b82525050565b6000602082019050611c8f6000830184611c6b565b92915050565b600067ffffffffffffffff82169050919050565b611cb281611c95565b82525050565b6000602082019050611ccd6000830184611ca9565b92915050565b600073ffffffffffffffffffffffffffffffffffffffff82169050919050565b6000611cfe82611cd3565b9050919050565b611d0e81611cf3565b82525050565b6000602082019050611d296000830184611d05565b92915050565b611d3881611cf3565b8114611d4357600080fd5b50565b600081359050611d5581611d2f565b92915050565b600060208284031215611d7157611d70611c03565b5b6000611d7f84828501611d46565b91505092915050565b60008115159050919050565b611d9d81611d88565b82525050565b6000602082019050611db86000830184611d94565b92915050565b6000611dc982611cd3565b9050919050565b611dd981611dbe565b82525050565b6000602082019050611df46000830184611dd0565b92915050565b611e0381611c95565b8114611e0e57600080fd5b50565b600081359050611e2081611dfa565b92915050565b600060208284031215611e3c57611e3b611c03565b5b6000611e4a84828501611e11565b91505092915050565b611e5c81611bbd565b8114611e6757600080fd5b50565b600081359050611e7981611e53565b92915050565b600060208284031215611e9557611e94611c03565b5b6000611ea384828501611e6a565b91505092915050565b600060ff82169050919050565b611ec281611eac565b8114611ecd57600080fd5b50565b600081359050611edf81611eb9565b92915050565b600060208284031215611efb57611efa611c03565b5b6000611f0984828501611ed0565b91505092915050565b60008060408385031215611f2957611f28611c03565b5b6000611f3785828601611c29565b9250506020611f4885828601611c29565b9150509250929050565b600081519050919050565b600082825260208201905092915050565b6000819050602082019050919050565b611f8781611cf3565b82525050565b6000611f998383611f7e565b60208301905092915050565b6000602082019050919050565b6000611fbd82611f52565b611fc78185611f5d565b9350611fd283611f6e565b8060005b83811015612003578151611fea8882611f8d565b9750611ff583611fa5565b925050600181019050611fd6565b5085935050505092915050565b6000602082019050818103600083015261202a8184611fb2565b905092915050565b61203b81611dbe565b811461204657600080fd5b50565b60008135905061205881612032565b92915050565b60006020828403121561207457612073611c03565b5b600061208284828501612049565b91505092915050565b61209481611eac565b82525050565b60006020820190506120af600083018461208b565b92915050565b6000819050919050565b60006120da6120d56120d084611cd3565b6120b5565b611cd3565b9050919050565b60006120ec826120bf565b9050919050565b60006120fe826120e1565b9050919050565b61210e816120f3565b82525050565b60006020820190506121296000830184612105565b92915050565b600082825260208201905092915050565b7f4f6e6c792074686520646f6e2063616e207374617274204d616b65206120576860008201527f616c650000000000000000000000000000000000000000000000000000000000602082015250565b600061219c60238361212f565b91506121a782612140565b604082019050919050565b600060208201905081810360008301526121cb8161218f565b9050919050565b7f456e64626c6f636b20697320696e207468652070617374000000000000000000600082015250565b600061220860178361212f565b9150612213826121d2565b602082019050919050565b60006020820190508181036000830152612237816121fb565b9050919050565b7f4d616b652061207768616c652069736e27742072756e6e696e67000000000000600082015250565b6000612274601a8361212f565b915061227f8261223e565b602082019050919050565b600060208201905081810360008301526122a381612267565b9050919050565b7f4e487b7100000000000000000000000000000000000000000000000000000000600052603260045260246000fd5b7f4e487b7100000000000000000000000000000000000000000000000000000000600052601260045260246000fd5b7f4e487b7100000000000000000000000000000000000000000000000000000000600052601160045260246000fd5b600061234282611bbd565b915061234d83611bbd565b92508261235d5761235c6122d9565b5b828204905092915050565b600061237382611bbd565b915061237e83611bbd565b9250816fffffffffffffffffffffffffffffffff04831182151516156123a7576123a6612308565b5b828202905092915050565b7f546865206c6f74746572792063616e6e6f742062652072756e6e696e6720776860008201527f656e20636c656172696e6720656e7472616e7473206461746100000000000000602082015250565b600061240e60398361212f565b9150612419826123b2565b604082019050919050565b6000602082019050818103600083015261243d81612401565b9050919050565b7f546865206e756d626572206f6620656e7472616e747320746f2064656c65746560008201527f2063616e27742062652067726561746572207468616e20746865206e756d626560208201527f72206f6620656e7472616e747300000000000000000000000000000000000000604082015250565b60006124c6604d8361212f565b91506124d182612444565b606082019050919050565b600060208201905081810360008301526124f5816124b9565b9050919050565b600061250782611c08565b915061251283611c08565b92508282101561252557612524612308565b5b828203905092915050565b7f4e487b7100000000000000000000000000000000000000000000000000000000600052603160045260246000fd5b600061256a82611c08565b91507fffffffffffffffffffffffffffffffffffffffffffffffffffffffffffffffff82141561259d5761259c612308565b5b600182019050919050565b7f4f6e6c792074686520636f6d70616e792063616e2063616c6c2074686973206660008201527f756e6374696f6e00000000000000000000000000000000000000000000000000602082015250565b600061260460278361212f565b915061260f826125a8565b604082019050919050565b60006020820190508181036000830152612633816125f7565b9050919050565b7f4f776e61626c653a2063616c6c6572206973206e6f7420746865206f776e6572600082015250565b600061267060208361212f565b915061267b8261263a565b602082019050919050565b6000602082019050818103600083015261269f81612663565b9050919050565b7f73706c69742068617320746f2062652067726561746572207468616e20300000600082015250565b60006126dc601e8361212f565b91506126e7826126a6565b602082019050919050565b6000602082019050818103600083015261270b816126cf565b9050919050565b7f73706c69742068617320746f206265203130206f72206c657373000000000000600082015250565b6000612748601a8361212f565b915061275382612712565b602082019050919050565b600060208201905081810360008301526127778161273b565b9050919050565b7f4e487b7100000000000000000000000000000000000000000000000000000000600052604160045260246000fd5b60006127b882611c08565b91506127c383611c08565b9250827fffffffffffffffffffffffffffffffffffffffffffffffffffffffffffffffff038211156127f8576127f7612308565b5b828201905092915050565b7f53656e64696e672077726f6e6720636f7374206f6620656e7472790000000000600082015250565b6000612839601b8361212f565b915061284482612803565b602082019050919050565b600060208201905081810360008301526128688161282c565b9050919050565b7f416464726573732068617320616c726561647920656e74657265640000000000600082015250565b60006128a5601b8361212f565b91506128b08261286f565b602082019050919050565b600060208201905081810360008301526128d481612898565b9050919050565b7f4d616b652061205768616c652068617320746f2062652072756e6e696e670000600082015250565b6000612911601e8361212f565b915061291c826128db565b602082019050919050565b6000602082019050818103600083015261294081612904565b9050919050565b600061295282611bbd565b915061295d83611bbd565b9250826fffffffffffffffffffffffffffffffff0382111561298257612981612308565b5b828201905092915050565b7f4d616b652061207768616c652063616e206f6e6c79207374617274206966206960008201527f7420697320656e64656400000000000000000000000000000000000000000000602082015250565b60006129e9602a8361212f565b91506129f48261298d565b604082019050919050565b60006020820190508181036000830152612a18816129dc565b9050919050565b7f416c6c206f6c6420656e7472616e7473206d75737420626520636c656172656460008201527f206265666f7265207374617274696e672e200000000000000000000000000000602082015250565b6000612a7b60328361212f565b9150612a8682612a1f565b604082019050919050565b60006020820190508181036000830152612aaa81612a6e565b9050919050565b7f4f776e61626c653a206e6577206f776e657220697320746865207a65726f206160008201527f6464726573730000000000000000000000000000000000000000000000000000602082015250565b6000612b0d60268361212f565b9150612b1882612ab1565b604082019050919050565b60006020820190508181036000830152612b3c81612b00565b9050919050565b60008160601b9050919050565b6000612b5b82612b43565b9050919050565b6000612b6d82612b50565b9050919050565b612b85612b8082611cf3565b612b62565b82525050565b6000612b978284612b74565b60148201915081905092915050565b6000612bb182611c08565b9150612bbc83611c08565b925082612bcc57612bcb6122d9565b5b828204905092915050565b6000612be282612b50565b9050919050565b612bfa612bf582611dbe565b612bd7565b82525050565b6000612c0c8284612be9565b60148201915081905092915050565b6000819050919050565b612c36612c3182611c08565b612c1b565b82525050565b6000612c488284612c25565b60208201915081905092915050565b6000612c6282611c08565b9150612c6d83611c08565b925082612c7d57612c7c6122d9565b5b82820690509291505056fea26469706673582212200f25d4bf73230c60631bb172a24346ebc5e8ba689e2906ae9954da971f8f02e064736f6c634300080c0033608060405234801561001057600080fd5b5061002d61002261003260201b60201c565b61003a60201b60201c565b6100fe565b600033905090565b60008060009054906101000a900473ffffffffffffffffffffffffffffffffffffffff169050816000806101000a81548173ffffffffffffffffffffffffffffffffffffffff021916908373ffffffffffffffffffffffffffffffffffffffff1602179055508173ffffffffffffffffffffffffffffffffffffffff168173ffffffffffffffffffffffffffffffffffffffff167f8be0079c531659141344cd1fd0a4f28419497f9722a3daafe3b4186f6b6457e060405160405180910390a35050565b610b3a8061010d6000396000f3fe6080604052600436106100555760003560e01c806351cff8d91461005a578063715018a6146100835780638da5cb5b1461009a578063e3a9db1a146100c5578063f2fde38b14610102578063f340fa011461012b575b600080fd5b34801561006657600080fd5b50610081600480360381019061007c919061075c565b610147565b005b34801561008f57600080fd5b50610098610312565b005b3480156100a657600080fd5b506100af61039a565b6040516100bc91906107aa565b60405180910390f35b3480156100d157600080fd5b506100ec60048036038101906100e791906107f1565b6103c3565b6040516100f99190610837565b60405180910390f35b34801561010e57600080fd5b50610129600480360381019061012491906107f1565b61040c565b005b610145600480360381019061014091906107f1565b610504565b005b6000600160008373ffffffffffffffffffffffffffffffffffffffff1673ffffffffffffffffffffffffffffffffffffffff168152602001908152602001600020549050600081116101ce576040517f08c379a00000000000000000000000000000000000000000000000000000000081526004016101c5906108af565b60405180910390fd5b6000600160008473ffffffffffffffffffffffffffffffffffffffff1673ffffffffffffffffffffffffffffffffffffffff1681526020019081526020016000208190555060008273ffffffffffffffffffffffffffffffffffffffff168260405161023990610900565b60006040518083038185875af1925050503d8060008114610276576040519150601f19603f3d011682016040523d82523d6000602084013e61027b565b606091505b50509050806102bf576040517f08c379a00000000000000000000000000000000000000000000000000000000081526004016102b690610961565b60405180910390fd5b8273ffffffffffffffffffffffffffffffffffffffff167f7084f5476618d8e60b11ef0d7d3f06914655adb8793e28ff7f018d4c76d505d5836040516103059190610837565b60405180910390a2505050565b61031a61062d565b73ffffffffffffffffffffffffffffffffffffffff1661033861039a565b73ffffffffffffffffffffffffffffffffffffffff161461038e576040517f08c379a0000000000000000000000000000000000000000000000000000000008152600401610385906109cd565b60405180910390fd5b6103986000610635565b565b60008060009054906101000a900473ffffffffffffffffffffffffffffffffffffffff16905090565b6000600160008373ffffffffffffffffffffffffffffffffffffffff1673ffffffffffffffffffffffffffffffffffffffff168152602001908152602001600020549050919050565b61041461062d565b73ffffffffffffffffffffffffffffffffffffffff1661043261039a565b73ffffffffffffffffffffffffffffffffffffffff1614610488576040517f08c379a000000000000000000000000000000000000000000000000000000000815260040161047f906109cd565b60405180910390fd5b600073ffffffffffffffffffffffffffffffffffffffff168173ffffffffffffffffffffffffffffffffffffffff1614156104f8576040517f08c379a00000000000000000000000000000000000000000000000000000000081526004016104ef90610a5f565b60405180910390fd5b61050181610635565b50565b61050c61062d565b73ffffffffffffffffffffffffffffffffffffffff1661052a61039a565b73ffffffffffffffffffffffffffffffffffffffff1614610580576040517f08c379a0000000000000000000000000000000000000000000000000000000008152600401610577906109cd565b60405180910390fd5b600034905080600160008473ffffffffffffffffffffffffffffffffffffffff1673ffffffffffffffffffffffffffffffffffffffff16815260200190815260200160002060008282546105d49190610aae565b925050819055508173ffffffffffffffffffffffffffffffffffffffff167f2da466a7b24304f47e87fa2e1e5a81b9831ce54fec19055ce277ca2f39ba42c4826040516106219190610837565b60405180910390a25050565b600033905090565b60008060009054906101000a900473ffffffffffffffffffffffffffffffffffffffff169050816000806101000a81548173ffffffffffffffffffffffffffffffffffffffff021916908373ffffffffffffffffffffffffffffffffffffffff1602179055508173ffffffffffffffffffffffffffffffffffffffff168173ffffffffffffffffffffffffffffffffffffffff167f8be0079c531659141344cd1fd0a4f28419497f9722a3daafe3b4186f6b6457e060405160405180910390a35050565b600080fd5b600073ffffffffffffffffffffffffffffffffffffffff82169050919050565b6000610729826106fe565b9050919050565b6107398161071e565b811461074457600080fd5b50565b60008135905061075681610730565b92915050565b600060208284031215610772576107716106f9565b5b600061078084828501610747565b91505092915050565b6000610794826106fe565b9050919050565b6107a481610789565b82525050565b60006020820190506107bf600083018461079b565b92915050565b6107ce81610789565b81146107d957600080fd5b50565b6000813590506107eb816107c5565b92915050565b600060208284031215610807576108066106f9565b5b6000610815848285016107dc565b91505092915050565b6000819050919050565b6108318161081e565b82525050565b600060208201905061084c6000830184610828565b92915050565b600082825260208201905092915050565b7f596f752068617665206e6f2062616c616e636520696e20746865207661756c74600082015250565b6000610899602083610852565b91506108a482610863565b602082019050919050565b600060208201905081810360008301526108c88161088c565b9050919050565b600081905092915050565b50565b60006108ea6000836108cf565b91506108f5826108da565b600082019050919050565b600061090b826108dd565b9150819050919050565b7f5472616e73666572206661696c65642e00000000000000000000000000000000600082015250565b600061094b601083610852565b915061095682610915565b602082019050919050565b6000602082019050818103600083015261097a8161093e565b9050919050565b7f4f776e61626c653a2063616c6c6572206973206e6f7420746865206f776e6572600082015250565b60006109b7602083610852565b91506109c282610981565b602082019050919050565b600060208201905081810360008301526109e6816109aa565b9050919050565b7f4f776e61626c653a206e6577206f776e657220697320746865207a65726f206160008201527f6464726573730000000000000000000000000000000000000000000000000000602082015250565b6000610a49602683610852565b9150610a54826109ed565b604082019050919050565b60006020820190508181036000830152610a7881610a3c565b9050919050565b7f4e487b7100000000000000000000000000000000000000000000000000000000600052601160045260246000fd5b6000610ab98261081e565b9150610ac48361081e565b9250827fffffffffffffffffffffffffffffffffffffffffffffffffffffffffffffffff03821115610af957610af8610a7f565b5b82820190509291505056fea264697066735822122013e64e9da18f30efe73ad4f7e29fa65da3973520cf943161a3bc33a425ea615764736f6c634300080c0033",
  "immutableReferences": {},
  "source": "// SPDX-License-Identifier: MIT\npragma solidity >=0.8.0<8.12.0;\n\nimport \"@openzeppelin/contracts/access/Ownable.sol\";\nimport \"./WhaleWinnerVault.sol\";\n\n/*\n\n\n\n\n\n\n\n@poseidonsnonce\nmakeawhale.com\n*/\n\ncontract MakeAWhale is Ownable {\n\n    // Entry Fee \n    uint128 public entryFee;\n\n    // Current Pot\n    uint128 public currentPot;\n    \n    // max limit for entrantsArrayReturn\n    uint64 public maxLimit;\n\n    // winner percentage\n    uint8 public winnerSplit;\n\n    // Address of the don\n    address public don;\n\n     // End Block \n    uint256 public endBlock;\n\n    // Is Make a Whale Running\n    bool public running;\n\n    // Address of the company \n    address payable public company;\n\n    // Initialize the Whale Vault  \n    WhaleWinnerVault public WhaleVault;\n\n    // entrant address => entered ( true or false )\n    mapping(address => bool) public Entrants;\n\n    // array of all entrants entered in lottery\n    address[] public EntrantsArray;\n    \n    //Events\n    event NewEntrant(address indexed entrant);\n    event Started(uint indexed startblock, uint indexed endblock);\n    event NewWhale(address indexed newwhale, uint indexed winningpot);\n\n    modifier onlyDon {\n      require(msg.sender == don, \"Only the don can start Make a Whale\");\n      _;\n   }\n\n    modifier onlyCompany {\n      require(msg.sender == company, \"Only the company can call this function\");\n      _;\n   }\n\n    constructor(address _don, address payable _company) {\n        entryFee = 40000000000000000;\n        don = _don;\n        company = _company;\n        maxLimit = 10;\n        winnerSplit = 85; \n        WhaleVault = new WhaleWinnerVault();\n    }\n\n    function setEntryFee(uint128 _entryfee) external onlyDon {\n        entryFee = _entryfee;\n    }\n\n    function setMaxLimit(uint64 _maxLimit) public onlyOwner{\n        maxLimit = _maxLimit;\n    }\n\n    //only don can set new don? or owner? \n    function setNewDon(address _address) external onlyOwner {\n        don = _address;\n    }\n\n    // set new company address\n    function setNewCompany(address payable _address) external onlyOwner {\n        company = _address;\n    }\n\n    function setWinnerSplit(uint8 _split) external onlyCompany {\n        require(_split > 0, \"split has to be greater than 0\");\n        require(_split <= 100, \"split has to be 10 or less\");\n        winnerSplit = _split;\n    }\n\n    function getEntrantsArray(uint256 limit, uint256 offset) view external returns(address[] memory entrantsArraySlice) {\n        \n        uint256 numberofentrants = EntrantsArray.length;\n\n        uint256 size = numberofentrants < limit  ? numberofentrants : limit;\n\n        size = size < maxLimit ? size : maxLimit;\n\n        entrantsArraySlice = new address[](size);\n\n        for(uint256 i = 0; i < size; i++){\n            entrantsArraySlice[i] = EntrantsArray[i + offset];\n        }\n\n        return entrantsArraySlice;\n    }\n\n    function getEntrantsArrayLength() view external returns(uint256) {\n        return EntrantsArray.length;\n    }\n\n    function checkIfAddressIsEntered(address _address)  view external returns(bool){\n        return Entrants[_address];\n    }\n\n    // Handle the entering of new Entrants \n    function enter(address payable _newentrant) payable external {\n        //require the corect entry fee\n        require(msg.value == entryFee, \"Sending wrong cost of entry\");\n        \n        //require that address is not already entered\n        require(Entrants[_newentrant] == false, \"Address has already entered\");\n\n        // require to be running\n        require(running == true, \"Make a Whale has to be running\");\n\n        //update entry status of new entrant\n        Entrants[_newentrant] = true;\n\n        //add entrant address to address payable array\n        EntrantsArray.push(_newentrant);\n\n        //add 90% of new entry to pot\n        currentPot += entryFee;\n\n        emit NewEntrant(_newentrant);\n    }\n\n    function Start(uint256 _blocktime) external onlyDon {\n        \n        require(running == false, \"Make a whale can only start if it is ended\");\n        require(EntrantsArray.length == 0, \"All old entrants must be cleared before starting. \");\n\n        running = true;\n        uint256 currentBlockNumber = block.number;\n        endBlock = currentBlockNumber + _blocktime;\n        emit Started(currentBlockNumber, endBlock);\n    }\n\n    // --- handle ending  --- \n    function End() external onlyDon {\n\n        // require that the current block number is larger than our end date\n        require(block.number > endBlock, \"Endblock is in the past\");\n\n        // require that the make a whale hasnt already ended\n        require(running == true, \"Make a whale isn't running\");\n        \n        //set running to false\n        running = false;\n        \n        uint256 numberOfEntrants = EntrantsArray.length;\n\n        // need to handle case where EntrantsArray is null ( 0 entrants ) \n        if(numberOfEntrants > 0){\n            // payout to random winner    \n            payout(EntrantsArray[random()], (currentPot / 100) * winnerSplit);\n        }\n    }\n\n    // ---- handle paying out to the vault of the new whale --- \n    function payout(address winner, uint256 pot) internal {\n        // use local pot variable to help prevent re entrancy ( even though this function is internal and only callable by don)\n        currentPot = 0;\n\n        // Send pot value with winner to vault deposit contract for future withdraw by winner\n        WhaleVault.deposit{value: pot}(winner);\n        emit NewWhale(winner, pot);\n       \n    }\n\n    // moved this to seperate function to handle deleting entrants data in case entrants array grows to large \n    function deleteEntrantsData(uint256 amount) external onlyDon {\n        require(running == false, \"The lottery cannot be running when clearing entrants data\");\n        require(EntrantsArray.length >= amount,\"The number of entrants to delete can't be greater than the number of entrants\");\n\n        uint256 numberOfEntrants = EntrantsArray.length;\n\n        // iterate through our entrants mapping using EntrantsArray as keys and reset their values to false\n        for(uint i=0; i< amount; i++){\n            delete Entrants[EntrantsArray[numberOfEntrants - 1 - i]]; \n            EntrantsArray.pop();\n        }\n    }\n\n     // withdraw company % - this will be remaining in contract after pot is transfered to winner vault\n     // this can only be called when running is false which can only happen in the End function call \n     // this is security against company rug pulling the entire pot balance when running \n    function withdrawToCompany() external onlyCompany {\n        require(running == false);\n        company.transfer(address(this).balance);\n    }\n\n    // pseudorandom number generator to get random number from range 0 - # of particpants \n    // pseudorandomness is not a problem here since this function is only called by the don in the End function\n    function random() internal view returns (uint256) {\n        uint256 seed = uint256(keccak256(abi.encodePacked(\n            block.timestamp + block.difficulty +\n            ((uint256(keccak256(abi.encodePacked(block.coinbase)))) / (block.timestamp)) +\n            block.gaslimit + \n            ((uint256(keccak256(abi.encodePacked(msg.sender)))) / (block.timestamp)) +\n            block.number\n        )));\n\n        return (seed % EntrantsArray.length);\n    }\n}",
  "sourcePath": "/Users/eth/Documents/MakeAWhale/contracts/MakeAWhale.sol",
  "compiler": {
    "name": "solc",
    "version": "0.8.12+commit.f00d7308.Emscripten.clang"
  },
  "schemaVersion": "3.4.4",
  "updatedAt": "2022-02-28T00:34:52.812Z",
  "networkType": "ethereum",
  "devdoc": {
    "kind": "dev",
    "methods": {
      "owner()": {
        "details": "Returns the address of the current owner."
      },
      "renounceOwnership()": {
        "details": "Leaves the contract without owner. It will not be possible to call `onlyOwner` functions anymore. Can only be called by the current owner. NOTE: Renouncing ownership will leave the contract without an owner, thereby removing any functionality that is only available to the owner."
      },
      "transferOwnership(address)": {
        "details": "Transfers ownership of the contract to a new account (`newOwner`). Can only be called by the current owner."
      }
    },
    "version": 1
  },
  "userdoc": {
    "kind": "user",
    "methods": {},
    "version": 1
  }
}