{
  "contractName": "WhaleWinnerVault",
  "abi": [
    {
      "anonymous": false,
      "inputs": [
        {
          "indexed": true,
          "internalType": "address",
          "name": "payee",
          "type": "address"
        },
        {
          "indexed": false,
          "internalType": "uint256",
          "name": "weiAmount",
          "type": "uint256"
        }
      ],
      "name": "Deposited",
      "type": "event"
    },
    {
      "anonymous": false,
      "inputs": [
        {
          "indexed": true,
          "internalType": "address",
          "name": "previousOwner",
          "type": "address"
        },
        {
          "indexed": true,
          "internalType": "address",
          "name": "newOwner",
          "type": "address"
        }
      ],
      "name": "OwnershipTransferred",
      "type": "event"
    },
    {
      "anonymous": false,
      "inputs": [
        {
          "indexed": true,
          "internalType": "address",
          "name": "payee",
          "type": "address"
        },
        {
          "indexed": false,
          "internalType": "uint256",
          "name": "weiAmount",
          "type": "uint256"
        }
      ],
      "name": "Withdrawn",
      "type": "event"
    },
    {
      "inputs": [],
      "name": "owner",
      "outputs": [
        {
          "internalType": "address",
          "name": "",
          "type": "address"
        }
      ],
      "stateMutability": "view",
      "type": "function"
    },
    {
      "inputs": [],
      "name": "renounceOwnership",
      "outputs": [],
      "stateMutability": "nonpayable",
      "type": "function"
    },
    {
      "inputs": [
        {
          "internalType": "address",
          "name": "newOwner",
          "type": "address"
        }
      ],
      "name": "transferOwnership",
      "outputs": [],
      "stateMutability": "nonpayable",
      "type": "function"
    },
    {
      "inputs": [
        {
          "internalType": "address",
          "name": "payee",
          "type": "address"
        }
      ],
      "name": "depositsOf",
      "outputs": [
        {
          "internalType": "uint256",
          "name": "",
          "type": "uint256"
        }
      ],
      "stateMutability": "view",
      "type": "function"
    },
    {
      "inputs": [
        {
          "internalType": "address",
          "name": "payee",
          "type": "address"
        }
      ],
      "name": "deposit",
      "outputs": [],
      "stateMutability": "payable",
      "type": "function"
    },
    {
      "inputs": [
        {
          "internalType": "address payable",
          "name": "payee",
          "type": "address"
        }
      ],
      "name": "withdraw",
      "outputs": [],
      "stateMutability": "nonpayable",
      "type": "function"
    }
  ],
  "bytecode": "0x608060405234801561001057600080fd5b5061002d61002261003260201b60201c565b61003a60201b60201c565b6100fe565b600033905090565b60008060009054906101000a900473ffffffffffffffffffffffffffffffffffffffff169050816000806101000a81548173ffffffffffffffffffffffffffffffffffffffff021916908373ffffffffffffffffffffffffffffffffffffffff1602179055508173ffffffffffffffffffffffffffffffffffffffff168173ffffffffffffffffffffffffffffffffffffffff167f8be0079c531659141344cd1fd0a4f28419497f9722a3daafe3b4186f6b6457e060405160405180910390a35050565b610b3a8061010d6000396000f3fe6080604052600436106100555760003560e01c806351cff8d91461005a578063715018a6146100835780638da5cb5b1461009a578063e3a9db1a146100c5578063f2fde38b14610102578063f340fa011461012b575b600080fd5b34801561006657600080fd5b50610081600480360381019061007c919061075c565b610147565b005b34801561008f57600080fd5b50610098610312565b005b3480156100a657600080fd5b506100af61039a565b6040516100bc91906107aa565b60405180910390f35b3480156100d157600080fd5b506100ec60048036038101906100e791906107f1565b6103c3565b6040516100f99190610837565b60405180910390f35b34801561010e57600080fd5b50610129600480360381019061012491906107f1565b61040c565b005b610145600480360381019061014091906107f1565b610504565b005b6000600160008373ffffffffffffffffffffffffffffffffffffffff1673ffffffffffffffffffffffffffffffffffffffff168152602001908152602001600020549050600081116101ce576040517f08c379a00000000000000000000000000000000000000000000000000000000081526004016101c5906108af565b60405180910390fd5b6000600160008473ffffffffffffffffffffffffffffffffffffffff1673ffffffffffffffffffffffffffffffffffffffff1681526020019081526020016000208190555060008273ffffffffffffffffffffffffffffffffffffffff168260405161023990610900565b60006040518083038185875af1925050503d8060008114610276576040519150601f19603f3d011682016040523d82523d6000602084013e61027b565b606091505b50509050806102bf576040517f08c379a00000000000000000000000000000000000000000000000000000000081526004016102b690610961565b60405180910390fd5b8273ffffffffffffffffffffffffffffffffffffffff167f7084f5476618d8e60b11ef0d7d3f06914655adb8793e28ff7f018d4c76d505d5836040516103059190610837565b60405180910390a2505050565b61031a61062d565b73ffffffffffffffffffffffffffffffffffffffff1661033861039a565b73ffffffffffffffffffffffffffffffffffffffff161461038e576040517f08c379a0000000000000000000000000000000000000000000000000000000008152600401610385906109cd565b60405180910390fd5b6103986000610635565b565b60008060009054906101000a900473ffffffffffffffffffffffffffffffffffffffff16905090565b6000600160008373ffffffffffffffffffffffffffffffffffffffff1673ffffffffffffffffffffffffffffffffffffffff168152602001908152602001600020549050919050565b61041461062d565b73ffffffffffffffffffffffffffffffffffffffff1661043261039a565b73ffffffffffffffffffffffffffffffffffffffff1614610488576040517f08c379a000000000000000000000000000000000000000000000000000000000815260040161047f906109cd565b60405180910390fd5b600073ffffffffffffffffffffffffffffffffffffffff168173ffffffffffffffffffffffffffffffffffffffff1614156104f8576040517f08c379a00000000000000000000000000000000000000000000000000000000081526004016104ef90610a5f565b60405180910390fd5b61050181610635565b50565b61050c61062d565b73ffffffffffffffffffffffffffffffffffffffff1661052a61039a565b73ffffffffffffffffffffffffffffffffffffffff1614610580576040517f08c379a0000000000000000000000000000000000000000000000000000000008152600401610577906109cd565b60405180910390fd5b600034905080600160008473ffffffffffffffffffffffffffffffffffffffff1673ffffffffffffffffffffffffffffffffffffffff16815260200190815260200160002060008282546105d49190610aae565b925050819055508173ffffffffffffffffffffffffffffffffffffffff167f2da466a7b24304f47e87fa2e1e5a81b9831ce54fec19055ce277ca2f39ba42c4826040516106219190610837565b60405180910390a25050565b600033905090565b60008060009054906101000a900473ffffffffffffffffffffffffffffffffffffffff169050816000806101000a81548173ffffffffffffffffffffffffffffffffffffffff021916908373ffffffffffffffffffffffffffffffffffffffff1602179055508173ffffffffffffffffffffffffffffffffffffffff168173ffffffffffffffffffffffffffffffffffffffff167f8be0079c531659141344cd1fd0a4f28419497f9722a3daafe3b4186f6b6457e060405160405180910390a35050565b600080fd5b600073ffffffffffffffffffffffffffffffffffffffff82169050919050565b6000610729826106fe565b9050919050565b6107398161071e565b811461074457600080fd5b50565b60008135905061075681610730565b92915050565b600060208284031215610772576107716106f9565b5b600061078084828501610747565b91505092915050565b6000610794826106fe565b9050919050565b6107a481610789565b82525050565b60006020820190506107bf600083018461079b565b92915050565b6107ce81610789565b81146107d957600080fd5b50565b6000813590506107eb816107c5565b92915050565b600060208284031215610807576108066106f9565b5b6000610815848285016107dc565b91505092915050565b6000819050919050565b6108318161081e565b82525050565b600060208201905061084c6000830184610828565b92915050565b600082825260208201905092915050565b7f596f752068617665206e6f2062616c616e636520696e20746865207661756c74600082015250565b6000610899602083610852565b91506108a482610863565b602082019050919050565b600060208201905081810360008301526108c88161088c565b9050919050565b600081905092915050565b50565b60006108ea6000836108cf565b91506108f5826108da565b600082019050919050565b600061090b826108dd565b9150819050919050565b7f5472616e73666572206661696c65642e00000000000000000000000000000000600082015250565b600061094b601083610852565b915061095682610915565b602082019050919050565b6000602082019050818103600083015261097a8161093e565b9050919050565b7f4f776e61626c653a2063616c6c6572206973206e6f7420746865206f776e6572600082015250565b60006109b7602083610852565b91506109c282610981565b602082019050919050565b600060208201905081810360008301526109e6816109aa565b9050919050565b7f4f776e61626c653a206e6577206f776e657220697320746865207a65726f206160008201527f6464726573730000000000000000000000000000000000000000000000000000602082015250565b6000610a49602683610852565b9150610a54826109ed565b604082019050919050565b60006020820190508181036000830152610a7881610a3c565b9050919050565b7f4e487b7100000000000000000000000000000000000000000000000000000000600052601160045260246000fd5b6000610ab98261081e565b9150610ac48361081e565b9250827fffffffffffffffffffffffffffffffffffffffffffffffffffffffffffffffff03821115610af957610af8610a7f565b5b82820190509291505056fea26469706673582212202cf5ed65b91ba512b46c1c496b83c989fa2223019efda228481c4268a367af8164736f6c634300080c0033",
  "immutableReferences": {},
  "source": "// SPDX-License-Identifier: MIT\npragma solidity >=0.8.0 <8.12.0;\nimport \"@openzeppelin/contracts/access/Ownable.sol\";\n\ncontract WhaleWinnerVault is Ownable{\n\n  event Deposited(address indexed payee, uint256 weiAmount);\n  event Withdrawn(address indexed payee, uint256 weiAmount);\n\n  mapping(address => uint256) private _deposits;\n\n  function depositsOf(address payee) public view returns (uint256) {\n    return _deposits[payee];\n  }\n\n  /**\n  * @dev Stores the sent amount as credit to be withdrawn.\n  * @param payee The destination address of the funds.\n  */\n  function deposit(address payee) public payable onlyOwner {\n    uint256 amount = msg.value;\n    _deposits[payee] += amount;\n    emit Deposited(payee, amount);\n  }\n\n  /**\n  * @dev Withdraw accumulated balance for a payee.\n  * @param payee The address whose funds will be withdrawn and transferred to.\n  */\n  function withdraw(address payable payee) public  {\n    uint256 payment = _deposits[payee]; \n    require(payment > 0, \"You have no balance in the vault\");\n    _deposits[payee] = 0;\n    (bool success, ) = payee.call{value:payment}(\"\");\n    require(success, \"Transfer failed.\");\n    emit Withdrawn(payee, payment);\n  }\n\n\n\n\n}\n\n",
  "sourcePath": "/Users/eth/Documents/MakeAWhale/contracts/WhaleWinnerVault.sol",
  "compiler": {
    "name": "solc",
    "version": "0.8.12+commit.f00d7308.Emscripten.clang"
  },
  "schemaVersion": "3.4.4",
  "updatedAt": "2022-02-24T02:35:30.250Z",
  "networkType": "ethereum",
  "devdoc": {
    "kind": "dev",
    "methods": {
      "deposit(address)": {
        "details": "Stores the sent amount as credit to be withdrawn.",
        "params": {
          "payee": "The destination address of the funds."
        }
      },
      "owner()": {
        "details": "Returns the address of the current owner."
      },
      "renounceOwnership()": {
        "details": "Leaves the contract without owner. It will not be possible to call `onlyOwner` functions anymore. Can only be called by the current owner. NOTE: Renouncing ownership will leave the contract without an owner, thereby removing any functionality that is only available to the owner."
      },
      "transferOwnership(address)": {
        "details": "Transfers ownership of the contract to a new account (`newOwner`). Can only be called by the current owner."
      },
      "withdraw(address)": {
        "details": "Withdraw accumulated balance for a payee.",
        "params": {
          "payee": "The address whose funds will be withdrawn and transferred to."
        }
      }
    },
    "version": 1
  },
  "userdoc": {
    "kind": "user",
    "methods": {},
    "version": 1
  }
}